{
  "contractName": "DutchAuction",
  "abi": [
    {
      "inputs": [
        {
          "internalType": "address",
          "name": "usdtContractAddress",
          "type": "address"
        }
      ],
      "stateMutability": "nonpayable",
      "type": "constructor"
    },
    {
      "anonymous": false,
      "inputs": [
        {
          "indexed": false,
          "internalType": "address",
          "name": "creatorAddress",
          "type": "address"
        },
        {
          "indexed": false,
          "internalType": "string",
          "name": "matchId",
          "type": "string"
        },
        {
          "indexed": false,
          "internalType": "uint256",
          "name": "openBlock",
          "type": "uint256"
        },
        {
          "indexed": false,
          "internalType": "uint256",
          "name": "expiryBlock",
          "type": "uint256"
        },
        {
          "indexed": false,
          "internalType": "uint256",
          "name": "blockPerEpoch",
          "type": "uint256"
        },
        {
          "components": [
            {
              "internalType": "address",
              "name": "contractAddress",
              "type": "address"
            },
            {
              "internalType": "uint256",
              "name": "tokenId",
              "type": "uint256"
            },
            {
              "internalType": "uint256",
              "name": "startingPrice",
              "type": "uint256"
            },
            {
              "internalType": "uint256",
              "name": "decrementPerEpoch",
              "type": "uint256"
            },
            {
              "internalType": "uint256",
              "name": "reservePrice",
              "type": "uint256"
            }
          ],
          "indexed": false,
          "internalType": "struct DutchAuction.NFT[]",
          "name": "nfts",
          "type": "tuple[]"
        }
      ],
      "name": "CreateAuctionEvent",
      "type": "event"
    },
    {
      "anonymous": false,
      "inputs": [
        {
          "indexed": false,
          "internalType": "string",
          "name": "matchId",
          "type": "string"
        },
        {
          "indexed": false,
          "internalType": "address",
          "name": "playerAddress",
          "type": "address"
        },
        {
          "indexed": false,
          "internalType": "uint256",
          "name": "tokenIndex",
          "type": "uint256"
        },
        {
          "indexed": false,
          "internalType": "uint256",
          "name": "bid",
          "type": "uint256"
        }
      ],
      "name": "PlayerBidEvent",
      "type": "event"
    },
    {
      "anonymous": false,
      "inputs": [
        {
          "indexed": false,
          "internalType": "string",
          "name": "matchId",
          "type": "string"
        },
        {
          "indexed": false,
          "internalType": "uint256",
          "name": "tokenIndex",
          "type": "uint256"
        },
        {
          "indexed": false,
          "internalType": "address",
          "name": "winnerAddress",
          "type": "address"
        }
      ],
      "name": "RewardEvent",
      "type": "event"
    },
    {
      "inputs": [],
      "name": "USDT_ADDRESS",
      "outputs": [
        {
          "internalType": "address",
          "name": "",
          "type": "address"
        }
      ],
      "stateMutability": "view",
      "type": "function"
    },
    {
      "inputs": [
        {
          "internalType": "string",
          "name": "",
          "type": "string"
        },
        {
          "internalType": "uint256",
          "name": "",
          "type": "uint256"
        }
      ],
      "name": "matchNFTs",
      "outputs": [
        {
          "internalType": "address",
          "name": "contractAddress",
          "type": "address"
        },
        {
          "internalType": "uint256",
          "name": "tokenId",
          "type": "uint256"
        },
        {
          "internalType": "uint256",
          "name": "startingPrice",
          "type": "uint256"
        },
        {
          "internalType": "uint256",
          "name": "decrementPerEpoch",
          "type": "uint256"
        },
        {
          "internalType": "uint256",
          "name": "reservePrice",
          "type": "uint256"
        }
      ],
      "stateMutability": "view",
      "type": "function"
    },
    {
      "inputs": [
        {
          "internalType": "string",
          "name": "",
          "type": "string"
        },
        {
          "internalType": "uint256",
          "name": "",
          "type": "uint256"
        }
      ],
      "name": "matchResults",
      "outputs": [
        {
          "internalType": "address",
          "name": "bidder",
          "type": "address"
        },
        {
          "internalType": "uint256",
          "name": "bidAmount",
          "type": "uint256"
        }
      ],
      "stateMutability": "view",
      "type": "function"
    },
    {
      "inputs": [
        {
          "internalType": "string",
          "name": "",
          "type": "string"
        }
      ],
      "name": "matches",
      "outputs": [
        {
          "internalType": "address",
          "name": "creatorAddress",
          "type": "address"
        },
        {
          "internalType": "uint256",
          "name": "openBlock",
          "type": "uint256"
        },
        {
          "internalType": "uint256",
          "name": "expiryBlock",
          "type": "uint256"
        },
        {
          "internalType": "uint256",
          "name": "blockPerEpoch",
          "type": "uint256"
        },
        {
          "internalType": "uint256",
          "name": "nftCount",
          "type": "uint256"
        }
      ],
      "stateMutability": "view",
      "type": "function"
    },
    {
      "inputs": [
        {
          "internalType": "string",
          "name": "matchId",
          "type": "string"
        },
        {
          "internalType": "uint256",
          "name": "openBlock",
          "type": "uint256"
        },
        {
          "internalType": "uint256",
          "name": "expiryBlock",
          "type": "uint256"
        },
        {
          "internalType": "uint256",
          "name": "blockPerEpoch",
          "type": "uint256"
        },
        {
          "components": [
            {
              "internalType": "address",
              "name": "contractAddress",
              "type": "address"
            },
            {
              "internalType": "uint256",
              "name": "tokenId",
              "type": "uint256"
            },
            {
              "internalType": "uint256",
              "name": "startingPrice",
              "type": "uint256"
            },
            {
              "internalType": "uint256",
              "name": "decrementPerEpoch",
              "type": "uint256"
            },
            {
              "internalType": "uint256",
              "name": "reservePrice",
              "type": "uint256"
            }
          ],
          "internalType": "struct DutchAuction.NFT[]",
          "name": "nfts",
          "type": "tuple[]"
        }
      ],
      "name": "createAuction",
      "outputs": [],
      "stateMutability": "nonpayable",
      "type": "function"
    },
    {
      "inputs": [
        {
          "internalType": "string",
          "name": "matchId",
          "type": "string"
        },
        {
          "internalType": "uint256",
          "name": "tokenIndex",
          "type": "uint256"
        }
      ],
      "name": "get_current_price",
      "outputs": [
        {
          "internalType": "uint256",
          "name": "",
          "type": "uint256"
        }
      ],
      "stateMutability": "view",
      "type": "function"
    },
    {
      "inputs": [
        {
          "internalType": "string",
          "name": "matchId",
          "type": "string"
        },
        {
          "internalType": "uint256",
          "name": "tokenIndex",
          "type": "uint256"
        }
      ],
      "name": "player_bid",
      "outputs": [],
      "stateMutability": "nonpayable",
      "type": "function"
    },
    {
      "inputs": [
        {
          "internalType": "string",
          "name": "matchId",
          "type": "string"
        },
        {
          "internalType": "uint256",
          "name": "tokenIndex",
          "type": "uint256"
        }
      ],
      "name": "reward",
      "outputs": [],
      "stateMutability": "nonpayable",
      "type": "function"
    },
    {
      "inputs": [
        {
          "internalType": "string",
          "name": "matchId",
          "type": "string"
        }
      ],
      "name": "creator_withdraw_nft_batch",
      "outputs": [],
      "stateMutability": "nonpayable",
      "type": "function"
    },
    {
      "inputs": [
        {
          "internalType": "string",
          "name": "matchId",
          "type": "string"
        },
        {
          "internalType": "uint256",
          "name": "tokenIndex",
          "type": "uint256"
        }
      ],
      "name": "creator_withdraw_nft",
      "outputs": [],
      "stateMutability": "nonpayable",
      "type": "function"
    },
    {
      "inputs": [],
      "name": "creator_withdraw_profit",
      "outputs": [],
      "stateMutability": "nonpayable",
      "type": "function"
    },
    {
      "inputs": [
        {
          "internalType": "address",
          "name": "operator",
          "type": "address"
        },
        {
          "internalType": "address",
          "name": "from",
          "type": "address"
        },
        {
          "internalType": "uint256",
          "name": "tokenId",
          "type": "uint256"
        },
        {
          "internalType": "bytes",
          "name": "data",
          "type": "bytes"
        }
      ],
      "name": "onERC721Received",
      "outputs": [
        {
          "internalType": "bytes4",
          "name": "",
          "type": "bytes4"
        }
      ],
      "stateMutability": "pure",
      "type": "function"
    },
    {
      "inputs": [
        {
          "internalType": "string",
          "name": "matchId",
          "type": "string"
        }
      ],
      "name": "get_match",
      "outputs": [
        {
          "internalType": "address",
          "name": "",
          "type": "address"
        },
        {
          "internalType": "uint256",
          "name": "",
          "type": "uint256"
        },
        {
          "internalType": "uint256",
          "name": "",
          "type": "uint256"
        },
        {
          "internalType": "uint256",
          "name": "",
          "type": "uint256"
        },
        {
          "internalType": "uint256",
          "name": "",
          "type": "uint256"
        }
      ],
      "stateMutability": "view",
      "type": "function"
    },
    {
      "inputs": [
        {
          "internalType": "string",
          "name": "matchId",
          "type": "string"
        },
        {
          "internalType": "uint256",
          "name": "tokenIndex",
          "type": "uint256"
        }
      ],
      "name": "get_current_result",
      "outputs": [
        {
          "internalType": "address",
          "name": "",
          "type": "address"
        },
        {
          "internalType": "uint256",
          "name": "",
          "type": "uint256"
        }
      ],
      "stateMutability": "view",
      "type": "function"
    },
    {
      "inputs": [
        {
          "internalType": "address",
          "name": "creatorAddress",
          "type": "address"
        }
      ],
      "name": "get_creator_balance",
      "outputs": [
        {
          "internalType": "uint256",
          "name": "",
          "type": "uint256"
        }
      ],
      "stateMutability": "view",
      "type": "function"
    }
  ],
  "bytecode": "0x60806040523480156200001157600080fd5b5060405162003c4038038062003c4083398181016040528101906200003791906200009e565b600160008190555080600560006101000a81548173ffffffffffffffffffffffffffffffffffffffff021916908373ffffffffffffffffffffffffffffffffffffffff1602179055505062000118565b6000815190506200009881620000fe565b92915050565b600060208284031215620000b157600080fd5b6000620000c18482850162000087565b91505092915050565b6000620000d782620000de565b9050919050565b600073ffffffffffffffffffffffffffffffffffffffff82169050919050565b6200010981620000ca565b81146200011557600080fd5b50565b613b1880620001286000396000f3fe608060405234801561001057600080fd5b50600436106100f55760003560e01c8063528f0f5611610097578063b4add99311610066578063b4add993146102b3578063c1892058146102e3578063e3c6623d14610301578063efc631a814610332576100f5565b8063528f0f56146102175780636ce1ed92146102335780636f36c1461461024f5780638b616f1f1461027f576100f5565b806332ac752b116100d357806332ac752b1461016257806338dfdcb614610196578063479f7e89146101c75780634e5667b4146101fb576100f5565b80630c97531b146100fa578063150b7a021461011657806318200e9e14610146575b600080fd5b610114600480360381019061010f919061273d565b61033c565b005b610130600480360381019061012b9190612694565b61058c565b60405161013d9190612e64565b60405180910390f35b610160600480360381019061015b919061277e565b6105ba565b005b61017c6004803603810190610177919061273d565b610af1565b60405161018d959493929190612e11565b60405180910390f35b6101b060048036038101906101ab919061277e565b610b5d565b6040516101be929190612de8565b60405180910390f35b6101e160048036038101906101dc919061277e565b610bf1565b6040516101f2959493929190612e11565b60405180910390f35b610215600480360381019061021091906127d2565b610c6a565b005b610231600480360381019061022c919061277e565b6112da565b005b61024d6004803603810190610248919061277e565b611638565b005b6102696004803603810190610264919061277e565b611abc565b60405161027691906131ab565b60405180910390f35b6102996004803603810190610294919061273d565b611c9f565b6040516102aa959493929190612e11565b60405180910390f35b6102cd60048036038101906102c8919061266b565b611d7e565b6040516102da91906131ab565b60405180910390f35b6102eb611dc7565b6040516102f89190612d27565b60405180910390f35b61031b6004803603810190610316919061277e565b611ded565b604051610329929190612de8565b60405180910390f35b61033a611e54565b005b803373ffffffffffffffffffffffffffffffffffffffff166001826040516103649190612d10565b908152602001604051809103902060000160009054906101000a900473ffffffffffffffffffffffffffffffffffffffff1673ffffffffffffffffffffffffffffffffffffffff16146103ec576040517f08c379a00000000000000000000000000000000000000000000000000000000081526004016103e39061314b565b60405180910390fd5b81436001826040516103fe9190612d10565b90815260200160405180910390206002015410610450576040517f08c379a000000000000000000000000000000000000000000000000000000000815260040161044790612f4b565b60405180910390fd5b60006001846040516104629190612d10565b908152602001604051809103902060040154905060005b818110156105855760006003866040516104939190612d10565b908152602001604051809103902060008381526020019081526020016000206040518060400160405290816000820160009054906101000a900473ffffffffffffffffffffffffffffffffffffffff1673ffffffffffffffffffffffffffffffffffffffff1673ffffffffffffffffffffffffffffffffffffffff1681526020016001820154815250509050600073ffffffffffffffffffffffffffffffffffffffff16816000015173ffffffffffffffffffffffffffffffffffffffff16148015610563575060008160200151115b15610573576105728683611f70565b5b508061057e906134ba565b9050610479565b5050505050565b60007f150b7a023d4804d13e8c85fb27262cb750cf6ba9f9dd3bb30d90f482ceeb4b1f905095945050505050565b8181600073ffffffffffffffffffffffffffffffffffffffff166001836040516105e49190612d10565b908152602001604051809103902060000160009054906101000a900473ffffffffffffffffffffffffffffffffffffffff1673ffffffffffffffffffffffffffffffffffffffff16141561066d576040517f08c379a000000000000000000000000000000000000000000000000000000000815260040161066490612f2b565b60405180910390fd5b60018260405161067d9190612d10565b90815260200160405180910390206004015481106106d0576040517f08c379a00000000000000000000000000000000000000000000000000000000081526004016106c79061300b565b60405180910390fd5b83436001826040516106e29190612d10565b90815260200160405180910390206002015410610734576040517f08c379a000000000000000000000000000000000000000000000000000000000815260040161072b90612f4b565b60405180910390fd5b60006003866040516107469190612d10565b9081526020016040518091039020600086815260200190815260200160002060000160009054906101000a900473ffffffffffffffffffffffffffffffffffffffff169050600073ffffffffffffffffffffffffffffffffffffffff168173ffffffffffffffffffffffffffffffffffffffff1614156107fb576040517f08c379a00000000000000000000000000000000000000000000000000000000081526004016107f290612fcb565b60405180910390fd5b6040518060400160405280600073ffffffffffffffffffffffffffffffffffffffff16815260200160008152506003876040516108389190612d10565b9081526020016040518091039020600087815260200190815260200160002060008201518160000160006101000a81548173ffffffffffffffffffffffffffffffffffffffff021916908373ffffffffffffffffffffffffffffffffffffffff1602179055506020820151816001015590505060006003876040516108bd9190612d10565b90815260200160405180910390206000878152602001908152602001600020600101549050806004600060018a6040516108f79190612d10565b908152602001604051809103902060000160009054906101000a900473ffffffffffffffffffffffffffffffffffffffff1673ffffffffffffffffffffffffffffffffffffffff1673ffffffffffffffffffffffffffffffffffffffff168152602001908152602001600020600082825461097291906132be565b92505081905550600060028860405161098b9190612d10565b908152602001604051809103902060008881526020019081526020016000206040518060a00160405290816000820160009054906101000a900473ffffffffffffffffffffffffffffffffffffffff1673ffffffffffffffffffffffffffffffffffffffff1673ffffffffffffffffffffffffffffffffffffffff1681526020016001820154815260200160028201548152602001600382015481526020016004820154815250509050806000015173ffffffffffffffffffffffffffffffffffffffff166342842e0e308584602001516040518463ffffffff1660e01b8152600401610a7a93929190612d42565b600060405180830381600087803b158015610a9457600080fd5b505af1158015610aa8573d6000803e3d6000fd5b505050507f4724291f3c939ed02ed238c50d61263622fc1d0871d7aaa264d743475de5b72b888885604051610adf93929190612eed565b60405180910390a15050505050505050565b6001818051602081018201805184825260208301602085012081835280955050505050506000915090508060000160009054906101000a900473ffffffffffffffffffffffffffffffffffffffff16908060010154908060020154908060030154908060040154905085565b600080600384604051610b709190612d10565b9081526020016040518091039020600084815260200190815260200160002060000160009054906101000a900473ffffffffffffffffffffffffffffffffffffffff16600385604051610bc39190612d10565b9081526020016040518091039020600085815260200190815260200160002060010154915091509250929050565b600282805160208101820180518482526020830160208501208183528095505050505050602052806000526040600020600091509150508060000160009054906101000a900473ffffffffffffffffffffffffffffffffffffffff16908060010154908060020154908060030154908060040154905085565b60026000541415610cb0576040517f08c379a0000000000000000000000000000000000000000000000000000000008152600401610ca79061316b565b60405180910390fd5b6002600081905550600073ffffffffffffffffffffffffffffffffffffffff16600186604051610ce09190612d10565b908152602001604051809103902060000160009054906101000a900473ffffffffffffffffffffffffffffffffffffffff1673ffffffffffffffffffffffffffffffffffffffff1614610d68576040517f08c379a0000000000000000000000000000000000000000000000000000000008152600401610d5f906130ab565b60405180910390fd5b8383118015610d7657504384115b610db5576040517f08c379a0000000000000000000000000000000000000000000000000000000008152600401610dac90612f6b565b60405180910390fd5b60008151118015610dc857506020815111155b610e07576040517f08c379a0000000000000000000000000000000000000000000000000000000008152600401610dfe9061308b565b60405180910390fd5b60005b81518110156111bb57818181518110610e4c577f4e487b7100000000000000000000000000000000000000000000000000000000600052603260045260246000fd5b602002602001015160400151828281518110610e91577f4e487b7100000000000000000000000000000000000000000000000000000000600052603260045260246000fd5b6020026020010151606001511115610ede576040517f08c379a0000000000000000000000000000000000000000000000000000000008152600401610ed59061306b565b60405180910390fd5b818181518110610f17577f4e487b7100000000000000000000000000000000000000000000000000000000600052603260045260246000fd5b60200260200101516000015173ffffffffffffffffffffffffffffffffffffffff166342842e0e3330858581518110610f79577f4e487b7100000000000000000000000000000000000000000000000000000000600052603260045260246000fd5b6020026020010151602001516040518463ffffffff1660e01b8152600401610fa393929190612d42565b600060405180830381600087803b158015610fbd57600080fd5b505af1158015610fd1573d6000803e3d6000fd5b505050506040518060400160405280600073ffffffffffffffffffffffffffffffffffffffff168152602001838381518110611036577f4e487b7100000000000000000000000000000000000000000000000000000000600052603260045260246000fd5b6020026020010151604001518152506003876040516110559190612d10565b9081526020016040518091039020600083815260200190815260200160002060008201518160000160006101000a81548173ffffffffffffffffffffffffffffffffffffffff021916908373ffffffffffffffffffffffffffffffffffffffff16021790555060208201518160010155905050818181518110611101577f4e487b7100000000000000000000000000000000000000000000000000000000600052603260045260246000fd5b60200260200101516002876040516111199190612d10565b9081526020016040518091039020600083815260200190815260200160002060008201518160000160006101000a81548173ffffffffffffffffffffffffffffffffffffffff021916908373ffffffffffffffffffffffffffffffffffffffff16021790555060208201518160010155604082015181600201556060820151816003015560808201518160040155905050806111b4906134ba565b9050610e0a565b506040518060a001604052803373ffffffffffffffffffffffffffffffffffffffff168152602001858152602001848152602001838152602001825181525060018660405161120a9190612d10565b908152602001604051809103902060008201518160000160006101000a81548173ffffffffffffffffffffffffffffffffffffffff021916908373ffffffffffffffffffffffffffffffffffffffff160217905550602082015181600101556040820151816002015560608201518160030155608082015181600401559050507fbc80a8135e3f4504f007bfb87df8d4546aa21d843fa396edc8cafdb094658dd73386868686866040516112c396959493929190612d79565b60405180910390a160016000819055505050505050565b8181600073ffffffffffffffffffffffffffffffffffffffff166001836040516113049190612d10565b908152602001604051809103902060000160009054906101000a900473ffffffffffffffffffffffffffffffffffffffff1673ffffffffffffffffffffffffffffffffffffffff16141561138d576040517f08c379a000000000000000000000000000000000000000000000000000000000815260040161138490612f2b565b60405180910390fd5b60018260405161139d9190612d10565b90815260200160405180910390206004015481106113f0576040517f08c379a00000000000000000000000000000000000000000000000000000000081526004016113e79061300b565b60405180910390fd5b833373ffffffffffffffffffffffffffffffffffffffff166001826040516114189190612d10565b908152602001604051809103902060000160009054906101000a900473ffffffffffffffffffffffffffffffffffffffff1673ffffffffffffffffffffffffffffffffffffffff16146114a0576040517f08c379a00000000000000000000000000000000000000000000000000000000081526004016114979061314b565b60405180910390fd5b84436001826040516114b29190612d10565b90815260200160405180910390206002015410611504576040517f08c379a00000000000000000000000000000000000000000000000000000000081526004016114fb90612f4b565b60405180910390fd5b60006003876040516115169190612d10565b908152602001604051809103902060008781526020019081526020016000206040518060400160405290816000820160009054906101000a900473ffffffffffffffffffffffffffffffffffffffff1673ffffffffffffffffffffffffffffffffffffffff1673ffffffffffffffffffffffffffffffffffffffff1681526020016001820154815250509050600073ffffffffffffffffffffffffffffffffffffffff16816000015173ffffffffffffffffffffffffffffffffffffffff161480156115e6575060008160200151115b611625576040517f08c379a000000000000000000000000000000000000000000000000000000000815260040161161c9061302b565b60405180910390fd5b61162f8787611f70565b50505050505050565b6002600054141561167e576040517f08c379a00000000000000000000000000000000000000000000000000000000081526004016116759061316b565b60405180910390fd5b60026000819055508181600073ffffffffffffffffffffffffffffffffffffffff166001836040516116b09190612d10565b908152602001604051809103902060000160009054906101000a900473ffffffffffffffffffffffffffffffffffffffff1673ffffffffffffffffffffffffffffffffffffffff161415611739576040517f08c379a000000000000000000000000000000000000000000000000000000000815260040161173090612f2b565b60405180910390fd5b6001826040516117499190612d10565b908152602001604051809103902060040154811061179c576040517f08c379a00000000000000000000000000000000000000000000000000000000081526004016117939061300b565b60405180910390fd5b60006001856040516117ae9190612d10565b90815260200160405180910390206040518060a00160405290816000820160009054906101000a900473ffffffffffffffffffffffffffffffffffffffff1673ffffffffffffffffffffffffffffffffffffffff1673ffffffffffffffffffffffffffffffffffffffff16815260200160018201548152602001600282015481526020016003820154815260200160048201548152505090506000339050438260200151108015611863575081604001514311155b6118a2576040517f08c379a00000000000000000000000000000000000000000000000000000000081526004016118999061318b565b60405180910390fd5b600073ffffffffffffffffffffffffffffffffffffffff166003876040516118ca9190612d10565b9081526020016040518091039020600087815260200190815260200160002060000160009054906101000a900473ffffffffffffffffffffffffffffffffffffffff1673ffffffffffffffffffffffffffffffffffffffff1614611963576040517f08c379a000000000000000000000000000000000000000000000000000000000815260040161195a9061304b565b60405180910390fd5b600061196f8787611abc565b905060405180604001604052808373ffffffffffffffffffffffffffffffffffffffff168152602001828152506003886040516119ac9190612d10565b9081526020016040518091039020600088815260200190815260200160002060008201518160000160006101000a81548173ffffffffffffffffffffffffffffffffffffffff021916908373ffffffffffffffffffffffffffffffffffffffff160217905550602082015181600101559050507f0f3442e443a46f8ff7a420431f3eedf9d64167474b853aac10990b378cda805687838884604051611a549493929190612ea1565b60405180910390a1611aab823083600560009054906101000a900473ffffffffffffffffffffffffffffffffffffffff1673ffffffffffffffffffffffffffffffffffffffff166120e0909392919063ffffffff16565b505050505060016000819055505050565b600080600184604051611acf9190612d10565b908152602001604051809103902060030154905060008111611b26576040517f08c379a0000000000000000000000000000000000000000000000000000000008152600401611b1d9061312b565b60405180910390fd5b600184604051611b369190612d10565b9081526020016040518091039020600101544311611b89576040517f08c379a0000000000000000000000000000000000000000000000000000000008152600401611b80906130cb565b60405180910390fd5b600081600186604051611b9c9190612d10565b90815260200160405180910390206001015443611bb9919061339f565b611bc39190613314565b90506000600286604051611bd79190612d10565b908152602001604051809103902060008681526020019081526020016000206002015490506000600287604051611c0e9190612d10565b9081526020016040518091039020600087815260200190815260200160002060030154905060008184611c419190613345565b905082811115611c86576040517f08c379a0000000000000000000000000000000000000000000000000000000008152600401611c7d90612fab565b60405180910390fd5b8083611c92919061339f565b9550505050505092915050565b600080600080600080600187604051611cb89190612d10565b90815260200160405180910390206040518060a00160405290816000820160009054906101000a900473ffffffffffffffffffffffffffffffffffffffff1673ffffffffffffffffffffffffffffffffffffffff1673ffffffffffffffffffffffffffffffffffffffff168152602001600182015481526020016002820154815260200160038201548152602001600482015481525050905080600001518160200151826040015183606001518460800151955095509550955095505091939590929450565b6000600460008373ffffffffffffffffffffffffffffffffffffffff1673ffffffffffffffffffffffffffffffffffffffff168152602001908152602001600020549050919050565b600560009054906101000a900473ffffffffffffffffffffffffffffffffffffffff1681565b600382805160208101820180518482526020830160208501208183528095505050505050602052806000526040600020600091509150508060000160009054906101000a900473ffffffffffffffffffffffffffffffffffffffff16908060010154905082565b6000600460003373ffffffffffffffffffffffffffffffffffffffff1673ffffffffffffffffffffffffffffffffffffffff16815260200190815260200160002054905060008111611edb576040517f08c379a0000000000000000000000000000000000000000000000000000000008152600401611ed290612feb565b60405180910390fd5b6000600460003373ffffffffffffffffffffffffffffffffffffffff1673ffffffffffffffffffffffffffffffffffffffff16815260200190815260200160002081905550611f6d3382600560009054906101000a900473ffffffffffffffffffffffffffffffffffffffff1673ffffffffffffffffffffffffffffffffffffffff166121699092919063ffffffff16565b50565b6000600383604051611f829190612d10565b90815260200160405180910390206000838152602001908152602001600020600101819055506000600283604051611fba9190612d10565b908152602001604051809103902060008381526020019081526020016000206040518060a00160405290816000820160009054906101000a900473ffffffffffffffffffffffffffffffffffffffff1673ffffffffffffffffffffffffffffffffffffffff1673ffffffffffffffffffffffffffffffffffffffff1681526020016001820154815260200160028201548152602001600382015481526020016004820154815250509050806000015173ffffffffffffffffffffffffffffffffffffffff166342842e0e303384602001516040518463ffffffff1660e01b81526004016120a993929190612d42565b600060405180830381600087803b1580156120c357600080fd5b505af11580156120d7573d6000803e3d6000fd5b50505050505050565b612163846323b872dd60e01b85858560405160240161210193929190612d42565b604051602081830303815290604052907bffffffffffffffffffffffffffffffffffffffffffffffffffffffff19166020820180517bffffffffffffffffffffffffffffffffffffffffffffffffffffffff83818316178352505050506121ef565b50505050565b6121ea8363a9059cbb60e01b8484604051602401612188929190612de8565b604051602081830303815290604052907bffffffffffffffffffffffffffffffffffffffffffffffffffffffff19166020820180517bffffffffffffffffffffffffffffffffffffffffffffffffffffffff83818316178352505050506121ef565b505050565b6000612251826040518060400160405280602081526020017f5361666545524332303a206c6f772d6c6576656c2063616c6c206661696c65648152508573ffffffffffffffffffffffffffffffffffffffff166122b69092919063ffffffff16565b90506000815111156122b157808060200190518101906122719190612714565b6122b0576040517f08c379a00000000000000000000000000000000000000000000000000000000081526004016122a79061310b565b60405180910390fd5b5b505050565b60606122c584846000856122ce565b90509392505050565b606082471015612313576040517f08c379a000000000000000000000000000000000000000000000000000000000815260040161230a90612f8b565b60405180910390fd5b61231c856123e2565b61235b576040517f08c379a0000000000000000000000000000000000000000000000000000000008152600401612352906130eb565b60405180910390fd5b6000808673ffffffffffffffffffffffffffffffffffffffff1685876040516123849190612cf9565b60006040518083038185875af1925050503d80600081146123c1576040519150601f19603f3d011682016040523d82523d6000602084013e6123c6565b606091505b50915091506123d68282866123f5565b92505050949350505050565b600080823b905060008111915050919050565b6060831561240557829050612455565b6000835111156124185782518084602001fd5b816040517f08c379a000000000000000000000000000000000000000000000000000000000815260040161244c9190612e7f565b60405180910390fd5b9392505050565b600061246f61246a846131eb565b6131c6565b905080838252602082019050828560a086028201111561248e57600080fd5b60005b858110156124be57816124a488826125ce565b845260208401935060a08301925050600181019050612491565b5050509392505050565b60006124db6124d684613217565b6131c6565b9050828152602081018484840111156124f357600080fd5b6124fe848285613447565b509392505050565b60008135905061251581613a9d565b92915050565b600082601f83011261252c57600080fd5b813561253c84826020860161245c565b91505092915050565b60008151905061255481613ab4565b92915050565b60008083601f84011261256c57600080fd5b8235905067ffffffffffffffff81111561258557600080fd5b60208301915083600182028301111561259d57600080fd5b9250929050565b600082601f8301126125b557600080fd5b81356125c58482602086016124c8565b91505092915050565b600060a082840312156125e057600080fd5b6125ea60a06131c6565b905060006125fa84828501612506565b600083015250602061260e84828501612656565b602083015250604061262284828501612656565b604083015250606061263684828501612656565b606083015250608061264a84828501612656565b60808301525092915050565b60008135905061266581613acb565b92915050565b60006020828403121561267d57600080fd5b600061268b84828501612506565b91505092915050565b6000806000806000608086880312156126ac57600080fd5b60006126ba88828901612506565b95505060206126cb88828901612506565b94505060406126dc88828901612656565b935050606086013567ffffffffffffffff8111156126f957600080fd5b6127058882890161255a565b92509250509295509295909350565b60006020828403121561272657600080fd5b600061273484828501612545565b91505092915050565b60006020828403121561274f57600080fd5b600082013567ffffffffffffffff81111561276957600080fd5b612775848285016125a4565b91505092915050565b6000806040838503121561279157600080fd5b600083013567ffffffffffffffff8111156127ab57600080fd5b6127b7858286016125a4565b92505060206127c885828601612656565b9150509250929050565b600080600080600060a086880312156127ea57600080fd5b600086013567ffffffffffffffff81111561280457600080fd5b612810888289016125a4565b955050602061282188828901612656565b945050604061283288828901612656565b935050606061284388828901612656565b925050608086013567ffffffffffffffff81111561286057600080fd5b61286c8882890161251b565b9150509295509295909350565b60006128858383612c73565b60a08301905092915050565b61289a816133d3565b82525050565b6128a9816133d3565b82525050565b60006128ba82613258565b6128c48185613286565b93506128cf83613248565b8060005b838110156129005781516128e78882612879565b97506128f283613279565b9250506001810190506128d3565b5085935050505092915050565b612916816133f1565b82525050565b600061292782613263565b6129318185613297565b9350612941818560208601613456565b80840191505092915050565b60006129588261326e565b61296281856132a2565b9350612972818560208601613456565b61297b81613590565b840191505092915050565b60006129918261326e565b61299b81856132b3565b93506129ab818560208601613456565b80840191505092915050565b60006129c4600d836132a2565b91506129cf826135a1565b602082019050919050565b60006129e76015836132a2565b91506129f2826135ca565b602082019050919050565b6000612a0a6045836132a2565b9150612a15826135f3565b606082019050919050565b6000612a2d6026836132a2565b9150612a3882613668565b604082019050919050565b6000612a50601a836132a2565b9150612a5b826136b7565b602082019050919050565b6000612a736013836132a2565b9150612a7e826136e0565b602082019050919050565b6000612a966026836132a2565b9150612aa182613709565b604082019050919050565b6000612ab9600d836132a2565b9150612ac482613758565b602082019050919050565b6000612adc6022836132a2565b9150612ae782613781565b604082019050919050565b6000612aff6030836132a2565b9150612b0a826137d0565b604082019050919050565b6000612b22602a836132a2565b9150612b2d8261381f565b604082019050919050565b6000612b456047836132a2565b9150612b508261386e565b606082019050919050565b6000612b686013836132a2565b9150612b73826138e3565b602082019050919050565b6000612b8b602c836132a2565b9150612b968261390c565b604082019050919050565b6000612bae601d836132a2565b9150612bb98261395b565b602082019050919050565b6000612bd1602a836132a2565b9150612bdc82613984565b604082019050919050565b6000612bf46026836132a2565b9150612bff826139d3565b604082019050919050565b6000612c176015836132a2565b9150612c2282613a22565b602082019050919050565b6000612c3a601f836132a2565b9150612c4582613a4b565b602082019050919050565b6000612c5d601f836132a2565b9150612c6882613a74565b602082019050919050565b60a082016000820151612c896000850182612891565b506020820151612c9c6020850182612cdb565b506040820151612caf6040850182612cdb565b506060820151612cc26060850182612cdb565b506080820151612cd56080850182612cdb565b50505050565b612ce48161343d565b82525050565b612cf38161343d565b82525050565b6000612d05828461291c565b915081905092915050565b6000612d1c8284612986565b915081905092915050565b6000602082019050612d3c60008301846128a0565b92915050565b6000606082019050612d5760008301866128a0565b612d6460208301856128a0565b612d716040830184612cea565b949350505050565b600060c082019050612d8e60008301896128a0565b8181036020830152612da0818861294d565b9050612daf6040830187612cea565b612dbc6060830186612cea565b612dc96080830185612cea565b81810360a0830152612ddb81846128af565b9050979650505050505050565b6000604082019050612dfd60008301856128a0565b612e0a6020830184612cea565b9392505050565b600060a082019050612e2660008301886128a0565b612e336020830187612cea565b612e406040830186612cea565b612e4d6060830185612cea565b612e5a6080830184612cea565b9695505050505050565b6000602082019050612e79600083018461290d565b92915050565b60006020820190508181036000830152612e99818461294d565b905092915050565b60006080820190508181036000830152612ebb818761294d565b9050612eca60208301866128a0565b612ed76040830185612cea565b612ee46060830184612cea565b95945050505050565b60006060820190508181036000830152612f07818661294d565b9050612f166020830185612cea565b612f2360408301846128a0565b949350505050565b60006020820190508181036000830152612f44816129b7565b9050919050565b60006020820190508181036000830152612f64816129da565b9050919050565b60006020820190508181036000830152612f84816129fd565b9050919050565b60006020820190508181036000830152612fa481612a20565b9050919050565b60006020820190508181036000830152612fc481612a43565b9050919050565b60006020820190508181036000830152612fe481612a66565b9050919050565b6000602082019050818103600083015261300481612a89565b9050919050565b6000602082019050818103600083015261302481612aac565b9050919050565b6000602082019050818103600083015261304481612acf565b9050919050565b6000602082019050818103600083015261306481612af2565b9050919050565b6000602082019050818103600083015261308481612b15565b9050919050565b600060208201905081810360008301526130a481612b38565b9050919050565b600060208201905081810360008301526130c481612b5b565b9050919050565b600060208201905081810360008301526130e481612b7e565b9050919050565b6000602082019050818103600083015261310481612ba1565b9050919050565b6000602082019050818103600083015261312481612bc4565b9050919050565b6000602082019050818103600083015261314481612be7565b9050919050565b6000602082019050818103600083015261316481612c0a565b9050919050565b6000602082019050818103600083015261318481612c2d565b9050919050565b600060208201905081810360008301526131a481612c50565b9050919050565b60006020820190506131c06000830184612cea565b92915050565b60006131d06131e1565b90506131dc8282613489565b919050565b6000604051905090565b600067ffffffffffffffff82111561320657613205613561565b5b602082029050602081019050919050565b600067ffffffffffffffff82111561323257613231613561565b5b61323b82613590565b9050602081019050919050565b6000819050602082019050919050565b600081519050919050565b600081519050919050565b600081519050919050565b6000602082019050919050565b600082825260208201905092915050565b600081905092915050565b600082825260208201905092915050565b600081905092915050565b60006132c98261343d565b91506132d48361343d565b9250827fffffffffffffffffffffffffffffffffffffffffffffffffffffffffffffffff0382111561330957613308613503565b5b828201905092915050565b600061331f8261343d565b915061332a8361343d565b92508261333a57613339613532565b5b828204905092915050565b60006133508261343d565b915061335b8361343d565b9250817fffffffffffffffffffffffffffffffffffffffffffffffffffffffffffffffff048311821515161561339457613393613503565b5b828202905092915050565b60006133aa8261343d565b91506133b58361343d565b9250828210156133c8576133c7613503565b5b828203905092915050565b60006133de8261341d565b9050919050565b60008115159050919050565b60007fffffffff0000000000000000000000000000000000000000000000000000000082169050919050565b600073ffffffffffffffffffffffffffffffffffffffff82169050919050565b6000819050919050565b82818337600083830152505050565b60005b83811015613474578082015181840152602081019050613459565b83811115613483576000848401525b50505050565b61349282613590565b810181811067ffffffffffffffff821117156134b1576134b0613561565b5b80604052505050565b60006134c58261343d565b91507fffffffffffffffffffffffffffffffffffffffffffffffffffffffffffffffff8214156134f8576134f7613503565b5b600182019050919050565b7f4e487b7100000000000000000000000000000000000000000000000000000000600052601160045260246000fd5b7f4e487b7100000000000000000000000000000000000000000000000000000000600052601260045260246000fd5b7f4e487b7100000000000000000000000000000000000000000000000000000000600052604160045260246000fd5b6000601f19601f8301169050919050565b7f696e76616c6964206d6174636800000000000000000000000000000000000000600082015250565b7f6d61746368206973206e6f742066696e69736865640000000000000000000000600082015250565b7f636f6e646974696f6e20657870697279426c6f636b203e206f70656e426c6f6360008201527f6b203e2063757272656e7420626c6f636b20636f756e74206e6f74207361746960208201527f7366696564000000000000000000000000000000000000000000000000000000604082015250565b7f416464726573733a20696e73756666696369656e742062616c616e636520666f60008201527f722063616c6c0000000000000000000000000000000000000000000000000000602082015250565b7f746f6b656e207072696365207265616368657320626f74746f6d000000000000600082015250565b7f77696e6e6572206973206e6f742076616c696400000000000000000000000000600082015250565b7f63726561746f722062616c616e6365206d75737420626520677265617465722060008201527f7468616e20300000000000000000000000000000000000000000000000000000602082015250565b7f696e76616c696420746f6b656e00000000000000000000000000000000000000600082015250565b7f746f6b656e206973206e6f7420617661696c61626c6520746f2077697468647260008201527f6177000000000000000000000000000000000000000000000000000000000000602082015250565b7f736f6d65206f6e6520616772656564207769746820686967686572207072696360008201527f6520666f72207468697320746f6b656e00000000000000000000000000000000602082015250565b7f64656372656d656e742073686f756c64206e6f7420657863656564207374617260008201527f74696e6720707269636500000000000000000000000000000000000000000000602082015250565b7f6e756d626572206f66206e6674206d757374206265206772656174657220746860008201527f616e203020616e64206c657373207468616e204d41585f4954454d5f5045525f60208201527f41554354494f4e00000000000000000000000000000000000000000000000000604082015250565b7f6d617463684964206973206f6363757069656400000000000000000000000000600082015250565b7f63757272656e7420626c6f636b2073686f756c6420677265617465722074686160008201527f6e206f70656e20626c6f636b0000000000000000000000000000000000000000602082015250565b7f416464726573733a2063616c6c20746f206e6f6e2d636f6e7472616374000000600082015250565b7f5361666545524332303a204552433230206f7065726174696f6e20646964206e60008201527f6f74207375636365656400000000000000000000000000000000000000000000602082015250565b7f626c6f636b207065722065706f6368206d75737420626520677265617465722060008201527f7468616e20300000000000000000000000000000000000000000000000000000602082015250565b7f63726561746f72206f6e6c792066756e6374696f6e0000000000000000000000600082015250565b7f5265656e7472616e637947756172643a207265656e7472616e742063616c6c00600082015250565b7f6d61746368206973206e6f74206f70656e656420666f722062696464696e6700600082015250565b613aa6816133d3565b8114613ab157600080fd5b50565b613abd816133e5565b8114613ac857600080fd5b50565b613ad48161343d565b8114613adf57600080fd5b5056fea2646970667358221220198b760b9d51baffbc810dcbc1c86b85967be35b2b746c4c2ae34ee69200ee0664736f6c63430008040033",
  "immutableReferences": {},
  "source": "// SPDX-License-Identifier: MIT\npragma solidity ^0.8.0;\n\nimport \"@openzeppelin/contracts/token/ERC20/IERC20.sol\";\nimport \"@openzeppelin/contracts/token/ERC20/utils/SafeERC20.sol\";\nimport \"@openzeppelin/contracts/token/ERC721/IERC721.sol\";\nimport \"@openzeppelin/contracts/token/ERC721/IERC721Receiver.sol\";\nimport \"@openzeppelin/contracts/security/ReentrancyGuard.sol\";\n\ncontract DutchAuction is ReentrancyGuard, IERC721Receiver {\n\n    // using safeErc20 for ierc20 based contract\n    using SafeERC20 for IERC20;\n\n    // constants\n    address constant ADDRESS_NULL             = address(0);\n    \n    // max item allow per auction, should not be more than 2^32-1\n    uint    constant MAX_ITEM_PER_AUCTION     = 32;\n\n    bytes4  constant ERC721_ONRECEIVED_RESULT = bytes4(keccak256(\"onERC721Received(address,address,uint256,bytes)\"));\n\n    // structs\n    struct NFT {\n        address contractAddress;\n        uint    tokenId;\n        uint    startingPrice;\n        uint    decrementPerEpoch;\n        uint    reservePrice;\n    }\n    \n    struct AuctionResult {\n        address bidder;\n        uint bidAmount;\n    }\n\n    struct Match {\n        address creatorAddress;\n        uint openBlock;\n        uint expiryBlock;\n        uint blockPerEpoch;\n        uint nftCount;\n    }\n\n    // state\n    // matchId => Match\n    mapping(string => Match) public  matches;\n\n    // matchId => index => NFT\n    mapping(string => mapping(uint => NFT)) public  matchNFTs;\n    \n    // matchId => Result\n    mapping(string => mapping(uint => AuctionResult)) public  matchResults;\n\n    // address to balance\n    mapping(address => uint) private creatorBalance;\n\n    // events\n    event CreateAuctionEvent(\n        address creatorAddress, string matchId, \n        uint openBlock, uint expiryBlock, \n        uint blockPerEpoch,\n        NFT[] nfts\n    );\n    event PlayerBidEvent(string matchId, address playerAddress, uint tokenIndex, uint bid);\n    event RewardEvent   (string matchId, uint tokenIndex,       address winnerAddress);\n\n    // base erc20 token\n    address public USDT_ADDRESS;\n\n    // modifier \n    modifier validTokenIndex(string memory matchId, uint tokenIndex) {\n        require(matches[matchId].creatorAddress != ADDRESS_NULL, \"invalid match\"); \n        require(tokenIndex < matches[matchId].nftCount, \"invalid token\");\n        _;\n    }\n\n    modifier creatorOnly(string memory matchId) {\n         require(matches[matchId].creatorAddress == msg.sender, \"creator only function\"); \n        _;\n    }\n    \n    // match finished should be used with checking valid match\n    modifier matchFinished(string memory matchId) {\n        // require(matches[matchId].creatorAddress != ADDRESS_NULL, \"invalid match\");\n        require(matches[matchId].expiryBlock < block.number, \"match is not finished\");\n        _;\n    }\n\n    constructor(address usdtContractAddress) {\n        USDT_ADDRESS = usdtContractAddress;\n    }\n\n    function createAuction(\n        string memory matchId, \n        uint openBlock, \n        uint expiryBlock,\n        uint blockPerEpoch,\n        NFT[] memory nfts) external nonReentrant {\n\n        // check if matchId is occupied\n        require(matches[matchId].creatorAddress == ADDRESS_NULL, \"matchId is occupied\");\n        \n        // check valid openBlock, expiryBlock, expiryExtensionOnBidUpdate\n        require(expiryBlock > openBlock && openBlock > block.number, \"condition expiryBlock > openBlock > current block count not satisfied\");\n\n        // check item count\n        require(nfts.length > 0 && nfts.length <= MAX_ITEM_PER_AUCTION, \"number of nft must be greater than 0 and less than MAX_ITEM_PER_AUCTION\");\n\n        // deposit item to contract\n        for(uint i = 0; i < nfts.length; ++i) {\n\n            // check valid token\n            require(nfts[i].decrementPerEpoch <= nfts[i].startingPrice, \"decrement should not exceed starting price\");\n\n            // if meet requirements then send tokens to contract\n            IERC721(nfts[i].contractAddress).safeTransferFrom(msg.sender, address(this), nfts[i].tokenId);\n            \n            // create slots for items\n            matchResults[matchId][i]    = AuctionResult(ADDRESS_NULL, nfts[i].startingPrice);\n            matchNFTs[matchId][i]       = nfts[i];\n        }\n\n        // create match\n        matches[matchId] = Match(\n            msg.sender,\n            openBlock,\n            expiryBlock,\n            blockPerEpoch,\n            nfts.length\n        );\n\n        // emit events\n        emit CreateAuctionEvent(msg.sender, matchId, openBlock, expiryBlock, blockPerEpoch, nfts);\n    }\n\n    function get_current_price(string memory matchId, uint tokenIndex) public view returns(uint) {\n        uint blockPerEpoch = matches[matchId].blockPerEpoch;\n        // check some prerequisite before get price\n        require(blockPerEpoch > 0, \"block per epoch must be greater than 0\");\n        require(block.number > matches[matchId].openBlock, \"current block should greater than open block\");\n\n        // compute current price\n        uint epochCount = (block.number - matches[matchId].openBlock) / blockPerEpoch;\n        uint startingPrice = matchNFTs[matchId][tokenIndex].startingPrice;\n        uint decrementPerEpoch = matchNFTs[matchId][tokenIndex].decrementPerEpoch;\n        uint lostValue = epochCount * decrementPerEpoch;\n\n        require(lostValue <= startingPrice, \"token price reaches bottom\");\n        return startingPrice - lostValue;\n    }\n\n    function player_bid(string memory matchId, uint tokenIndex) external nonReentrant validTokenIndex(matchId, tokenIndex) {\n        Match memory amatch = matches[matchId];\n        address playerAddress = msg.sender;\n        // check if match is opened \n        require(amatch.openBlock < block.number && block.number <= amatch.expiryBlock, \"match is not opened for bidding\");\n        // check if token has not get any bids\n        require(matchResults[matchId][tokenIndex].bidder == ADDRESS_NULL, \"some one agreed with higher price for this token\");\n        uint amount = get_current_price(matchId, tokenIndex);\n        // update the winner for that token\n        matchResults[matchId][tokenIndex] = AuctionResult(playerAddress, amount);\n        // emit event\n        emit PlayerBidEvent(\n            matchId, \n            playerAddress,\n            tokenIndex,\n            amount\n        );\n        IERC20(USDT_ADDRESS).safeTransferFrom(playerAddress, address(this), amount);\n    }\n\n    // anyone can call reward, top bidder and creator are incentivized to call this function to send rewards/profit\n    function reward(string memory matchId, uint tokenIndex) external validTokenIndex(matchId, tokenIndex) matchFinished(matchId) {\n        \n        address winnerAddress  = matchResults[matchId][tokenIndex].bidder;\n        require(winnerAddress != ADDRESS_NULL, \"winner is not valid\");\n\n        // set result to null\n        matchResults[matchId][tokenIndex] = AuctionResult(ADDRESS_NULL, 0);\n\n        // increase creator's balance\n        uint standingBid = matchResults[matchId][tokenIndex].bidAmount;\n        creatorBalance[matches[matchId].creatorAddress] += standingBid;\n        \n        NFT memory nft = matchNFTs[matchId][tokenIndex];\n        // send nft to address\n        IERC721(nft.contractAddress).safeTransferFrom(address(this), winnerAddress, nft.tokenId);\n        emit RewardEvent(matchId, tokenIndex, winnerAddress);\n    }\n\n    function process_withdraw_nft(string memory matchId, uint tokenIndex) private {\n        // set standingBid to 0 to prevent withdraw again\n        matchResults[matchId][tokenIndex].bidAmount = 0;\n        // transfer asset\n        NFT memory nft = matchNFTs[matchId][tokenIndex];\n        IERC721(nft.contractAddress).safeTransferFrom(address(this), msg.sender, nft.tokenId);\n    }\n\n    // reator withdraws unused nft\n    function creator_withdraw_nft_batch(string memory matchId) external creatorOnly(matchId) matchFinished(matchId) { \n        // check valid matchId, match finished\n        uint _len = matches[matchId].nftCount;\n        for(uint i = 0; i < _len; ++i) {\n            \n            // consider result\n            AuctionResult memory result = matchResults[matchId][i];\n            \n            // if no one wins the token then withdraw (result is at initial state)\n            if (result.bidder == ADDRESS_NULL && result.bidAmount > 0) {\n                process_withdraw_nft(matchId, i);\n            }\n        }\n    }\n    \n    function creator_withdraw_nft(string memory matchId, uint tokenIndex) external validTokenIndex(matchId, tokenIndex) creatorOnly(matchId) matchFinished(matchId) {\n        AuctionResult memory result = matchResults[matchId][tokenIndex];\n        require (result.bidder == ADDRESS_NULL && result.bidAmount > 0, \"token is not available to withdraw\");\n        \n        process_withdraw_nft(matchId, tokenIndex);\n    }\n\n    function creator_withdraw_profit() external {\n        uint balance = creatorBalance[msg.sender];\n        require(balance > 0, \"creator balance must be greater than 0\");\n        \n        // reset balance \n        creatorBalance[msg.sender] = 0;\n        \n        // send money\n        IERC20(USDT_ADDRESS).safeTransfer(msg.sender, balance);\n    }\n\n    function onERC721Received(address operator, address from, uint256 tokenId, bytes calldata data) external override pure returns (bytes4) {\n        // return ERC721_ONRECEIVED_RESULT to conform the interface\n        return ERC721_ONRECEIVED_RESULT;\n    }\n\n    function get_match(string memory matchId) external view returns(address, uint, uint, uint, uint) {\n        Match memory amatch = matches[matchId];\n        return (\n            amatch.creatorAddress,\n            amatch.openBlock,\n            amatch.expiryBlock,\n            amatch.blockPerEpoch,\n            amatch.nftCount\n        );\n    }\n\n    function get_current_result(string memory matchId, uint tokenIndex) external view returns (address, uint) {\n        return (matchResults[matchId][tokenIndex].bidder, matchResults[matchId][tokenIndex].bidAmount);\n    }\n\n    function get_creator_balance(address creatorAddress) external view returns(uint) {\n        return creatorBalance[creatorAddress];\n    }\n}\n",
  "sourcePath": "/Users/yxf/app/uniarts-eth-dao/contracts/core/DutchAuction.sol",
  "compiler": {
    "name": "solc",
    "version": "0.8.4+commit.c7e474f2.Emscripten.clang"
  },
  "schemaVersion": "3.2.3",
  "updatedAt": "2021-08-27T01:56:55.230Z",
  "devdoc": {
    "kind": "dev",
    "methods": {
      "onERC721Received(address,address,uint256,bytes)": {
        "details": "Whenever an {IERC721} `tokenId` token is transferred to this contract via {IERC721-safeTransferFrom} by `operator` from `from`, this function is called. It must return its Solidity selector to confirm the token transfer. If any other value is returned or the interface is not implemented by the recipient, the transfer will be reverted. The selector can be obtained in Solidity with `IERC721.onERC721Received.selector`."
      }
    },
    "version": 1
  },
  "userdoc": {
    "kind": "user",
    "methods": {},
    "version": 1
  }
}