{
  "contractName": "FeeManager",
  "abi": [
    {
      "anonymous": false,
      "inputs": [
        {
          "indexed": false,
          "internalType": "uint256",
          "name": "cutPerMillion",
          "type": "uint256"
        }
      ],
      "name": "ChangedFeePerMillion",
      "type": "event"
    },
    {
      "anonymous": false,
      "inputs": [
        {
          "indexed": true,
          "internalType": "address",
          "name": "previousOwner",
          "type": "address"
        },
        {
          "indexed": true,
          "internalType": "address",
          "name": "newOwner",
          "type": "address"
        }
      ],
      "name": "OwnershipTransferred",
      "type": "event"
    },
    {
      "inputs": [],
      "name": "cutPerMillion",
      "outputs": [
        {
          "internalType": "uint256",
          "name": "",
          "type": "uint256"
        }
      ],
      "stateMutability": "view",
      "type": "function"
    },
    {
      "inputs": [],
      "name": "maxCutPerMillion",
      "outputs": [
        {
          "internalType": "uint256",
          "name": "",
          "type": "uint256"
        }
      ],
      "stateMutability": "view",
      "type": "function"
    },
    {
      "inputs": [],
      "name": "owner",
      "outputs": [
        {
          "internalType": "address",
          "name": "",
          "type": "address"
        }
      ],
      "stateMutability": "view",
      "type": "function"
    },
    {
      "inputs": [],
      "name": "renounceOwnership",
      "outputs": [],
      "stateMutability": "nonpayable",
      "type": "function"
    },
    {
      "inputs": [
        {
          "internalType": "address",
          "name": "newOwner",
          "type": "address"
        }
      ],
      "name": "transferOwnership",
      "outputs": [],
      "stateMutability": "nonpayable",
      "type": "function"
    },
    {
      "inputs": [
        {
          "internalType": "uint256",
          "name": "_cutPerMillion",
          "type": "uint256"
        }
      ],
      "name": "setOwnerCutPerMillion",
      "outputs": [],
      "stateMutability": "nonpayable",
      "type": "function"
    }
  ],
  "bytecode": "0x608060405234801561001057600080fd5b5061002d61002261003260201b60201c565b61003a60201b60201c565b6100fe565b600033905090565b60008060009054906101000a900473ffffffffffffffffffffffffffffffffffffffff169050816000806101000a81548173ffffffffffffffffffffffffffffffffffffffff021916908373ffffffffffffffffffffffffffffffffffffffff1602179055508173ffffffffffffffffffffffffffffffffffffffff168173ffffffffffffffffffffffffffffffffffffffff167f8be0079c531659141344cd1fd0a4f28419497f9722a3daafe3b4186f6b6457e060405160405180910390a35050565b61079a8061010d6000396000f3fe608060405234801561001057600080fd5b50600436106100625760003560e01c806319dad16d14610067578063673c855314610083578063715018a6146100a15780638da5cb5b146100ab578063c555e050146100c9578063f2fde38b146100e7575b600080fd5b610081600480360381019061007c91906104dc565b610103565b005b61008b610207565b6040516100989190610607565b60405180910390f35b6100a961020d565b005b6100b3610295565b6040516100c0919061058c565b60405180910390f35b6100d16102be565b6040516100de9190610607565b60405180910390f35b61010160048036038101906100fc91906104b3565b6102c5565b005b61010b6103bd565b73ffffffffffffffffffffffffffffffffffffffff16610129610295565b73ffffffffffffffffffffffffffffffffffffffff161461017f576040517f08c379a0000000000000000000000000000000000000000000000000000000008152600401610176906105c7565b60405180910390fd5b620186a081106101c4576040517f08c379a00000000000000000000000000000000000000000000000000000000081526004016101bb906105e7565b60405180910390fd5b806001819055507fdb629698afb23c88e17ec4d29f97b3907c3e1fbfd116fa15f97569c7c16b3e4d6001546040516101fc9190610607565b60405180910390a150565b60015481565b6102156103bd565b73ffffffffffffffffffffffffffffffffffffffff16610233610295565b73ffffffffffffffffffffffffffffffffffffffff1614610289576040517f08c379a0000000000000000000000000000000000000000000000000000000008152600401610280906105c7565b60405180910390fd5b61029360006103c5565b565b60008060009054906101000a900473ffffffffffffffffffffffffffffffffffffffff16905090565b620186a081565b6102cd6103bd565b73ffffffffffffffffffffffffffffffffffffffff166102eb610295565b73ffffffffffffffffffffffffffffffffffffffff1614610341576040517f08c379a0000000000000000000000000000000000000000000000000000000008152600401610338906105c7565b60405180910390fd5b600073ffffffffffffffffffffffffffffffffffffffff168173ffffffffffffffffffffffffffffffffffffffff1614156103b1576040517f08c379a00000000000000000000000000000000000000000000000000000000081526004016103a8906105a7565b60405180910390fd5b6103ba816103c5565b50565b600033905090565b60008060009054906101000a900473ffffffffffffffffffffffffffffffffffffffff169050816000806101000a81548173ffffffffffffffffffffffffffffffffffffffff021916908373ffffffffffffffffffffffffffffffffffffffff1602179055508173ffffffffffffffffffffffffffffffffffffffff168173ffffffffffffffffffffffffffffffffffffffff167f8be0079c531659141344cd1fd0a4f28419497f9722a3daafe3b4186f6b6457e060405160405180910390a35050565b60008135905061049881610736565b92915050565b6000813590506104ad8161074d565b92915050565b6000602082840312156104c557600080fd5b60006104d384828501610489565b91505092915050565b6000602082840312156104ee57600080fd5b60006104fc8482850161049e565b91505092915050565b61050e81610633565b82525050565b6000610521602683610622565b915061052c8261066f565b604082019050919050565b6000610544602083610622565b915061054f826106be565b602082019050919050565b6000610567603683610622565b9150610572826106e7565b604082019050919050565b61058681610665565b82525050565b60006020820190506105a16000830184610505565b92915050565b600060208201905081810360008301526105c081610514565b9050919050565b600060208201905081810360008301526105e081610537565b9050919050565b600060208201905081810360008301526106008161055a565b9050919050565b600060208201905061061c600083018461057d565b92915050565b600082825260208201905092915050565b600061063e82610645565b9050919050565b600073ffffffffffffffffffffffffffffffffffffffff82169050919050565b6000819050919050565b7f4f776e61626c653a206e6577206f776e657220697320746865207a65726f206160008201527f6464726573730000000000000000000000000000000000000000000000000000602082015250565b7f4f776e61626c653a2063616c6c6572206973206e6f7420746865206f776e6572600082015250565b7f546865206f776e6572206375742073686f756c64206265206265747765656e2060008201527f3020616e64206d61784375745065724d696c6c696f6e00000000000000000000602082015250565b61073f81610633565b811461074a57600080fd5b50565b61075681610665565b811461076157600080fd5b5056fea2646970667358221220c37c43b638d57b252cf046e971b93ac8e09a515a16a26ea95210aa3e672716a564736f6c63430008040033",
  "immutableReferences": {},
  "source": "// SPDX-License-Identifier: MIT\npragma solidity ^0.8.0;\n\nimport \"@openzeppelin/contracts/access/Ownable.sol\";\n\ncontract FeeManager is Ownable {\n\n    event ChangedFeePerMillion(uint256 cutPerMillion);\n\n    // Market fee on sales\n    uint256 public cutPerMillion;\n    uint256 public constant maxCutPerMillion = 100000; // 10% cut\n\n    /**\n     * @dev Sets the share cut for the owner of the contract that's\n     *  charged to the seller on a successful sale\n     * @param _cutPerMillion - Share amount, from 0 to 99,999\n     */\n    function setOwnerCutPerMillion(uint256 _cutPerMillion) external onlyOwner {\n        require(\n            _cutPerMillion < maxCutPerMillion,\n            \"The owner cut should be between 0 and maxCutPerMillion\"\n        );\n\n        cutPerMillion = _cutPerMillion;\n        emit ChangedFeePerMillion(cutPerMillion);\n    }\n}",
  "sourcePath": "/Users/yxf/app/uniarts-eth-dao/contracts/core/FeeManager.sol",
  "compiler": {
    "name": "solc",
    "version": "0.8.4+commit.c7e474f2.Emscripten.clang"
  },
  "schemaVersion": "3.2.3",
  "updatedAt": "2021-08-27T01:56:55.239Z",
  "devdoc": {
    "kind": "dev",
    "methods": {
      "owner()": {
        "details": "Returns the address of the current owner."
      },
      "renounceOwnership()": {
        "details": "Leaves the contract without owner. It will not be possible to call `onlyOwner` functions anymore. Can only be called by the current owner. NOTE: Renouncing ownership will leave the contract without an owner, thereby removing any functionality that is only available to the owner."
      },
      "setOwnerCutPerMillion(uint256)": {
        "details": "Sets the share cut for the owner of the contract that's  charged to the seller on a successful sale",
        "params": {
          "_cutPerMillion": "- Share amount, from 0 to 99,999"
        }
      },
      "transferOwnership(address)": {
        "details": "Transfers ownership of the contract to a new account (`newOwner`). Can only be called by the current owner."
      }
    },
    "version": 1
  },
  "userdoc": {
    "kind": "user",
    "methods": {},
    "version": 1
  }
}