{
  "contractName": "MysteryBox",
  "abi": [
    {
      "anonymous": false,
      "inputs": [
        {
          "indexed": false,
          "internalType": "address",
          "name": "_who",
          "type": "address"
        },
        {
          "indexed": false,
          "internalType": "uint256",
          "name": "_collectionId",
          "type": "uint256"
        }
      ],
      "name": "CreateCollection",
      "type": "event"
    },
    {
      "anonymous": false,
      "inputs": [
        {
          "indexed": false,
          "internalType": "address",
          "name": "_who",
          "type": "address"
        },
        {
          "indexed": false,
          "internalType": "address",
          "name": "_tokenAddress",
          "type": "address"
        },
        {
          "indexed": false,
          "internalType": "uint256",
          "name": "_tokenId",
          "type": "uint256"
        }
      ],
      "name": "NFTClaim",
      "type": "event"
    },
    {
      "anonymous": false,
      "inputs": [
        {
          "indexed": false,
          "internalType": "address",
          "name": "_who",
          "type": "address"
        },
        {
          "indexed": false,
          "internalType": "address",
          "name": "_tokenAddress",
          "type": "address"
        },
        {
          "indexed": false,
          "internalType": "uint256",
          "name": "_tokenId",
          "type": "uint256"
        }
      ],
      "name": "NFTDeposit",
      "type": "event"
    },
    {
      "anonymous": false,
      "inputs": [
        {
          "indexed": false,
          "internalType": "address",
          "name": "_who",
          "type": "address"
        },
        {
          "indexed": false,
          "internalType": "address",
          "name": "_tokenAddress",
          "type": "address"
        },
        {
          "indexed": false,
          "internalType": "uint256",
          "name": "_tokenId",
          "type": "uint256"
        }
      ],
      "name": "NFTWithdraw",
      "type": "event"
    },
    {
      "anonymous": false,
      "inputs": [
        {
          "indexed": true,
          "internalType": "address",
          "name": "previousOwner",
          "type": "address"
        },
        {
          "indexed": true,
          "internalType": "address",
          "name": "newOwner",
          "type": "address"
        }
      ],
      "name": "OwnershipTransferred",
      "type": "event"
    },
    {
      "anonymous": false,
      "inputs": [
        {
          "indexed": false,
          "internalType": "address",
          "name": "_who",
          "type": "address"
        },
        {
          "indexed": false,
          "internalType": "uint256",
          "name": "_collectionId",
          "type": "uint256"
        }
      ],
      "name": "PublishCollection",
      "type": "event"
    },
    {
      "anonymous": false,
      "inputs": [
        {
          "indexed": false,
          "internalType": "address",
          "name": "_who",
          "type": "address"
        },
        {
          "indexed": false,
          "internalType": "uint256",
          "name": "_collectionId",
          "type": "uint256"
        }
      ],
      "name": "UnpublishCollection",
      "type": "event"
    },
    {
      "inputs": [
        {
          "internalType": "uint256",
          "name": "",
          "type": "uint256"
        }
      ],
      "name": "allCollections",
      "outputs": [
        {
          "internalType": "address",
          "name": "owner",
          "type": "address"
        },
        {
          "internalType": "string",
          "name": "name",
          "type": "string"
        },
        {
          "internalType": "uint256",
          "name": "size",
          "type": "uint256"
        },
        {
          "internalType": "uint256",
          "name": "commissionRate",
          "type": "uint256"
        },
        {
          "internalType": "bool",
          "name": "willAcceptBLES",
          "type": "bool"
        },
        {
          "internalType": "uint256",
          "name": "totalPrice",
          "type": "uint256"
        },
        {
          "internalType": "uint256",
          "name": "averagePrice",
          "type": "uint256"
        },
        {
          "internalType": "uint256",
          "name": "fee",
          "type": "uint256"
        },
        {
          "internalType": "uint256",
          "name": "commission",
          "type": "uint256"
        },
        {
          "internalType": "uint256",
          "name": "publishedAt",
          "type": "uint256"
        },
        {
          "internalType": "uint256",
          "name": "timesToCall",
          "type": "uint256"
        },
        {
          "internalType": "uint256",
          "name": "soldCount",
          "type": "uint256"
        }
      ],
      "stateMutability": "view",
      "type": "function"
    },
    {
      "inputs": [
        {
          "internalType": "uint256",
          "name": "",
          "type": "uint256"
        }
      ],
      "name": "allNFTs",
      "outputs": [
        {
          "internalType": "address",
          "name": "tokenAddress",
          "type": "address"
        },
        {
          "internalType": "uint256",
          "name": "tokenId",
          "type": "uint256"
        },
        {
          "internalType": "address",
          "name": "owner",
          "type": "address"
        },
        {
          "internalType": "uint256",
          "name": "price",
          "type": "uint256"
        },
        {
          "internalType": "uint256",
          "name": "paid",
          "type": "uint256"
        },
        {
          "internalType": "uint256",
          "name": "collectionId",
          "type": "uint256"
        },
        {
          "internalType": "uint256",
          "name": "indexInCollection",
          "type": "uint256"
        }
      ],
      "stateMutability": "view",
      "type": "function"
    },
    {
      "inputs": [],
      "name": "baseToken",
      "outputs": [
        {
          "internalType": "contract IERC20",
          "name": "",
          "type": "address"
        }
      ],
      "stateMutability": "view",
      "type": "function"
    },
    {
      "inputs": [],
      "name": "blesToken",
      "outputs": [
        {
          "internalType": "contract IERC20",
          "name": "",
          "type": "address"
        }
      ],
      "stateMutability": "view",
      "type": "function"
    },
    {
      "inputs": [],
      "name": "canDrawMultiple",
      "outputs": [
        {
          "internalType": "bool",
          "name": "",
          "type": "bool"
        }
      ],
      "stateMutability": "view",
      "type": "function"
    },
    {
      "inputs": [
        {
          "internalType": "uint256",
          "name": "",
          "type": "uint256"
        },
        {
          "internalType": "uint256",
          "name": "",
          "type": "uint256"
        }
      ],
      "name": "collaborators",
      "outputs": [
        {
          "internalType": "address",
          "name": "",
          "type": "address"
        }
      ],
      "stateMutability": "view",
      "type": "function"
    },
    {
      "inputs": [
        {
          "internalType": "address",
          "name": "",
          "type": "address"
        },
        {
          "internalType": "uint256",
          "name": "",
          "type": "uint256"
        }
      ],
      "name": "collectionsByOwner",
      "outputs": [
        {
          "internalType": "uint256",
          "name": "",
          "type": "uint256"
        }
      ],
      "stateMutability": "view",
      "type": "function"
    },
    {
      "inputs": [],
      "name": "creatingFee",
      "outputs": [
        {
          "internalType": "uint256",
          "name": "",
          "type": "uint256"
        }
      ],
      "stateMutability": "view",
      "type": "function"
    },
    {
      "inputs": [],
      "name": "feeRate",
      "outputs": [
        {
          "internalType": "uint256",
          "name": "",
          "type": "uint256"
        }
      ],
      "stateMutability": "view",
      "type": "function"
    },
    {
      "inputs": [],
      "name": "feeTo",
      "outputs": [
        {
          "internalType": "address",
          "name": "",
          "type": "address"
        }
      ],
      "stateMutability": "view",
      "type": "function"
    },
    {
      "inputs": [
        {
          "internalType": "uint256",
          "name": "",
          "type": "uint256"
        },
        {
          "internalType": "address",
          "name": "",
          "type": "address"
        }
      ],
      "name": "isCollaborator",
      "outputs": [
        {
          "internalType": "bool",
          "name": "",
          "type": "bool"
        }
      ],
      "stateMutability": "view",
      "type": "function"
    },
    {
      "inputs": [],
      "name": "linkAccessor",
      "outputs": [
        {
          "internalType": "contract ILinkAccessor",
          "name": "",
          "type": "address"
        }
      ],
      "stateMutability": "view",
      "type": "function"
    },
    {
      "inputs": [],
      "name": "linkCost",
      "outputs": [
        {
          "internalType": "uint256",
          "name": "",
          "type": "uint256"
        }
      ],
      "stateMutability": "view",
      "type": "function"
    },
    {
      "inputs": [],
      "name": "linkToken",
      "outputs": [
        {
          "internalType": "contract IERC20",
          "name": "",
          "type": "address"
        }
      ],
      "stateMutability": "view",
      "type": "function"
    },
    {
      "inputs": [],
      "name": "maximumDuration",
      "outputs": [
        {
          "internalType": "uint256",
          "name": "",
          "type": "uint256"
        }
      ],
      "stateMutability": "view",
      "type": "function"
    },
    {
      "inputs": [],
      "name": "minimumCollectionSize",
      "outputs": [
        {
          "internalType": "uint256",
          "name": "",
          "type": "uint256"
        }
      ],
      "stateMutability": "view",
      "type": "function"
    },
    {
      "inputs": [],
      "name": "nextCollectionId",
      "outputs": [
        {
          "internalType": "uint256",
          "name": "",
          "type": "uint256"
        }
      ],
      "stateMutability": "view",
      "type": "function"
    },
    {
      "inputs": [],
      "name": "nextNFTId",
      "outputs": [
        {
          "internalType": "uint256",
          "name": "",
          "type": "uint256"
        }
      ],
      "stateMutability": "view",
      "type": "function"
    },
    {
      "inputs": [
        {
          "internalType": "address",
          "name": "",
          "type": "address"
        },
        {
          "internalType": "uint256",
          "name": "",
          "type": "uint256"
        }
      ],
      "name": "nftIdMap",
      "outputs": [
        {
          "internalType": "uint256",
          "name": "",
          "type": "uint256"
        }
      ],
      "stateMutability": "view",
      "type": "function"
    },
    {
      "inputs": [
        {
          "internalType": "uint256",
          "name": "",
          "type": "uint256"
        },
        {
          "internalType": "uint256",
          "name": "",
          "type": "uint256"
        }
      ],
      "name": "nftMapping",
      "outputs": [
        {
          "internalType": "uint256",
          "name": "",
          "type": "uint256"
        }
      ],
      "stateMutability": "view",
      "type": "function"
    },
    {
      "inputs": [],
      "name": "nftPriceCeil",
      "outputs": [
        {
          "internalType": "uint256",
          "name": "",
          "type": "uint256"
        }
      ],
      "stateMutability": "view",
      "type": "function"
    },
    {
      "inputs": [],
      "name": "nftPriceFloor",
      "outputs": [
        {
          "internalType": "uint256",
          "name": "",
          "type": "uint256"
        }
      ],
      "stateMutability": "view",
      "type": "function"
    },
    {
      "inputs": [
        {
          "internalType": "uint256",
          "name": "",
          "type": "uint256"
        },
        {
          "internalType": "uint256",
          "name": "",
          "type": "uint256"
        }
      ],
      "name": "nftsByCollectionId",
      "outputs": [
        {
          "internalType": "uint256",
          "name": "",
          "type": "uint256"
        }
      ],
      "stateMutability": "view",
      "type": "function"
    },
    {
      "inputs": [
        {
          "internalType": "address",
          "name": "",
          "type": "address"
        },
        {
          "internalType": "uint256",
          "name": "",
          "type": "uint256"
        }
      ],
      "name": "nftsByOwner",
      "outputs": [
        {
          "internalType": "uint256",
          "name": "",
          "type": "uint256"
        }
      ],
      "stateMutability": "view",
      "type": "function"
    },
    {
      "inputs": [],
      "name": "owner",
      "outputs": [
        {
          "internalType": "address",
          "name": "",
          "type": "address"
        }
      ],
      "stateMutability": "view",
      "type": "function"
    },
    {
      "inputs": [],
      "name": "renounceOwnership",
      "outputs": [],
      "stateMutability": "nonpayable",
      "type": "function"
    },
    {
      "inputs": [
        {
          "internalType": "bytes32",
          "name": "",
          "type": "bytes32"
        }
      ],
      "name": "requestInfoMap",
      "outputs": [
        {
          "internalType": "uint256",
          "name": "collectionId",
          "type": "uint256"
        }
      ],
      "stateMutability": "view",
      "type": "function"
    },
    {
      "inputs": [],
      "name": "router",
      "outputs": [
        {
          "internalType": "contract IUniswapV2Router02",
          "name": "",
          "type": "address"
        }
      ],
      "stateMutability": "view",
      "type": "function"
    },
    {
      "inputs": [
        {
          "internalType": "uint256",
          "name": "",
          "type": "uint256"
        },
        {
          "internalType": "uint256",
          "name": "",
          "type": "uint256"
        }
      ],
      "name": "slotMap",
      "outputs": [
        {
          "internalType": "address",
          "name": "owner",
          "type": "address"
        },
        {
          "internalType": "uint256",
          "name": "size",
          "type": "uint256"
        }
      ],
      "stateMutability": "view",
      "type": "function"
    },
    {
      "inputs": [
        {
          "internalType": "address",
          "name": "newOwner",
          "type": "address"
        }
      ],
      "name": "transferOwnership",
      "outputs": [],
      "stateMutability": "nonpayable",
      "type": "function"
    },
    {
      "inputs": [],
      "name": "wETH",
      "outputs": [
        {
          "internalType": "contract IERC20",
          "name": "",
          "type": "address"
        }
      ],
      "stateMutability": "view",
      "type": "function"
    },
    {
      "inputs": [
        {
          "internalType": "address",
          "name": "",
          "type": "address"
        },
        {
          "internalType": "address",
          "name": "",
          "type": "address"
        },
        {
          "internalType": "uint256",
          "name": "",
          "type": "uint256"
        },
        {
          "internalType": "bytes",
          "name": "",
          "type": "bytes"
        }
      ],
      "name": "onERC721Received",
      "outputs": [
        {
          "internalType": "bytes4",
          "name": "",
          "type": "bytes4"
        }
      ],
      "stateMutability": "nonpayable",
      "type": "function"
    },
    {
      "inputs": [
        {
          "internalType": "contract IERC20",
          "name": "wETH_",
          "type": "address"
        }
      ],
      "name": "setWETH",
      "outputs": [],
      "stateMutability": "nonpayable",
      "type": "function"
    },
    {
      "inputs": [
        {
          "internalType": "contract IERC20",
          "name": "linkToken_",
          "type": "address"
        }
      ],
      "name": "setLinkToken",
      "outputs": [],
      "stateMutability": "nonpayable",
      "type": "function"
    },
    {
      "inputs": [
        {
          "internalType": "contract IERC20",
          "name": "baseToken_",
          "type": "address"
        }
      ],
      "name": "setBaseToken",
      "outputs": [],
      "stateMutability": "nonpayable",
      "type": "function"
    },
    {
      "inputs": [
        {
          "internalType": "contract IERC20",
          "name": "blesToken_",
          "type": "address"
        }
      ],
      "name": "setBlesToken",
      "outputs": [],
      "stateMutability": "nonpayable",
      "type": "function"
    },
    {
      "inputs": [
        {
          "internalType": "contract ILinkAccessor",
          "name": "linkAccessor_",
          "type": "address"
        }
      ],
      "name": "setLinkAccessor",
      "outputs": [],
      "stateMutability": "nonpayable",
      "type": "function"
    },
    {
      "inputs": [
        {
          "internalType": "uint256",
          "name": "linkCost_",
          "type": "uint256"
        }
      ],
      "name": "setLinkCost",
      "outputs": [],
      "stateMutability": "nonpayable",
      "type": "function"
    },
    {
      "inputs": [
        {
          "internalType": "bool",
          "name": "value_",
          "type": "bool"
        }
      ],
      "name": "setCanDrawMultiple",
      "outputs": [],
      "stateMutability": "nonpayable",
      "type": "function"
    },
    {
      "inputs": [
        {
          "internalType": "uint256",
          "name": "feeRate_",
          "type": "uint256"
        }
      ],
      "name": "setFeeRate",
      "outputs": [],
      "stateMutability": "nonpayable",
      "type": "function"
    },
    {
      "inputs": [
        {
          "internalType": "address",
          "name": "feeTo_",
          "type": "address"
        }
      ],
      "name": "setFeeTo",
      "outputs": [],
      "stateMutability": "nonpayable",
      "type": "function"
    },
    {
      "inputs": [
        {
          "internalType": "uint256",
          "name": "creatingFee_",
          "type": "uint256"
        }
      ],
      "name": "setCreatingFee",
      "outputs": [],
      "stateMutability": "nonpayable",
      "type": "function"
    },
    {
      "inputs": [
        {
          "internalType": "contract IUniswapV2Router02",
          "name": "router_",
          "type": "address"
        }
      ],
      "name": "setUniswapV2Router",
      "outputs": [],
      "stateMutability": "nonpayable",
      "type": "function"
    },
    {
      "inputs": [
        {
          "internalType": "uint256",
          "name": "value_",
          "type": "uint256"
        }
      ],
      "name": "setNFTPriceFloor",
      "outputs": [],
      "stateMutability": "nonpayable",
      "type": "function"
    },
    {
      "inputs": [
        {
          "internalType": "uint256",
          "name": "value_",
          "type": "uint256"
        }
      ],
      "name": "setNFTPriceCeil",
      "outputs": [],
      "stateMutability": "nonpayable",
      "type": "function"
    },
    {
      "inputs": [
        {
          "internalType": "uint256",
          "name": "size_",
          "type": "uint256"
        }
      ],
      "name": "setMinimumCollectionSize",
      "outputs": [],
      "stateMutability": "nonpayable",
      "type": "function"
    },
    {
      "inputs": [
        {
          "internalType": "uint256",
          "name": "maximumDuration_",
          "type": "uint256"
        }
      ],
      "name": "setMaximumDuration",
      "outputs": [],
      "stateMutability": "nonpayable",
      "type": "function"
    },
    {
      "inputs": [
        {
          "internalType": "uint256",
          "name": "collectionId_",
          "type": "uint256"
        },
        {
          "internalType": "uint256",
          "name": "index_",
          "type": "uint256"
        }
      ],
      "name": "claimNFT",
      "outputs": [],
      "stateMutability": "nonpayable",
      "type": "function"
    },
    {
      "inputs": [
        {
          "internalType": "uint256",
          "name": "collectionId_",
          "type": "uint256"
        },
        {
          "internalType": "uint256",
          "name": "index_",
          "type": "uint256"
        }
      ],
      "name": "claimRevenue",
      "outputs": [],
      "stateMutability": "nonpayable",
      "type": "function"
    },
    {
      "inputs": [
        {
          "internalType": "uint256",
          "name": "collectionId_",
          "type": "uint256"
        }
      ],
      "name": "claimCommission",
      "outputs": [],
      "stateMutability": "nonpayable",
      "type": "function"
    },
    {
      "inputs": [
        {
          "internalType": "uint256",
          "name": "collectionId_",
          "type": "uint256"
        }
      ],
      "name": "claimFee",
      "outputs": [],
      "stateMutability": "nonpayable",
      "type": "function"
    },
    {
      "inputs": [
        {
          "internalType": "string",
          "name": "name_",
          "type": "string"
        },
        {
          "internalType": "uint256",
          "name": "size_",
          "type": "uint256"
        },
        {
          "internalType": "uint256",
          "name": "commissionRate_",
          "type": "uint256"
        },
        {
          "internalType": "bool",
          "name": "willAcceptBLES_",
          "type": "bool"
        },
        {
          "internalType": "address[]",
          "name": "collaborators_",
          "type": "address[]"
        }
      ],
      "name": "createCollection",
      "outputs": [],
      "stateMutability": "nonpayable",
      "type": "function"
    },
    {
      "inputs": [
        {
          "internalType": "uint256",
          "name": "collectionId_",
          "type": "uint256"
        },
        {
          "internalType": "address[]",
          "name": "collaborators_",
          "type": "address[]"
        }
      ],
      "name": "changeCollaborators",
      "outputs": [],
      "stateMutability": "nonpayable",
      "type": "function"
    },
    {
      "inputs": [
        {
          "internalType": "uint256",
          "name": "collectionId_",
          "type": "uint256"
        }
      ],
      "name": "isPublished",
      "outputs": [
        {
          "internalType": "bool",
          "name": "",
          "type": "bool"
        }
      ],
      "stateMutability": "view",
      "type": "function"
    },
    {
      "inputs": [
        {
          "internalType": "address",
          "name": "tokenAddress_",
          "type": "address"
        },
        {
          "internalType": "uint256",
          "name": "tokenId_",
          "type": "uint256"
        },
        {
          "internalType": "uint256",
          "name": "collectionId_",
          "type": "uint256"
        },
        {
          "internalType": "uint256",
          "name": "price_",
          "type": "uint256"
        }
      ],
      "name": "addNFTToCollection",
      "outputs": [],
      "stateMutability": "nonpayable",
      "type": "function"
    },
    {
      "inputs": [
        {
          "internalType": "uint256",
          "name": "nftId_",
          "type": "uint256"
        },
        {
          "internalType": "uint256",
          "name": "collectionId_",
          "type": "uint256"
        },
        {
          "internalType": "uint256",
          "name": "price_",
          "type": "uint256"
        }
      ],
      "name": "editNFTInCollection",
      "outputs": [],
      "stateMutability": "nonpayable",
      "type": "function"
    },
    {
      "inputs": [
        {
          "internalType": "uint256",
          "name": "nftId_",
          "type": "uint256"
        },
        {
          "internalType": "uint256",
          "name": "collectionId_",
          "type": "uint256"
        }
      ],
      "name": "removeNFTFromCollection",
      "outputs": [],
      "stateMutability": "nonpayable",
      "type": "function"
    },
    {
      "inputs": [
        {
          "internalType": "uint256",
          "name": "size_",
          "type": "uint256"
        }
      ],
      "name": "randomnessCount",
      "outputs": [
        {
          "internalType": "uint256",
          "name": "",
          "type": "uint256"
        }
      ],
      "stateMutability": "pure",
      "type": "function"
    },
    {
      "inputs": [
        {
          "internalType": "uint256",
          "name": "collectionId_",
          "type": "uint256"
        },
        {
          "internalType": "address[]",
          "name": "path",
          "type": "address[]"
        },
        {
          "internalType": "uint256",
          "name": "amountInMax_",
          "type": "uint256"
        },
        {
          "internalType": "uint256",
          "name": "deadline_",
          "type": "uint256"
        }
      ],
      "name": "publishCollection",
      "outputs": [],
      "stateMutability": "nonpayable",
      "type": "function"
    },
    {
      "inputs": [
        {
          "internalType": "uint256",
          "name": "collectionId_",
          "type": "uint256"
        }
      ],
      "name": "unpublishCollection",
      "outputs": [],
      "stateMutability": "nonpayable",
      "type": "function"
    },
    {
      "inputs": [
        {
          "internalType": "uint256",
          "name": "collectionId_",
          "type": "uint256"
        },
        {
          "internalType": "uint256",
          "name": "times_",
          "type": "uint256"
        }
      ],
      "name": "drawBoxes",
      "outputs": [],
      "stateMutability": "nonpayable",
      "type": "function"
    },
    {
      "inputs": [
        {
          "internalType": "uint256",
          "name": "collectionId_",
          "type": "uint256"
        },
        {
          "internalType": "uint256",
          "name": "nftIndex_",
          "type": "uint256"
        }
      ],
      "name": "getWinner",
      "outputs": [
        {
          "internalType": "address",
          "name": "",
          "type": "address"
        }
      ],
      "stateMutability": "view",
      "type": "function"
    },
    {
      "inputs": [],
      "name": "psuedoRandomness",
      "outputs": [
        {
          "internalType": "uint256",
          "name": "",
          "type": "uint256"
        }
      ],
      "stateMutability": "view",
      "type": "function"
    },
    {
      "inputs": [
        {
          "internalType": "bytes32",
          "name": "requestId",
          "type": "bytes32"
        },
        {
          "internalType": "uint256",
          "name": "randomness",
          "type": "uint256"
        }
      ],
      "name": "fulfillRandomness",
      "outputs": [],
      "stateMutability": "nonpayable",
      "type": "function"
    }
  ],
  "bytecode": "0x608060405267016345785d8a00006005556001600660146101000a81548160ff0219169083151502179055506101f46007556000600955670de0b6b3a764000060185569d3c21bcecceda10000006019556003601a5562127500601b553480156200006957600080fd5b506200008a6200007e6200009060201b60201c565b6200009860201b60201c565b6200015c565b600033905090565b60008060009054906101000a900473ffffffffffffffffffffffffffffffffffffffff169050816000806101000a81548173ffffffffffffffffffffffffffffffffffffffff021916908373ffffffffffffffffffffffffffffffffffffffff1602179055508173ffffffffffffffffffffffffffffffffffffffff168173ffffffffffffffffffffffffffffffffffffffff167f8be0079c531659141344cd1fd0a4f28419497f9722a3daafe3b4186f6b6457e060405160405180910390a35050565b618b99806200016c6000396000f3fe608060405234801561001057600080fd5b50600436106103d05760003560e01c80638da5cb5b116101ff578063d0e3cd631161011a578063eb7aa7d3116100ad578063f46901ed1161007c578063f46901ed14610bb5578063f667526a14610bd1578063f887ea4014610bed578063f8bda66414610c0b576103d0565b8063eb7aa7d314610b2f578063f195341e14610b4b578063f242862114610b7b578063f2fde38b14610b99576103d0565b8063e60acd79116100e9578063e60acd7914610abb578063e61bd4e614610ad7578063e77d6f7c14610af5578063ea7585ec14610b13576103d0565b8063d0e3cd6314610a21578063d0eb520514610a51578063d4157bc914610a6f578063e5c0560314610a8b576103d0565b8063adc84bc511610192578063bc9c1af811610161578063bc9c1af81461097f578063bf162d67146109af578063c55dae63146109e5578063c909adc014610a03576103d0565b8063adc84bc51461090d578063b11c55df14610929578063b3fba0a014610945578063b595706414610961576103d0565b80639c24ea40116101ce5780639c24ea40146108725780639da1f6da1461088e578063a1f7132d146108bf578063ab8c364d146108dd576103d0565b80638da5cb5b146107fc5780638eca493a1461081a5780639080895f14610836578063978bbdb914610854576103d0565b806339ff487b116102ef578063688d3347116102825780637b156fb5116102515780637b156fb5146107645780637bf9bf3a146107945780638bd73f71146107b05780638d316f1c146107cc576103d0565b8063688d3347146106f0578063715018a61461072057806377ed860e1461072a5780637a6b8ade14610748576103d0565b806357970e93116102be57806357970e931461067c5780635b769f3c1461069a5780635fd94819146106b65780636776fab3146106d2576103d0565b806339ff487b146105f8578063401efc191461062857806345596e2e146106445780634b129bee14610660576103d0565b806316bb6c13116103675780631f1f897f116103365780631f1f897f14610572578063221b1fa71461058e57806327ea3078146105aa578063309cb6a7146105c8576103d0565b806316bb6c13146104ec5780631a204e30146105085780631a6ad1a8146105385780631e25aa8c14610554576103d0565b80631123927b116103a35780631123927b146104495780631419841d14610465578063150b7a0214610481578063167ef495146104b1576103d0565b8063017e7e58146103d557806309e7d0c4146103f35780630db06c0b1461040f5780630e41f9c41461042d575b600080fd5b6103dd610c27565b6040516103ea91906175ef565b60405180910390f35b61040d60048036038101906104089190616eba565b610c4d565b005b61041761103c565b60405161042491906177c3565b60405180910390f35b61044760048036038101906104429190616d54565b61104f565b005b610463600480360381019061045e9190616aa5565b611535565b005b61047f600480360381019061047a9190616c7b565b611555565b005b61049b600480360381019061049691906169ee565b611615565b6040516104a891906177de565b60405180910390f35b6104cb60048036038101906104c69190616d54565b611629565b6040516104e39c9b9a9998979695949392919061766a565b60405180910390f35b61050660048036038101906105019190616c29565b61173e565b005b610522600480360381019061051d9190616a69565b6117fe565b60405161052f9190617cac565b60405180910390f35b610552600480360381019061054d9190616de2565b611823565b005b61055c611c54565b6040516105699190617cac565b60405180910390f35b61058c60048036038101906105879190616bed565b611c5a565b005b6105a860048036038101906105a39190616eba565b611d1b565b005b6105b2612032565b6040516105bf9190617cac565b60405180910390f35b6105e260048036038101906105dd9190616eba565b612038565b6040516105ef9190617cac565b60405180910390f35b610612600480360381019061060d9190616eba565b612069565b60405161061f91906175ef565b60405180910390f35b610642600480360381019061063d9190616d54565b612430565b005b61065e60048036038101906106599190616d54565b6124b6565b005b61067a60048036038101906106759190616eba565b61253c565b005b610684612592565b60405161069191906177f9565b60405180910390f35b6106b460048036038101906106af9190616c29565b6125b8565b005b6106d060048036038101906106cb9190616d54565b612678565b005b6106da6126fe565b6040516106e79190617814565b60405180910390f35b61070a60048036038101906107059190616a69565b612724565b6040516107179190617cac565b60405180910390f35b610728612755565b005b6107326127dd565b60405161073f9190617cac565b60405180910390f35b610762600480360381019061075d9190616eba565b6127e3565b005b61077e60048036038101906107799190616d54565b612bf4565b60405161078b91906177c3565b60405180910390f35b6107ae60048036038101906107a99190616d54565b612c16565b005b6107ca60048036038101906107c59190616c29565b612c9c565b005b6107e660048036038101906107e19190616a69565b612d5c565b6040516107f39190617cac565b60405180910390f35b610804612d8d565b60405161081191906175ef565b60405180910390f35b610834600480360381019061082f9190616d54565b612db6565b005b61083e612fc5565b60405161084b9190617cac565b60405180910390f35b61085c612fcb565b6040516108699190617cac565b60405180910390f35b61088c60048036038101906108879190616c29565b612fd1565b005b6108a860048036038101906108a39190616eba565b613091565b6040516108b692919061772b565b60405180910390f35b6108c76130f2565b6040516108d49190617cac565b60405180910390f35b6108f760048036038101906108f29190616b9b565b6130f8565b6040516109049190617cac565b60405180910390f35b61092760048036038101906109229190616e3a565b613116565b005b610943600480360381019061093e9190616b49565b61338d565b005b61095f600480360381019061095a9190616d54565b613426565b005b6109696134f0565b6040516109769190617cac565b60405180910390f35b61099960048036038101906109949190616d54565b6135c7565b6040516109a69190617cac565b60405180910390f35b6109c960048036038101906109c49190616d54565b613628565b6040516109dc9796959493929190617754565b60405180910390f35b6109ed6136aa565b6040516109fa91906177f9565b60405180910390f35b610a0b6136d0565b604051610a189190617cac565b60405180910390f35b610a3b6004803603810190610a369190616eba565b6136d6565b604051610a489190617cac565b60405180910390f35b610a59613707565b604051610a6691906177f9565b60405180910390f35b610a896004803603810190610a849190616d54565b61372d565b005b610aa56004803603810190610aa09190616da6565b6137b3565b604051610ab291906177c3565b60405180910390f35b610ad56004803603810190610ad09190616c52565b6137e2565b005b610adf6138a2565b604051610aec9190617cac565b60405180910390f35b610afd6138a8565b604051610b0a9190617cac565b60405180910390f35b610b2d6004803603810190610b289190616ef6565b6138ae565b005b610b496004803603810190610b449190616d54565b613c76565b005b610b656004803603810190610b609190616eba565b613d40565b604051610b7291906175ef565b60405180910390f35b610b83613d8e565b604051610b9091906177f9565b60405180910390f35b610bb36004803603810190610bae91906169c5565b613db4565b005b610bcf6004803603810190610bca91906169c5565b613eac565b005b610beb6004803603810190610be69190616d54565b613f6c565b005b610bf5614132565b604051610c02919061782f565b60405180910390f35b610c256004803603810190610c209190616ca4565b614158565b005b600860009054906101000a900473ffffffffffffffffffffffffffffffffffffffff1681565b6000601060008481526020019081526020016000209050806002015481600b015414610cae576040517f08c379a0000000000000000000000000000000000000000000000000000000008152600401610ca590617c4c565b60405180910390fd5b6000601460008581526020019081526020016000208381548110610cfb577f4e487b7100000000000000000000000000000000000000000000000000000000600052603260045260246000fd5b90600052602060002001549050610d10614602565b73ffffffffffffffffffffffffffffffffffffffff16600d600083815260200190815260200160002060020160009054906101000a900473ffffffffffffffffffffffffffffffffffffffff1673ffffffffffffffffffffffffffffffffffffffff16148015610d9657506000600d600083815260200190815260200160002060050154115b610dd5576040517f08c379a0000000000000000000000000000000000000000000000000000000008152600401610dcc90617aec565b60405180910390fd5b6000600d6000838152602001908152602001600020600401541415611036578160040160009054906101000a900460ff1615610f1857610e60612710610e52610e2d856003015461271061460a90919063ffffffff16565b600d60008681526020019081526020016000206003015461462090919063ffffffff16565b61463690919063ffffffff16565b600d600083815260200190815260200160002060040181905550610f13600d600083815260200190815260200160002060020160009054906101000a900473ffffffffffffffffffffffffffffffffffffffff16600d600084815260200190815260200160002060040154600360009054906101000a900473ffffffffffffffffffffffffffffffffffffffff1673ffffffffffffffffffffffffffffffffffffffff1661464c9092919063ffffffff16565b611035565b610f81612710610f73610f4e8560030154610f4060075461271061460a90919063ffffffff16565b61460a90919063ffffffff16565b600d60008681526020019081526020016000206003015461462090919063ffffffff16565b61463690919063ffffffff16565b600d600083815260200190815260200160002060040181905550611034600d600083815260200190815260200160002060020160009054906101000a900473ffffffffffffffffffffffffffffffffffffffff16600d600084815260200190815260200160002060040154600260009054906101000a900473ffffffffffffffffffffffffffffffffffffffff1673ffffffffffffffffffffffffffffffffffffffff1661464c9092919063ffffffff16565b5b5b50505050565b600660149054906101000a900460ff1681565b60006010600083815260200190815260200160002090508060000160009054906101000a900473ffffffffffffffffffffffffffffffffffffffff1673ffffffffffffffffffffffffffffffffffffffff166110a9614602565b73ffffffffffffffffffffffffffffffffffffffff161415806110d05750600081600b0154115b1561117357601b5481600901546110e79190617e48565b4211611128576040517f08c379a000000000000000000000000000000000000000000000000000000000815260040161111f9061792c565b60405180910390fd5b806002015481600b015410611172576040517f08c379a000000000000000000000000000000000000000000000000000000000815260040161116990617b4c565b60405180910390fd5b5b60008160090181905550600081600b018190555060006016600084815260200190815260200160002080549050905060005b818110156114ef576000601660008681526020019081526020016000206111e16001846111d29190617e48565b8561460a90919063ffffffff16565b81548110611218577f4e487b7100000000000000000000000000000000000000000000000000000000600052603260045260246000fd5b90600052602060002090600202016040518060400160405290816000820160009054906101000a900473ffffffffffffffffffffffffffffffffffffffff1673ffffffffffffffffffffffffffffffffffffffff1673ffffffffffffffffffffffffffffffffffffffff1681526020016001820154815250509050601660008681526020019081526020016000208054806112dc577f4e487b7100000000000000000000000000000000000000000000000000000000600052603160045260246000fd5b6001900381819060005260206000209060020201600080820160006101000a81549073ffffffffffffffffffffffffffffffffffffffff02191690556001820160009055505090558360040160009054906101000a900460ff161561140e57600360009054906101000a900473ffffffffffffffffffffffffffffffffffffffff1673ffffffffffffffffffffffffffffffffffffffff1663a9059cbb82600001516113998460200151886006015461462090919063ffffffff16565b6040518363ffffffff1660e01b81526004016113b692919061772b565b602060405180830381600087803b1580156113d057600080fd5b505af11580156113e4573d6000803e3d6000fd5b505050506040513d601f19601f820116820180604052508101906114089190616b72565b506114dd565b600260009054906101000a900473ffffffffffffffffffffffffffffffffffffffff1673ffffffffffffffffffffffffffffffffffffffff1663a9059cbb826000015161146c8460200151886006015461462090919063ffffffff16565b6040518363ffffffff1660e01b815260040161148992919061772b565b602060405180830381600087803b1580156114a357600080fd5b505af11580156114b7573d6000803e3d6000fd5b505050506040513d601f19601f820116820180604052508101906114db9190616b72565b505b50806114e8906182a5565b90506111a5565b507f16388e700c22580a369a4099aac059e3a39c1f5e360b69c481bd532106b468a0611519614602565b8460405161152892919061772b565b60405180910390a1505050565b600061154185856146d2565b905061154e818484614a8c565b5050505050565b61155d614602565b73ffffffffffffffffffffffffffffffffffffffff1661157b612d8d565b73ffffffffffffffffffffffffffffffffffffffff16146115d1576040517f08c379a00000000000000000000000000000000000000000000000000000000081526004016115c890617a4c565b60405180910390fd5b80600a60006101000a81548173ffffffffffffffffffffffffffffffffffffffff021916908373ffffffffffffffffffffffffffffffffffffffff16021790555050565b600063150b7a0260e01b9050949350505050565b60106020528060005260406000206000915090508060000160009054906101000a900473ffffffffffffffffffffffffffffffffffffffff169080600101805461167290618242565b80601f016020809104026020016040519081016040528092919081815260200182805461169e90618242565b80156116eb5780601f106116c0576101008083540402835291602001916116eb565b820191906000526020600020905b8154815290600101906020018083116116ce57829003601f168201915b5050505050908060020154908060030154908060040160009054906101000a900460ff169080600501549080600601549080600701549080600801549080600901549080600a01549080600b015490508c565b611746614602565b73ffffffffffffffffffffffffffffffffffffffff16611764612d8d565b73ffffffffffffffffffffffffffffffffffffffff16146117ba576040517f08c379a00000000000000000000000000000000000000000000000000000000081526004016117b190617a4c565b60405180910390fd5b80600260006101000a81548173ffffffffffffffffffffffffffffffffffffffff021916908373ffffffffffffffffffffffffffffffffffffffff16021790555050565b600f602052816000526040600020602052806000526040600020600091509150505481565b6000601060008581526020019081526020016000209050611842614602565b73ffffffffffffffffffffffffffffffffffffffff168160000160009054906101000a900473ffffffffffffffffffffffffffffffffffffffff1673ffffffffffffffffffffffffffffffffffffffff16146118d3576040517f08c379a00000000000000000000000000000000000000000000000000000000081526004016118ca9061794c565b60405180910390fd5b6118dc84612bf4565b1561191c576040517f08c379a000000000000000000000000000000000000000000000000000000000815260040161191390617a2c565b60405180910390fd5b60005b838390508110156119f157600160126000878152602001908152602001600020600086868581811061197a577f4e487b7100000000000000000000000000000000000000000000000000000000600052603260045260246000fd5b905060200201602081019061198f91906169c5565b73ffffffffffffffffffffffffffffffffffffffff1673ffffffffffffffffffffffffffffffffffffffff16815260200190815260200160002060006101000a81548160ff021916908315150217905550806119ea906182a5565b905061191f565b600090505b6013600086815260200190815260200160002080549050811015611c2a5760005b84849050811015611b2e57848482818110611a5b577f4e487b7100000000000000000000000000000000000000000000000000000000600052603260045260246000fd5b9050602002016020810190611a7091906169c5565b73ffffffffffffffffffffffffffffffffffffffff16601360008881526020019081526020016000208381548110611ad1577f4e487b7100000000000000000000000000000000000000000000000000000000600052603260045260246000fd5b9060005260206000200160009054906101000a900473ffffffffffffffffffffffffffffffffffffffff1673ffffffffffffffffffffffffffffffffffffffff161415611b1d57611b2e565b80611b27906182a5565b9050611a17565b84849050811415611c18576000601260008881526020019081526020016000206000601360008a81526020019081526020016000208581548110611b9b577f4e487b7100000000000000000000000000000000000000000000000000000000600052603260045260246000fd5b9060005260206000200160009054906101000a900473ffffffffffffffffffffffffffffffffffffffff1673ffffffffffffffffffffffffffffffffffffffff1673ffffffffffffffffffffffffffffffffffffffff16815260200190815260200160002060006101000a81548160ff0219169083151502179055505b5080611c23906182a5565b90506119f6565b8383601360008881526020019081526020016000209190611c4c92919061650c565b505050505050565b601b5481565b600660009054906101000a900473ffffffffffffffffffffffffffffffffffffffff1673ffffffffffffffffffffffffffffffffffffffff16611c9b614602565b73ffffffffffffffffffffffffffffffffffffffff1614611cf1576040517f08c379a0000000000000000000000000000000000000000000000000000000008152600401611ce8906179ec565b60405180910390fd5b600060156000848152602001908152602001600020600001549050611d168183614f11565b505050565b600660149054906101000a900460ff16611d735760018114611d72576040517f08c379a0000000000000000000000000000000000000000000000000000000008152600401611d69906179cc565b60405180910390fd5b5b60006010600084815260200190815260200160002090508060020154611da68383600b01546152d690919063ffffffff16565b1115611de7576040517f08c379a0000000000000000000000000000000000000000000000000000000008152600401611dde90617b8c565b60405180910390fd5b6000611e0083836006015461462090919063ffffffff16565b90508160040160009054906101000a900460ff1615611e7457611e6f611e24614602565b3083600360009054906101000a900473ffffffffffffffffffffffffffffffffffffffff1673ffffffffffffffffffffffffffffffffffffffff166152ec909392919063ffffffff16565b611ecb565b611eca611e7f614602565b3083600260009054906101000a900473ffffffffffffffffffffffffffffffffffffffff1673ffffffffffffffffffffffffffffffffffffffff166152ec909392919063ffffffff16565b5b611ed36165ac565b611edb614602565b816000019073ffffffffffffffffffffffffffffffffffffffff16908173ffffffffffffffffffffffffffffffffffffffff1681525050838160200181815250506016600086815260200190815260200160002081908060018154018082558091505060019003906000526020600020906002020160009091909190915060008201518160000160006101000a81548173ffffffffffffffffffffffffffffffffffffffff021916908373ffffffffffffffffffffffffffffffffffffffff160217905550602082015181600101555050611fc38484600b01546152d690919063ffffffff16565b83600b01819055506000611fe884600a0154856002015461460a90919063ffffffff16565b905060008190505b84600b01548110156120295761201887612013848461460a90919063ffffffff16565b615375565b80612022906182a5565b9050611ff0565b50505050505050565b60185481565b6017602052816000526040600020818154811061205457600080fd5b90600052602060002001600091509150505481565b600080601060008581526020019081526020016000209050806002015481600b0154101561209b57600091505061242a565b60008160020154905060006120af826135c7565b905060006120dd6001601760008a81526020019081526020016000208054905061460a90919063ffffffff16565b9050600060176000898152602001908152602001600020828154811061212c577f4e487b7100000000000000000000000000000000000000000000000000000000600052603260045260246000fd5b9060005260206000200154905061215e84612150838a6152d690919063ffffffff16565b6154b390919063ffffffff16565b96506000612175848961463690919063ffffffff16565b90506121a86001846121879190617e48565b61219a84846152d690919063ffffffff16565b6154b390919063ffffffff16565b90506000601760008b815260200190815260200160002082815481106121f7577f4e487b7100000000000000000000000000000000000000000000000000000000600052603260045260246000fd5b9060005260206000200154905060005b61221a868b6154b390919063ffffffff16565b81101561224057868261222d9190617e9e565b915080612239906182a5565b9050612207565b868261224c919061832e565b9150600090505b601660008c8152602001908152602001600020805490508110156123e057601660008c815260200190815260200160002081815481106122bc577f4e487b7100000000000000000000000000000000000000000000000000000000600052603260045260246000fd5b906000526020600020906002020160010154821061234357601660008c8152602001908152602001600020818154811061231f577f4e487b7100000000000000000000000000000000000000000000000000000000600052603260045260246000fd5b9060005260206000209060020201600101548261233c919061809a565b91506123cf565b601660008c8152602001908152602001600020818154811061238e577f4e487b7100000000000000000000000000000000000000000000000000000000600052603260045260246000fd5b906000526020600020906002020160000160009054906101000a900473ffffffffffffffffffffffffffffffffffffffff169850505050505050505061242a565b806123d9906182a5565b9050612253565b6000612421576040517f08c379a000000000000000000000000000000000000000000000000000000000815260040161241890617c6c565b60405180910390fd5b50505050505050505b92915050565b612438614602565b73ffffffffffffffffffffffffffffffffffffffff16612456612d8d565b73ffffffffffffffffffffffffffffffffffffffff16146124ac576040517f08c379a00000000000000000000000000000000000000000000000000000000081526004016124a390617a4c565b60405180910390fd5b80601b8190555050565b6124be614602565b73ffffffffffffffffffffffffffffffffffffffff166124dc612d8d565b73ffffffffffffffffffffffffffffffffffffffff1614612532576040517f08c379a000000000000000000000000000000000000000000000000000000000815260040161252990617a4c565b60405180910390fd5b8060078190555050565b6000600d600084815260200190815260200160002060020160009054906101000a900473ffffffffffffffffffffffffffffffffffffffff16905061258183836154c9565b61258d81846000615923565b505050565b600460009054906101000a900473ffffffffffffffffffffffffffffffffffffffff1681565b6125c0614602565b73ffffffffffffffffffffffffffffffffffffffff166125de612d8d565b73ffffffffffffffffffffffffffffffffffffffff1614612634576040517f08c379a000000000000000000000000000000000000000000000000000000000815260040161262b90617a4c565b60405180910390fd5b80600160006101000a81548173ffffffffffffffffffffffffffffffffffffffff021916908373ffffffffffffffffffffffffffffffffffffffff16021790555050565b612680614602565b73ffffffffffffffffffffffffffffffffffffffff1661269e612d8d565b73ffffffffffffffffffffffffffffffffffffffff16146126f4576040517f08c379a00000000000000000000000000000000000000000000000000000000081526004016126eb90617a4c565b60405180910390fd5b8060058190555050565b600660009054906101000a900473ffffffffffffffffffffffffffffffffffffffff1681565b600e602052816000526040600020818154811061274057600080fd5b90600052602060002001600091509150505481565b61275d614602565b73ffffffffffffffffffffffffffffffffffffffff1661277b612d8d565b73ffffffffffffffffffffffffffffffffffffffff16146127d1576040517f08c379a00000000000000000000000000000000000000000000000000000000081526004016127c890617a4c565b60405180910390fd5b6127db6000615ae3565b565b60055481565b6000601060008481526020019081526020016000209050806002015481600b015414612844576040517f08c379a000000000000000000000000000000000000000000000000000000000815260040161283b90617c4c565b60405180910390fd5b60006128508484612069565b905061285a614602565b73ffffffffffffffffffffffffffffffffffffffff168173ffffffffffffffffffffffffffffffffffffffff16146128c7576040517f08c379a00000000000000000000000000000000000000000000000000000000081526004016128be9061798c565b60405180910390fd5b6000601460008681526020019081526020016000208481548110612914577f4e487b7100000000000000000000000000000000000000000000000000000000600052603260045260246000fd5b9060005260206000200154905084600d60008381526020019081526020016000206005015414612979576040517f08c379a000000000000000000000000000000000000000000000000000000000815260040161297090617a0c565b60405180910390fd5b6000600d6000838152602001908152602001600020600401541415612bda578260040160009054906101000a900460ff1615612abc57612a046127106129f66129d1866003015461271061460a90919063ffffffff16565b600d60008681526020019081526020016000206003015461462090919063ffffffff16565b61463690919063ffffffff16565b600d600083815260200190815260200160002060040181905550612ab7600d600083815260200190815260200160002060020160009054906101000a900473ffffffffffffffffffffffffffffffffffffffff16600d600084815260200190815260200160002060040154600360009054906101000a900473ffffffffffffffffffffffffffffffffffffffff1673ffffffffffffffffffffffffffffffffffffffff1661464c9092919063ffffffff16565b612bd9565b612b25612710612b17612af28660030154612ae460075461271061460a90919063ffffffff16565b61460a90919063ffffffff16565b600d60008681526020019081526020016000206003015461462090919063ffffffff16565b61463690919063ffffffff16565b600d600083815260200190815260200160002060040181905550612bd8600d600083815260200190815260200160002060020160009054906101000a900473ffffffffffffffffffffffffffffffffffffffff16600d600084815260200190815260200160002060040154600260009054906101000a900473ffffffffffffffffffffffffffffffffffffffff1673ffffffffffffffffffffffffffffffffffffffff1661464c9092919063ffffffff16565b5b5b612bed612be5614602565b826001615923565b5050505050565b6000806010600084815260200190815260200160002060090154119050919050565b612c1e614602565b73ffffffffffffffffffffffffffffffffffffffff16612c3c612d8d565b73ffffffffffffffffffffffffffffffffffffffff1614612c92576040517f08c379a0000000000000000000000000000000000000000000000000000000008152600401612c8990617a4c565b60405180910390fd5b80601a8190555050565b612ca4614602565b73ffffffffffffffffffffffffffffffffffffffff16612cc2612d8d565b73ffffffffffffffffffffffffffffffffffffffff1614612d18576040517f08c379a0000000000000000000000000000000000000000000000000000000008152600401612d0f90617a4c565b60405180910390fd5b80600360006101000a81548173ffffffffffffffffffffffffffffffffffffffff021916908373ffffffffffffffffffffffffffffffffffffffff16021790555050565b60116020528160005260406000208181548110612d7857600080fd5b90600052602060002001600091509150505481565b60008060009054906101000a900473ffffffffffffffffffffffffffffffffffffffff16905090565b60006010600083815260200190815260200160002090508060000160009054906101000a900473ffffffffffffffffffffffffffffffffffffffff1673ffffffffffffffffffffffffffffffffffffffff16612e10614602565b73ffffffffffffffffffffffffffffffffffffffff1614612e66576040517f08c379a0000000000000000000000000000000000000000000000000000000008152600401612e5d906178cc565b60405180910390fd5b806002015481600b015414612eb0576040517f08c379a0000000000000000000000000000000000000000000000000000000008152600401612ea790617c4c565b60405180910390fd5b8060040160009054906101000a900460ff1615612f4157612f3c8160000160009054906101000a900473ffffffffffffffffffffffffffffffffffffffff168260080154600360009054906101000a900473ffffffffffffffffffffffffffffffffffffffff1673ffffffffffffffffffffffffffffffffffffffff1661464c9092919063ffffffff16565b612fb7565b612fb68160000160009054906101000a900473ffffffffffffffffffffffffffffffffffffffff168260080154600260009054906101000a900473ffffffffffffffffffffffffffffffffffffffff1673ffffffffffffffffffffffffffffffffffffffff1661464c9092919063ffffffff16565b5b600081600801819055505050565b60095481565b60075481565b612fd9614602565b73ffffffffffffffffffffffffffffffffffffffff16612ff7612d8d565b73ffffffffffffffffffffffffffffffffffffffff161461304d576040517f08c379a000000000000000000000000000000000000000000000000000000000815260040161304490617a4c565b60405180910390fd5b80600460006101000a81548173ffffffffffffffffffffffffffffffffffffffff021916908373ffffffffffffffffffffffffffffffffffffffff16021790555050565b601660205281600052604060002081815481106130ad57600080fd5b9060005260206000209060020201600091509150508060000160009054906101000a900473ffffffffffffffffffffffffffffffffffffffff16908060010154905082565b601a5481565b60156020528060005260406000206000915090508060000154905081565b6000601060008781526020019081526020016000209050613135614602565b73ffffffffffffffffffffffffffffffffffffffff168160000160009054906101000a900473ffffffffffffffffffffffffffffffffffffffff1673ffffffffffffffffffffffffffffffffffffffff16146131c6576040517f08c379a00000000000000000000000000000000000000000000000000000000081526004016131bd90617a8c565b60405180910390fd5b600060146000888152602001908152602001600020805490509050601a54811015613226576040517f08c379a000000000000000000000000000000000000000000000000000000000815260040161321d90617bcc565b60405180910390fd5b80826002018190555061326b8161325d61324a60018561460a90919063ffffffff16565b85600501546152d690919063ffffffff16565b61463690919063ffffffff16565b82600601819055504282600901819055506000613287826135c7565b905060006132c3826132b560016132a786886152d690919063ffffffff16565b61460a90919063ffffffff16565b61463690919063ffffffff16565b905060006005541180156133265750600073ffffffffffffffffffffffffffffffffffffffff16600660009054906101000a900473ffffffffffffffffffffffffffffffffffffffff1673ffffffffffffffffffffffffffffffffffffffff1614155b15613339576133388189898989615ba7565b5b8084600a01819055507f0fb50fd15975b445dd2f5c6399d672279fac7104f3e90eb1a23a7cd3f9c3196c61336b614602565b8a60405161337a92919061772b565b60405180910390a1505050505050505050565b613395614602565b73ffffffffffffffffffffffffffffffffffffffff166133b3612d8d565b73ffffffffffffffffffffffffffffffffffffffff1614613409576040517f08c379a000000000000000000000000000000000000000000000000000000000815260040161340090617a4c565b60405180910390fd5b80600660146101000a81548160ff02191690831515021790555050565b61342e614602565b73ffffffffffffffffffffffffffffffffffffffff1661344c612d8d565b73ffffffffffffffffffffffffffffffffffffffff16146134a2576040517f08c379a000000000000000000000000000000000000000000000000000000000815260040161349990617a4c565b60405180910390fd5b60195481106134e6576040517f08c379a00000000000000000000000000000000000000000000000000000000081526004016134dd90617c0c565b60405180910390fd5b8060188190555050565b600043426134fc614602565b60405160200161350c9190617587565b6040516020818303038152906040528051906020012060001c61352f9190617e9e565b45424160405160200161354291906175a2565b6040516020818303038152906040528051906020012060001c6135659190617e9e565b44426135719190617e48565b61357b9190617e48565b6135859190617e48565b61358f9190617e48565b6135999190617e48565b6040516020016135a991906175d4565b6040516020818303038152906040528051906020012060001c905090565b600080600090505b827fffffffffffffffffffffffffffffffffffffffffffffffffffffffffffffffff6135fb9190617e9e565b81846136079190617f22565b1161361f578080613617906182a5565b9150506135cf565b80915050919050565b600d6020528060005260406000206000915090508060000160009054906101000a900473ffffffffffffffffffffffffffffffffffffffff16908060010154908060020160009054906101000a900473ffffffffffffffffffffffffffffffffffffffff16908060030154908060040154908060050154908060060154905087565b600260009054906101000a900473ffffffffffffffffffffffffffffffffffffffff1681565b600b5481565b601460205281600052604060002081815481106136f257600080fd5b90600052602060002001600091509150505481565b600360009054906101000a900473ffffffffffffffffffffffffffffffffffffffff1681565b613735614602565b73ffffffffffffffffffffffffffffffffffffffff16613753612d8d565b73ffffffffffffffffffffffffffffffffffffffff16146137a9576040517f08c379a00000000000000000000000000000000000000000000000000000000081526004016137a090617a4c565b60405180910390fd5b8060098190555050565b60126020528160005260406000206020528060005260406000206000915091509054906101000a900460ff1681565b6137ea614602565b73ffffffffffffffffffffffffffffffffffffffff16613808612d8d565b73ffffffffffffffffffffffffffffffffffffffff161461385e576040517f08c379a000000000000000000000000000000000000000000000000000000000815260040161385590617a4c565b60405180910390fd5b80600660006101000a81548173ffffffffffffffffffffffffffffffffffffffff021916908373ffffffffffffffffffffffffffffffffffffffff16021790555050565b60195481565b600c5481565b60006010600084815260200190815260200160002090506138cd614602565b73ffffffffffffffffffffffffffffffffffffffff168160000160009054906101000a900473ffffffffffffffffffffffffffffffffffffffff1673ffffffffffffffffffffffffffffffffffffffff161480613992575061392d614602565b73ffffffffffffffffffffffffffffffffffffffff16600d600086815260200190815260200160002060020160009054906101000a900473ffffffffffffffffffffffffffffffffffffffff1673ffffffffffffffffffffffffffffffffffffffff16145b6139d1576040517f08c379a00000000000000000000000000000000000000000000000000000000081526004016139c890617bac565b60405180910390fd5b60185482101580156139e557506019548211155b613a24576040517f08c379a0000000000000000000000000000000000000000000000000000000008152600401613a1b90617b0c565b60405180910390fd5b82600d60008681526020019081526020016000206005015414613a7c576040517f08c379a0000000000000000000000000000000000000000000000000000000008152600401613a7390617bec565b60405180910390fd5b613a8583612bf4565b15613ac5576040517f08c379a0000000000000000000000000000000000000000000000000000000008152600401613abc90617a2c565b60405180910390fd5b613b04600d600086815260200190815260200160002060030154613af68484600501546152d690919063ffffffff16565b61460a90919063ffffffff16565b81600501819055508060040160009054906101000a900460ff16613bba57613bb1613b64612710613b56600754600d60008a81526020019081526020016000206003015461462090919063ffffffff16565b61463690919063ffffffff16565b613ba3613b90612710613b826007548861462090919063ffffffff16565b61463690919063ffffffff16565b84600701546152d690919063ffffffff16565b61460a90919063ffffffff16565b81600701819055505b613c4d613bfe612710613bf08460030154600d60008a81526020019081526020016000206003015461462090919063ffffffff16565b61463690919063ffffffff16565b613c3f613c2c612710613c1e86600301548861462090919063ffffffff16565b61463690919063ffffffff16565b84600801546152d690919063ffffffff16565b61460a90919063ffffffff16565b816008018190555081600d60008681526020019081526020016000206003018190555050505050565b613c7e614602565b73ffffffffffffffffffffffffffffffffffffffff16613c9c612d8d565b73ffffffffffffffffffffffffffffffffffffffff1614613cf2576040517f08c379a0000000000000000000000000000000000000000000000000000000008152600401613ce990617a4c565b60405180910390fd5b6018548111613d36576040517f08c379a0000000000000000000000000000000000000000000000000000000008152600401613d2d90617c0c565b60405180910390fd5b8060198190555050565b60136020528160005260406000208181548110613d5c57600080fd5b906000526020600020016000915091509054906101000a900473ffffffffffffffffffffffffffffffffffffffff1681565b600160009054906101000a900473ffffffffffffffffffffffffffffffffffffffff1681565b613dbc614602565b73ffffffffffffffffffffffffffffffffffffffff16613dda612d8d565b73ffffffffffffffffffffffffffffffffffffffff1614613e30576040517f08c379a0000000000000000000000000000000000000000000000000000000008152600401613e2790617a4c565b60405180910390fd5b600073ffffffffffffffffffffffffffffffffffffffff168173ffffffffffffffffffffffffffffffffffffffff161415613ea0576040517f08c379a0000000000000000000000000000000000000000000000000000000008152600401613e97906178ec565b60405180910390fd5b613ea981615ae3565b50565b613eb4614602565b73ffffffffffffffffffffffffffffffffffffffff16613ed2612d8d565b73ffffffffffffffffffffffffffffffffffffffff1614613f28576040517f08c379a0000000000000000000000000000000000000000000000000000000008152600401613f1f90617a4c565b60405180910390fd5b80600860006101000a81548173ffffffffffffffffffffffffffffffffffffffff021916908373ffffffffffffffffffffffffffffffffffffffff16021790555050565b600073ffffffffffffffffffffffffffffffffffffffff16600860009054906101000a900473ffffffffffffffffffffffffffffffffffffffff1673ffffffffffffffffffffffffffffffffffffffff161415613ffe576040517f08c379a0000000000000000000000000000000000000000000000000000000008152600401613ff59061786c565b60405180910390fd5b6000601060008381526020019081526020016000209050806002015481600b01541461405f576040517f08c379a000000000000000000000000000000000000000000000000000000000815260040161405690617c4c565b60405180910390fd5b8060040160009054906101000a900460ff16156140b1576040517f08c379a00000000000000000000000000000000000000000000000000000000081526004016140a890617a6c565b60405180910390fd5b614124600860009054906101000a900473ffffffffffffffffffffffffffffffffffffffff168260070154600260009054906101000a900473ffffffffffffffffffffffffffffffffffffffff1673ffffffffffffffffffffffffffffffffffffffff1661464c9092919063ffffffff16565b600081600701819055505050565b600a60009054906101000a900473ffffffffffffffffffffffffffffffffffffffff1681565b601a5485101561419d576040517f08c379a00000000000000000000000000000000000000000000000000000000081526004016141949061788c565b60405180910390fd5b6127106141b5600754866152d690919063ffffffff16565b106141f5576040517f08c379a00000000000000000000000000000000000000000000000000000000081526004016141ec906178ac565b60405180910390fd5b6000600954111561427257614271600860009054906101000a900473ffffffffffffffffffffffffffffffffffffffff16600954600360009054906101000a900473ffffffffffffffffffffffffffffffffffffffff1673ffffffffffffffffffffffffffffffffffffffff1661464c9092919063ffffffff16565b5b61427a6165dc565b614282614602565b816000019073ffffffffffffffffffffffffffffffffffffffff16908173ffffffffffffffffffffffffffffffffffffffff168152505087878080601f016020809104026020016040519081016040528093929190818152602001838380828437600081840152601f19601f820116905080830192505050505050508160200181905250858160400181815250508481606001818152505060008160a001818152505060008160c0018181525050838160800190151590811515815250506000816101200181815250506000614356616267565b9050816010600083815260200190815260200160002060008201518160000160006101000a81548173ffffffffffffffffffffffffffffffffffffffff021916908373ffffffffffffffffffffffffffffffffffffffff16021790555060208201518160010190805190602001906143cf929190616655565b50604082015181600201556060820151816003015560808201518160040160006101000a81548160ff02191690831515021790555060a0820151816005015560c0820151816006015560e082015181600701556101008201518160080155610120820151816009015561014082015181600a015561016082015181600b01559050506011600061445d614602565b73ffffffffffffffffffffffffffffffffffffffff1673ffffffffffffffffffffffffffffffffffffffff16815260200190815260200160002081908060018154018082558091505060019003906000526020600020016000909190919091505583836013600084815260200190815260200160002091906144e092919061650c565b5060005b848490508110156145b657600160126000848152602001908152602001600020600087878581811061453f577f4e487b7100000000000000000000000000000000000000000000000000000000600052603260045260246000fd5b905060200201602081019061455491906169c5565b73ffffffffffffffffffffffffffffffffffffffff1673ffffffffffffffffffffffffffffffffffffffff16815260200190815260200160002060006101000a81548160ff021916908315150217905550806145af906182a5565b90506144e4565b507f088eefe3007cf2e591f155448685cb291cdae4fff8202a0546c3a69968c2dba76145e0614602565b826040516145ef92919061772b565b60405180910390a1505050505050505050565b600033905090565b60008183614618919061809a565b905092915050565b6000818361462e9190618040565b905092915050565b600081836146449190617e9e565b905092915050565b6146cd8363a9059cbb60e01b848460405160240161466b92919061772b565b604051602081830303815290604052907bffffffffffffffffffffffffffffffffffffffffffffffffffffffff19166020820180517bffffffffffffffffffffffffffffffffffffffffffffffffffffffff8381831617835250505050616283565b505050565b60008273ffffffffffffffffffffffffffffffffffffffff166342842e0e6146f8614602565b30856040518463ffffffff1660e01b815260040161471893929190617633565b600060405180830381600087803b15801561473257600080fd5b505af1158015614746573d6000803e3d6000fd5b505050506147526166db565b83816000019073ffffffffffffffffffffffffffffffffffffffff16908173ffffffffffffffffffffffffffffffffffffffff16815250508281602001818152505061479c614602565b816040019073ffffffffffffffffffffffffffffffffffffffff16908173ffffffffffffffffffffffffffffffffffffffff168152505060008160a001818152505060008160c0018181525050600080600f60008773ffffffffffffffffffffffffffffffffffffffff1673ffffffffffffffffffffffffffffffffffffffff168152602001908152602001600020600086815260200190815260200160002054111561489b57600f60008673ffffffffffffffffffffffffffffffffffffffff1673ffffffffffffffffffffffffffffffffffffffff16815260200190815260200160002060008581526020019081526020016000205490506148fb565b6148a361634a565b905080600f60008773ffffffffffffffffffffffffffffffffffffffff1673ffffffffffffffffffffffffffffffffffffffff1681526020019081526020016000206000868152602001908152602001600020819055505b81600d600083815260200190815260200160002060008201518160000160006101000a81548173ffffffffffffffffffffffffffffffffffffffff021916908373ffffffffffffffffffffffffffffffffffffffff1602179055506020820151816001015560408201518160020160006101000a81548173ffffffffffffffffffffffffffffffffffffffff021916908373ffffffffffffffffffffffffffffffffffffffff160217905550606082015181600301556080820151816004015560a0820151816005015560c08201518160060155905050600e60006149de614602565b73ffffffffffffffffffffffffffffffffffffffff1673ffffffffffffffffffffffffffffffffffffffff1681526020019081526020016000208190806001815401808255809150506001900390600052602060002001600090919091909150557f6beb9379af630d855c59b605909537f26c1d38ef62bc6645e8741985d890fdb0614a68614602565b8686604051614a7993929190617633565b60405180910390a1809250505092915050565b6000601060008481526020019081526020016000209050614aab614602565b73ffffffffffffffffffffffffffffffffffffffff16600d600086815260200190815260200160002060020160009054906101000a900473ffffffffffffffffffffffffffffffffffffffff1673ffffffffffffffffffffffffffffffffffffffff1614614b4e576040517f08c379a0000000000000000000000000000000000000000000000000000000008152600401614b459061790c565b60405180910390fd5b614b56614602565b73ffffffffffffffffffffffffffffffffffffffff168160000160009054906101000a900473ffffffffffffffffffffffffffffffffffffffff1673ffffffffffffffffffffffffffffffffffffffff161480614c145750601260008481526020019081526020016000206000614bcb614602565b73ffffffffffffffffffffffffffffffffffffffff1673ffffffffffffffffffffffffffffffffffffffff16815260200190815260200160002060009054906101000a900460ff165b614c53576040517f08c379a0000000000000000000000000000000000000000000000000000000008152600401614c4a90617aac565b60405180910390fd5b6018548210158015614c6757506019548211155b614ca6576040517f08c379a0000000000000000000000000000000000000000000000000000000008152600401614c9d90617b0c565b60405180910390fd5b6000600d60008681526020019081526020016000206005015414614cff576040517f08c379a0000000000000000000000000000000000000000000000000000000008152600401614cf690617b2c565b60405180910390fd5b614d0883612bf4565b15614d48576040517f08c379a0000000000000000000000000000000000000000000000000000000008152600401614d3f90617a2c565b60405180910390fd5b8060020154601460008581526020019081526020016000208054905010614da4576040517f08c379a0000000000000000000000000000000000000000000000000000000008152600401614d9b906179ac565b60405180910390fd5b81600d60008681526020019081526020016000206003018190555082600d6000868152602001908152602001600020600501819055506014600084815260200190815260200160002080549050600d60008681526020019081526020016000206006018190555060146000848152602001908152602001600020849080600181540180825580915050600190039060005260206000200160009091909190915055614e5c8282600501546152d690919063ffffffff16565b81600501819055508060040160009054906101000a900460ff16614ec257614eb9614ea6612710614e986007548661462090919063ffffffff16565b61463690919063ffffffff16565b82600701546152d690919063ffffffff16565b81600701819055505b614f03614ef0612710614ee284600301548661462090919063ffffffff16565b61463690919063ffffffff16565b82600801546152d690919063ffffffff16565b816008018190555050505050565b60006010600084815260200190815260200160002060020154905060008167ffffffffffffffff811115614f6e577f4e487b7100000000000000000000000000000000000000000000000000000000600052604160045260246000fd5b604051908082528060200260200182016040528015614f9c5781602001602082028036833780820191505090505b509050600080600080614fae866135c7565b9050600092505b60176000898152602001908152602001600020805490508310156150ce5760176000898152602001908152602001600020838154811061501e577f4e487b7100000000000000000000000000000000000000000000000000000000600052603260045260246000fd5b90600052602060002001549350600091505b808210156150bd5760018561504e88876154b390919063ffffffff16565b81518110615085577f4e487b7100000000000000000000000000000000000000000000000000000000600052603260045260246000fd5b6020026020010190151590811515815250506150aa868561463690919063ffffffff16565b9350816150b6906182a5565b9150615030565b826150c7906182a5565b9250614fb5565b60009350600080615110615101601760008d8152602001908152602001600020805490508561462090919063ffffffff16565b8961460a90919063ffffffff16565b9050600094505b8285101561529057600081141561512d57615290565b615140818a6154b390919063ffffffff16565b9150615155818a61463690919063ffffffff16565b985061516b6001836152d690919063ffffffff16565b9150600093505b878410156151f5578684815181106151b3577f4e487b7100000000000000000000000000000000000000000000000000000000600052603260045260246000fd5b60200260200101516151d6576151d360018361460a90919063ffffffff16565b91505b60008214156151e4576151f5565b836151ee906182a5565b9350615172565b6001878581518110615230577f4e487b7100000000000000000000000000000000000000000000000000000000600052603260045260246000fd5b602002602001019015159081151581525050615267846152598a8961462090919063ffffffff16565b6152d690919063ffffffff16565b955061527d60018261460a90919063ffffffff16565b905084615289906182a5565b9450615117565b601760008b815260200190815260200160002086908060018154018082558091505060019003906000526020600020016000909190919091505550505050505050505050565b600081836152e49190617e48565b905092915050565b61536f846323b872dd60e01b85858560405160240161530d93929190617633565b604051602081830303815290604052907bffffffffffffffffffffffffffffffffffffffffffffffffffffffff19166020820180517bffffffffffffffffffffffffffffffffffffffffffffffffffffffff8381831617835250505050616283565b50505050565b600073ffffffffffffffffffffffffffffffffffffffff16600660009054906101000a900473ffffffffffffffffffffffffffffffffffffffff1673ffffffffffffffffffffffffffffffffffffffff161461549d576000600660009054906101000a900473ffffffffffffffffffffffffffffffffffffffff1673ffffffffffffffffffffffffffffffffffffffff16637363ae1f836040518263ffffffff1660e01b81526004016154289190617cac565b602060405180830381600087803b15801561544257600080fd5b505af1158015615456573d6000803e3d6000fd5b505050506040513d601f19601f8201168201806040525081019061547a9190616bc4565b9050826015600083815260200190815260200160002060000181905550506154af565b6154ae826154a96134f0565b614f11565b5b5050565b600081836154c1919061832e565b905092915050565b60006010600083815260200190815260200160002090506154e8614602565b73ffffffffffffffffffffffffffffffffffffffff16600d600085815260200190815260200160002060020160009054906101000a900473ffffffffffffffffffffffffffffffffffffffff1673ffffffffffffffffffffffffffffffffffffffff1614806155ad575061555a614602565b73ffffffffffffffffffffffffffffffffffffffff168160000160009054906101000a900473ffffffffffffffffffffffffffffffffffffffff1673ffffffffffffffffffffffffffffffffffffffff16145b6155ec576040517f08c379a00000000000000000000000000000000000000000000000000000000081526004016155e390617acc565b60405180910390fd5b81600d60008581526020019081526020016000206005015414615644576040517f08c379a000000000000000000000000000000000000000000000000000000000815260040161563b90617bec565b60405180910390fd5b61564d82612bf4565b1561568d576040517f08c379a000000000000000000000000000000000000000000000000000000000815260040161568490617a2c565b60405180910390fd5b6156ba600d600085815260200190815260200160002060030154826005015461460a90919063ffffffff16565b81600501819055508060040160009054906101000a900460ff166157365761572d61571a61271061570c600754600d60008981526020019081526020016000206003015461462090919063ffffffff16565b61463690919063ffffffff16565b826007015461460a90919063ffffffff16565b81600701819055505b61578d61577a61271061576c8460030154600d60008981526020019081526020016000206003015461462090919063ffffffff16565b61463690919063ffffffff16565b826008015461460a90919063ffffffff16565b81600801819055506000600d6000858152602001908152602001600020600501819055506000600d600085815260200190815260200160002060060154905060006014600085815260200190815260200160002060016014600087815260200190815260200160002080549050615804919061809a565b8154811061583b577f4e487b7100000000000000000000000000000000000000000000000000000000600052603260045260246000fd5b9060005260206000200154905080601460008681526020019081526020016000208381548110615894577f4e487b7100000000000000000000000000000000000000000000000000000000600052603260045260246000fd5b906000526020600020018190555081600d60008381526020019081526020016000206006018190555060146000858152602001908152602001600020805480615906577f4e487b7100000000000000000000000000000000000000000000000000000000600052603160045260246000fd5b600190038181906000526020600020016000905590555050505050565b6000600d600084815260200190815260200160002060020160006101000a81548173ffffffffffffffffffffffffffffffffffffffff021916908373ffffffffffffffffffffffffffffffffffffffff1602179055506000600d6000848152602001908152602001600020600501819055506000600d600084815260200190815260200160002060000160009054906101000a900473ffffffffffffffffffffffffffffffffffffffff1690506000600d60008581526020019081526020016000206001015490508173ffffffffffffffffffffffffffffffffffffffff166342842e0e3087846040518463ffffffff1660e01b8152600401615a2893929190617633565b600060405180830381600087803b158015615a4257600080fd5b505af1158015615a56573d6000803e3d6000fd5b505050508215615aa0577f9015147cc5b246cd381a48b371f78238cbd819ee8fe369d7c077d28d96724c51858383604051615a9393929190617633565b60405180910390a1615adc565b7fb072771ef078d0df5c946e8bf51bf87fbfb3beb54a70e74964bb1c278999e1f5858383604051615ad393929190617633565b60405180910390a15b5050505050565b60008060009054906101000a900473ffffffffffffffffffffffffffffffffffffffff169050816000806101000a81548173ffffffffffffffffffffffffffffffffffffffff021916908373ffffffffffffffffffffffffffffffffffffffff1602179055508173ffffffffffffffffffffffffffffffffffffffff168173ffffffffffffffffffffffffffffffffffffffff167f8be0079c531659141344cd1fd0a4f28419497f9722a3daafe3b4186f6b6457e060405160405180910390a35050565b600460009054906101000a900473ffffffffffffffffffffffffffffffffffffffff1673ffffffffffffffffffffffffffffffffffffffff168484615bf960018888905061460a90919063ffffffff16565b818110615c2f577f4e487b7100000000000000000000000000000000000000000000000000000000600052603260045260246000fd5b9050602002016020810190615c4491906169c5565b73ffffffffffffffffffffffffffffffffffffffff1614615c9a576040517f08c379a0000000000000000000000000000000000000000000000000000000008152600401615c9190617c8c565b60405180910390fd5b6000615cb18660055461462090919063ffffffff16565b90506001858590501415615d9f57600460009054906101000a900473ffffffffffffffffffffffffffffffffffffffff1673ffffffffffffffffffffffffffffffffffffffff166323b872dd615d05614602565b600660009054906101000a900473ffffffffffffffffffffffffffffffffffffffff16846040518463ffffffff1660e01b8152600401615d4793929190617633565b602060405180830381600087803b158015615d6157600080fd5b505af1158015615d75573d6000803e3d6000fd5b505050506040513d601f19601f82011682018060405250810190615d999190616b72565b5061625f565b8285856000818110615dda577f4e487b7100000000000000000000000000000000000000000000000000000000600052603260045260246000fd5b9050602002016020810190615def91906169c5565b73ffffffffffffffffffffffffffffffffffffffff1663dd62ed3e30600a60009054906101000a900473ffffffffffffffffffffffffffffffffffffffff166040518363ffffffff1660e01b8152600401615e4b92919061760a565b60206040518083038186803b158015615e6357600080fd5b505afa158015615e77573d6000803e3d6000fd5b505050506040513d601f19601f82011682018060405250810190615e9b9190616d7d565b1015615fa05784846000818110615edb577f4e487b7100000000000000000000000000000000000000000000000000000000600052603260045260246000fd5b9050602002016020810190615ef091906169c5565b73ffffffffffffffffffffffffffffffffffffffff1663095ea7b3600a60009054906101000a900473ffffffffffffffffffffffffffffffffffffffff16856040518363ffffffff1660e01b8152600401615f4c92919061772b565b602060405180830381600087803b158015615f6657600080fd5b505af1158015615f7a573d6000803e3d6000fd5b505050506040513d601f19601f82011682018060405250810190615f9e9190616b72565b505b6000600a60009054906101000a900473ffffffffffffffffffffffffffffffffffffffff1673ffffffffffffffffffffffffffffffffffffffff16631f00ca748388886040518463ffffffff1660e01b815260040161600193929190617cc7565b60006040518083038186803b15801561601957600080fd5b505afa15801561602d573d6000803e3d6000fd5b505050506040513d6000823e3d601f19601f820116820180604052508101906160569190616b08565b905085856000818110616092577f4e487b7100000000000000000000000000000000000000000000000000000000600052603260045260246000fd5b90506020020160208101906160a791906169c5565b73ffffffffffffffffffffffffffffffffffffffff166323b872dd6160ca614602565b3084600081518110616105577f4e487b7100000000000000000000000000000000000000000000000000000000600052603260045260246000fd5b60200260200101516040518463ffffffff1660e01b815260040161612b93929190617633565b602060405180830381600087803b15801561614557600080fd5b505af1158015616159573d6000803e3d6000fd5b505050506040513d601f19601f8201168201806040525081019061617d9190616b72565b50600a60009054906101000a900473ffffffffffffffffffffffffffffffffffffffff1673ffffffffffffffffffffffffffffffffffffffff16638803dbee83868989600660009054906101000a900473ffffffffffffffffffffffffffffffffffffffff16896040518763ffffffff1660e01b815260040161620596959493929190617cf9565b600060405180830381600087803b15801561621f57600080fd5b505af1158015616233573d6000803e3d6000fd5b505050506040513d6000823e3d601f19601f8201168201806040525081019061625c9190616b08565b50505b505050505050565b6000600c60008154616278906182a5565b919050819055905090565b60006162e5826040518060400160405280602081526020017f5361666545524332303a206c6f772d6c6576656c2063616c6c206661696c65648152508573ffffffffffffffffffffffffffffffffffffffff166163669092919063ffffffff16565b905060008151111561634557808060200190518101906163059190616b72565b616344576040517f08c379a000000000000000000000000000000000000000000000000000000000815260040161633b90617c2c565b60405180910390fd5b5b505050565b6000600b6000815461635b906182a5565b919050819055905090565b6060616375848460008561637e565b90509392505050565b6060824710156163c3576040517f08c379a00000000000000000000000000000000000000000000000000000000081526004016163ba9061796c565b60405180910390fd5b6163cc85616492565b61640b576040517f08c379a000000000000000000000000000000000000000000000000000000000815260040161640290617b6c565b60405180910390fd5b6000808673ffffffffffffffffffffffffffffffffffffffff16858760405161643491906175bd565b60006040518083038185875af1925050503d8060008114616471576040519150601f19603f3d011682016040523d82523d6000602084013e616476565b606091505b50915091506164868282866164a5565b92505050949350505050565b600080823b905060008111915050919050565b606083156164b557829050616505565b6000835111156164c85782518084602001fd5b816040517f08c379a00000000000000000000000000000000000000000000000000000000081526004016164fc919061784a565b60405180910390fd5b9392505050565b82805482825590600052602060002090810192821561659b579160200282015b8281111561659a57823573ffffffffffffffffffffffffffffffffffffffff168260006101000a81548173ffffffffffffffffffffffffffffffffffffffff021916908373ffffffffffffffffffffffffffffffffffffffff1602179055509160200191906001019061652c565b5b5090506165a89190616744565b5090565b6040518060400160405280600073ffffffffffffffffffffffffffffffffffffffff168152602001600081525090565b604051806101800160405280600073ffffffffffffffffffffffffffffffffffffffff168152602001606081526020016000815260200160008152602001600015158152602001600081526020016000815260200160008152602001600081526020016000815260200160008152602001600081525090565b82805461666190618242565b90600052602060002090601f01602090048101928261668357600085556166ca565b82601f1061669c57805160ff19168380011785556166ca565b828001600101855582156166ca579182015b828111156166c95782518255916020019190600101906166ae565b5b5090506166d79190616744565b5090565b6040518060e00160405280600073ffffffffffffffffffffffffffffffffffffffff16815260200160008152602001600073ffffffffffffffffffffffffffffffffffffffff168152602001600081526020016000815260200160008152602001600081525090565b5b8082111561675d576000816000905550600101616745565b5090565b600061677461676f84617d7a565b617d55565b9050808382526020820190508285602086028201111561679357600080fd5b60005b858110156167c357816167a988826169b0565b845260208401935060208301925050600181019050616796565b5050509392505050565b60006167e06167db84617da6565b617d55565b9050828152602081018484840111156167f857600080fd5b616803848285618200565b509392505050565b60008135905061681a81618ac2565b92915050565b60008083601f84011261683257600080fd5b8235905067ffffffffffffffff81111561684b57600080fd5b60208301915083602082028301111561686357600080fd5b9250929050565b600082601f83011261687b57600080fd5b815161688b848260208601616761565b91505092915050565b6000813590506168a381618ad9565b92915050565b6000815190506168b881618ad9565b92915050565b6000813590506168cd81618af0565b92915050565b6000815190506168e281618af0565b92915050565b600082601f8301126168f957600080fd5b81356169098482602086016167cd565b91505092915050565b60008135905061692181618b07565b92915050565b60008135905061693681618b1e565b92915050565b60008135905061694b81618b35565b92915050565b60008083601f84011261696357600080fd5b8235905067ffffffffffffffff81111561697c57600080fd5b60208301915083600182028301111561699457600080fd5b9250929050565b6000813590506169aa81618b4c565b92915050565b6000815190506169bf81618b4c565b92915050565b6000602082840312156169d757600080fd5b60006169e58482850161680b565b91505092915050565b60008060008060808587031215616a0457600080fd5b6000616a128782880161680b565b9450506020616a238782880161680b565b9350506040616a348782880161699b565b925050606085013567ffffffffffffffff811115616a5157600080fd5b616a5d878288016168e8565b91505092959194509250565b60008060408385031215616a7c57600080fd5b6000616a8a8582860161680b565b9250506020616a9b8582860161699b565b9150509250929050565b60008060008060808587031215616abb57600080fd5b6000616ac98782880161680b565b9450506020616ada8782880161699b565b9350506040616aeb8782880161699b565b9250506060616afc8782880161699b565b91505092959194509250565b600060208284031215616b1a57600080fd5b600082015167ffffffffffffffff811115616b3457600080fd5b616b408482850161686a565b91505092915050565b600060208284031215616b5b57600080fd5b6000616b6984828501616894565b91505092915050565b600060208284031215616b8457600080fd5b6000616b92848285016168a9565b91505092915050565b600060208284031215616bad57600080fd5b6000616bbb848285016168be565b91505092915050565b600060208284031215616bd657600080fd5b6000616be4848285016168d3565b91505092915050565b60008060408385031215616c0057600080fd5b6000616c0e858286016168be565b9250506020616c1f8582860161699b565b9150509250929050565b600060208284031215616c3b57600080fd5b6000616c4984828501616912565b91505092915050565b600060208284031215616c6457600080fd5b6000616c7284828501616927565b91505092915050565b600060208284031215616c8d57600080fd5b6000616c9b8482850161693c565b91505092915050565b600080600080600080600060a0888a031215616cbf57600080fd5b600088013567ffffffffffffffff811115616cd957600080fd5b616ce58a828b01616951565b97509750506020616cf88a828b0161699b565b9550506040616d098a828b0161699b565b9450506060616d1a8a828b01616894565b935050608088013567ffffffffffffffff811115616d3757600080fd5b616d438a828b01616820565b925092505092959891949750929550565b600060208284031215616d6657600080fd5b6000616d748482850161699b565b91505092915050565b600060208284031215616d8f57600080fd5b6000616d9d848285016169b0565b91505092915050565b60008060408385031215616db957600080fd5b6000616dc78582860161699b565b9250506020616dd88582860161680b565b9150509250929050565b600080600060408486031215616df757600080fd5b6000616e058682870161699b565b935050602084013567ffffffffffffffff811115616e2257600080fd5b616e2e86828701616820565b92509250509250925092565b600080600080600060808688031215616e5257600080fd5b6000616e608882890161699b565b955050602086013567ffffffffffffffff811115616e7d57600080fd5b616e8988828901616820565b94509450506040616e9c8882890161699b565b9250506060616ead8882890161699b565b9150509295509295909350565b60008060408385031215616ecd57600080fd5b6000616edb8582860161699b565b9250506020616eec8582860161699b565b9150509250929050565b600080600060608486031215616f0b57600080fd5b6000616f198682870161699b565b9350506020616f2a8682870161699b565b9250506040616f3b8682870161699b565b9150509250925092565b6000616f518383616f74565b60208301905092915050565b616f6e616f69826180e0565b618300565b82525050565b616f7d816180ce565b82525050565b616f8c816180ce565b82525050565b616fa3616f9e826180ce565b6182ee565b82525050565b6000616fb58385617e04565b9350616fc082617dd7565b8060005b85811015616ff957616fd68284617e31565b616fe08882616f45565b9750616feb83617df7565b925050600181019050616fc4565b5085925050509392505050565b61700f816180f2565b82525050565b61701e81618108565b82525050565b600061702f82617de1565b6170398185617e15565b935061704981856020860161820f565b80840191505092915050565b61705e81618194565b82525050565b61706d816181b8565b82525050565b61707c816181dc565b82525050565b600061708d82617dec565b6170978185617e20565b93506170a781856020860161820f565b6170b08161841b565b840191505092915050565b60006170c8601683617e20565b91506170d382618446565b602082019050919050565b60006170eb600e83617e20565b91506170f68261846f565b602082019050919050565b600061710e601383617e20565b915061711982618498565b602082019050919050565b6000617131601683617e20565b915061713c826184c1565b602082019050919050565b6000617154602683617e20565b915061715f826184ea565b604082019050919050565b6000617177601683617e20565b915061718282618539565b602082019050919050565b600061719a600f83617e20565b91506171a582618562565b602082019050919050565b60006171bd601683617e20565b91506171c88261858b565b602082019050919050565b60006171e0602683617e20565b91506171eb826185b4565b604082019050919050565b6000617203601583617e20565b915061720e82618603565b602082019050919050565b6000617226600f83617e20565b91506172318261862c565b602082019050919050565b6000617249600f83617e20565b915061725482618655565b602082019050919050565b600061726c601a83617e20565b91506172778261867e565b602082019050919050565b600061728f600f83617e20565b915061729a826186a7565b602082019050919050565b60006172b2601c83617e20565b91506172bd826186d0565b602082019050919050565b60006172d5602083617e20565b91506172e0826186f9565b602082019050919050565b60006172f8602283617e20565b915061730382618722565b604082019050919050565b600061731b601683617e20565b915061732682618771565b602082019050919050565b600061733e602683617e20565b91506173498261879a565b604082019050919050565b6000617361602d83617e20565b915061736c826187e9565b604082019050919050565b6000617384600f83617e20565b915061738f82618838565b602082019050919050565b60006173a7601283617e20565b91506173b282618861565b602082019050919050565b60006173ca600d83617e20565b91506173d58261888a565b602082019050919050565b60006173ed600883617e20565b91506173f8826188b3565b602082019050919050565b6000617410601d83617e20565b915061741b826188dc565b602082019050919050565b6000617433600f83617e20565b915061743e82618905565b602082019050919050565b6000617456602383617e20565b91506174618261892e565b604082019050919050565b6000617479601083617e20565b91506174848261897d565b602082019050919050565b600061749c601583617e20565b91506174a7826189a6565b602082019050919050565b60006174bf601b83617e20565b91506174ca826189cf565b602082019050919050565b60006174e2602a83617e20565b91506174ed826189f8565b604082019050919050565b6000617505600c83617e20565b915061751082618a47565b602082019050919050565b6000617528600a83617e20565b915061753382618a70565b602082019050919050565b600061754b601783617e20565b915061755682618a99565b602082019050919050565b61756a8161818a565b82525050565b61758161757c8261818a565b618324565b82525050565b60006175938284616f92565b60148201915081905092915050565b60006175ae8284616f5d565b60148201915081905092915050565b60006175c98284617024565b915081905092915050565b60006175e08284617570565b60208201915081905092915050565b60006020820190506176046000830184616f83565b92915050565b600060408201905061761f6000830185616f83565b61762c6020830184616f83565b9392505050565b60006060820190506176486000830186616f83565b6176556020830185616f83565b6176626040830184617561565b949350505050565b600061018082019050617680600083018f616f83565b8181036020830152617692818e617082565b90506176a1604083018d617561565b6176ae606083018c617561565b6176bb608083018b617006565b6176c860a083018a617561565b6176d560c0830189617561565b6176e260e0830188617561565b6176f0610100830187617561565b6176fe610120830186617561565b61770c610140830185617561565b61771a610160830184617561565b9d9c50505050505050505050505050565b60006040820190506177406000830185616f83565b61774d6020830184617561565b9392505050565b600060e082019050617769600083018a616f83565b6177766020830189617561565b6177836040830188616f83565b6177906060830187617561565b61779d6080830186617561565b6177aa60a0830185617561565b6177b760c0830184617561565b98975050505050505050565b60006020820190506177d86000830184617006565b92915050565b60006020820190506177f36000830184617015565b92915050565b600060208201905061780e6000830184617055565b92915050565b60006020820190506178296000830184617064565b92915050565b60006020820190506178446000830184617073565b92915050565b600060208201905081810360008301526178648184617082565b905092915050565b60006020820190508181036000830152617885816170bb565b9050919050565b600060208201905081810360008301526178a5816170de565b9050919050565b600060208201905081810360008301526178c581617101565b9050919050565b600060208201905081810360008301526178e581617124565b9050919050565b6000602082019050818103600083015261790581617147565b9050919050565b600060208201905081810360008301526179258161716a565b9050919050565b600060208201905081810360008301526179458161718d565b9050919050565b60006020820190508181036000830152617965816171b0565b9050919050565b60006020820190508181036000830152617985816171d3565b9050919050565b600060208201905081810360008301526179a5816171f6565b9050919050565b600060208201905081810360008301526179c581617219565b9050919050565b600060208201905081810360008301526179e58161723c565b9050919050565b60006020820190508181036000830152617a058161725f565b9050919050565b60006020820190508181036000830152617a2581617282565b9050919050565b60006020820190508181036000830152617a45816172a5565b9050919050565b60006020820190508181036000830152617a65816172c8565b9050919050565b60006020820190508181036000830152617a85816172eb565b9050919050565b60006020820190508181036000830152617aa58161730e565b9050919050565b60006020820190508181036000830152617ac581617331565b9050919050565b60006020820190508181036000830152617ae581617354565b9050919050565b60006020820190508181036000830152617b0581617377565b9050919050565b60006020820190508181036000830152617b258161739a565b9050919050565b60006020820190508181036000830152617b45816173bd565b9050919050565b60006020820190508181036000830152617b65816173e0565b9050919050565b60006020820190508181036000830152617b8581617403565b9050919050565b60006020820190508181036000830152617ba581617426565b9050919050565b60006020820190508181036000830152617bc581617449565b9050919050565b60006020820190508181036000830152617be58161746c565b9050919050565b60006020820190508181036000830152617c058161748f565b9050919050565b60006020820190508181036000830152617c25816174b2565b9050919050565b60006020820190508181036000830152617c45816174d5565b9050919050565b60006020820190508181036000830152617c65816174f8565b9050919050565b60006020820190508181036000830152617c858161751b565b9050919050565b60006020820190508181036000830152617ca58161753e565b9050919050565b6000602082019050617cc16000830184617561565b92915050565b6000604082019050617cdc6000830186617561565b8181036020830152617cef818486616fa9565b9050949350505050565b600060a082019050617d0e6000830189617561565b617d1b6020830188617561565b8181036040830152617d2e818688616fa9565b9050617d3d6060830185616f83565b617d4a6080830184617561565b979650505050505050565b6000617d5f617d70565b9050617d6b8282618274565b919050565b6000604051905090565b600067ffffffffffffffff821115617d9557617d946183ec565b5b602082029050602081019050919050565b600067ffffffffffffffff821115617dc157617dc06183ec565b5b617dca8261841b565b9050602081019050919050565b6000819050919050565b600081519050919050565b600081519050919050565b6000602082019050919050565b600082825260208201905092915050565b600081905092915050565b600082825260208201905092915050565b6000617e40602084018461680b565b905092915050565b6000617e538261818a565b9150617e5e8361818a565b9250827fffffffffffffffffffffffffffffffffffffffffffffffffffffffffffffffff03821115617e9357617e9261835f565b5b828201905092915050565b6000617ea98261818a565b9150617eb48361818a565b925082617ec457617ec361838e565b5b828204905092915050565b6000808291508390505b6001851115617f1957808604811115617ef557617ef461835f565b5b6001851615617f045780820291505b8081029050617f1285618439565b9450617ed9565b94509492505050565b6000617f2d8261818a565b9150617f388361818a565b9250617f657fffffffffffffffffffffffffffffffffffffffffffffffffffffffffffffffff8484617f6d565b905092915050565b600082617f7d5760019050618039565b81617f8b5760009050618039565b8160018114617fa15760028114617fab57617fda565b6001915050618039565b60ff841115617fbd57617fbc61835f565b5b8360020a915084821115617fd457617fd361835f565b5b50618039565b5060208310610133831016604e8410600b841016171561800f5782820a90508381111561800a5761800961835f565b5b618039565b61801c8484846001617ecf565b925090508184048111156180335761803261835f565b5b81810290505b9392505050565b600061804b8261818a565b91506180568361818a565b9250817fffffffffffffffffffffffffffffffffffffffffffffffffffffffffffffffff048311821515161561808f5761808e61835f565b5b828202905092915050565b60006180a58261818a565b91506180b08361818a565b9250828210156180c3576180c261835f565b5b828203905092915050565b60006180d98261816a565b9050919050565b60006180eb8261816a565b9050919050565b60008115159050919050565b6000819050919050565b60007fffffffff0000000000000000000000000000000000000000000000000000000082169050919050565b600061813f826180ce565b9050919050565b6000618151826180ce565b9050919050565b6000618163826180ce565b9050919050565b600073ffffffffffffffffffffffffffffffffffffffff82169050919050565b6000819050919050565b600061819f826181a6565b9050919050565b60006181b18261816a565b9050919050565b60006181c3826181ca565b9050919050565b60006181d58261816a565b9050919050565b60006181e7826181ee565b9050919050565b60006181f98261816a565b9050919050565b82818337600083830152505050565b60005b8381101561822d578082015181840152602081019050618212565b8381111561823c576000848401525b50505050565b6000600282049050600182168061825a57607f821691505b6020821081141561826e5761826d6183bd565b5b50919050565b61827d8261841b565b810181811067ffffffffffffffff8211171561829c5761829b6183ec565b5b80604052505050565b60006182b08261818a565b91507fffffffffffffffffffffffffffffffffffffffffffffffffffffffffffffffff8214156182e3576182e261835f565b5b600182019050919050565b60006182f982618312565b9050919050565b600061830b82618312565b9050919050565b600061831d8261842c565b9050919050565b6000819050919050565b60006183398261818a565b91506183448361818a565b9250826183545761835361838e565b5b828206905092915050565b7f4e487b7100000000000000000000000000000000000000000000000000000000600052601160045260246000fd5b7f4e487b7100000000000000000000000000000000000000000000000000000000600052601260045260246000fd5b7f4e487b7100000000000000000000000000000000000000000000000000000000600052602260045260246000fd5b7f4e487b7100000000000000000000000000000000000000000000000000000000600052604160045260246000fd5b6000601f19601f8301169050919050565b60008160601b9050919050565b60008160011c9050919050565b7f506c656173652073657420666565546f20666972737400000000000000000000600082015250565b7f53697a6520746f6f20736d616c6c000000000000000000000000000000000000600082015250565b7f546f6f206d75636820636f6d6d697373696f6e00000000000000000000000000600082015250565b7f4f6e6c792063757261746f722063616e20636c61696d00000000000000000000600082015250565b7f4f776e61626c653a206e6577206f776e657220697320746865207a65726f206160008201527f6464726573730000000000000000000000000000000000000000000000000000602082015250565b7f4f6e6c79204e4654206f776e65722063616e2061646400000000000000000000600082015250565b7f4e6f742065787069726564207965740000000000000000000000000000000000600082015250565b7f4e6565647320636f6c6c656374696f6e206f776e657200000000000000000000600082015250565b7f416464726573733a20696e73756666696369656e742062616c616e636520666f60008201527f722063616c6c0000000000000000000000000000000000000000000000000000602082015250565b7f4f6e6c792077696e6e65722063616e20636c61696d0000000000000000000000600082015250565b7f636f6c6c656374696f6e2066756c6c0000000000000000000000000000000000600082015250565b7f43616e2064726177206f6e6c7920310000000000000000000000000000000000600082015250565b7f4f6e6c79206c696e6b4163636573736f722063616e2063616c6c000000000000600082015250565b7f416c726561647920636c61696d65640000000000000000000000000000000000600082015250565b7f436f6c6c656374696f6e20616c7265616479207075626c697368656400000000600082015250565b7f4f776e61626c653a2063616c6c6572206973206e6f7420746865206f776e6572600082015250565b7f4e6f20666565206966207468652063757261746f72206163636570747320424c60008201527f4553000000000000000000000000000000000000000000000000000000000000602082015250565b7f4f6e6c79206f776e65722063616e207075626c69736800000000000000000000600082015250565b7f4e6565647320636f6c6c656374696f6e206f776e6572206f7220636f6c6c616260008201527f6f7261746f720000000000000000000000000000000000000000000000000000602082015250565b7f4f6e6c79204e4654206f776e6572206f7220636f6c6c656374696f6e206f776e60008201527f65722063616e2072656d6f766500000000000000000000000000000000000000602082015250565b7f4e4654206e6f7420636c61696d65640000000000000000000000000000000000600082015250565b7f5072696365206e6f7420696e2072616e67650000000000000000000000000000600082015250565b7f416c726561647920616464656400000000000000000000000000000000000000600082015250565b7f536f6c64206f7574000000000000000000000000000000000000000000000000600082015250565b7f416464726573733a2063616c6c20746f206e6f6e2d636f6e7472616374000000600082015250565b7f4e6f7420656e6f756768206c6566740000000000000000000000000000000000600082015250565b7f4e6565647320636f6c6c656374696f6e206f776e6572206f72204e4654206f7760008201527f6e65720000000000000000000000000000000000000000000000000000000000602082015250565b7f4e6f7420656e6f75676820626f78657300000000000000000000000000000000600082015250565b7f4e4654206e6f7420696e20636f6c6c656374696f6e0000000000000000000000600082015250565b7f73686f756c6420626520686967686572207468616e20666c6f6f720000000000600082015250565b7f5361666545524332303a204552433230206f7065726174696f6e20646964206e60008201527f6f74207375636365656400000000000000000000000000000000000000000000602082015250565b7f4e6f742066696e69736865640000000000000000000000000000000000000000600082015250565b7f72206f766572666c6f7700000000000000000000000000000000000000000000600082015250565b7f4c61737420746f6b656e206d757374206265204c494e4b000000000000000000600082015250565b618acb816180ce565b8114618ad657600080fd5b50565b618ae2816180f2565b8114618aed57600080fd5b50565b618af9816180fe565b8114618b0457600080fd5b50565b618b1081618134565b8114618b1b57600080fd5b50565b618b2781618146565b8114618b3257600080fd5b50565b618b3e81618158565b8114618b4957600080fd5b50565b618b558161818a565b8114618b6057600080fd5b5056fea2646970667358221220f97f8de675347a7932e0a3c57bf2a687b19aeab2781ab307bbcb33c615daccf064736f6c63430008040033",
  "immutableReferences": {},
  "source": "// SPDX-License-Identifier: MIT\npragma solidity ^0.8.0;\n\nimport \"@openzeppelin/contracts/access/Ownable.sol\";\nimport \"@openzeppelin/contracts/utils/math/SafeMath.sol\";\nimport \"@openzeppelin/contracts/token/ERC20/IERC20.sol\";\nimport \"@openzeppelin/contracts/token/ERC20/utils/SafeERC20.sol\";\nimport \"@openzeppelin/contracts/token/ERC721/IERC721.sol\";\nimport \"@openzeppelin/contracts/token/ERC721/IERC721Receiver.sol\";\n\nimport \"./interfaces/ILinkAccessor.sol\";\nimport \"./interfaces/IUniswapV2Router02.sol\";\n\n// This contract is owned by Timelock.\ncontract MysteryBox is Ownable, IERC721Receiver {\n\n    using SafeERC20 for IERC20;\n    using SafeMath for uint256;\n\n    event CreateCollection(address _who, uint256 _collectionId);\n    event PublishCollection(address _who, uint256 _collectionId);\n    event UnpublishCollection(address _who, uint256 _collectionId);\n    event NFTDeposit(address _who, address _tokenAddress, uint256 _tokenId);\n    event NFTWithdraw(address _who, address _tokenAddress, uint256 _tokenId);\n    event NFTClaim(address _who, address _tokenAddress, uint256 _tokenId);\n\n    IERC20 public wETH;\n    IERC20 public baseToken;\n    IERC20 public blesToken;\n    IERC20 public linkToken;\n\n    uint256 public linkCost = 1e17;  // 0.1 LINK\n    ILinkAccessor public linkAccessor;\n\n    bool public canDrawMultiple = true;\n\n    // Platform fee.\n    uint256 constant FEE_BASE = 10000;\n    uint256 public feeRate = 500;  // 5%\n\n    address public feeTo;\n\n    // Collection creating fee.\n    uint256 public creatingFee = 0;  // By default, 0\n\n    IUniswapV2Router02 public router;\n\n    uint256 public nextNFTId;\n    uint256 public nextCollectionId;\n\n    struct NFT {\n        address tokenAddress;\n        uint256 tokenId;\n        address owner;\n        uint256 price;\n        uint256 paid;\n        uint256 collectionId;\n        uint256 indexInCollection;\n    }\n\n    // nftId => NFT\n    mapping(uint256 => NFT) public allNFTs;\n\n    // owner => nftId[]\n    mapping(address => uint256[]) public nftsByOwner;\n\n    // tokenAddress => tokenId => nftId\n    mapping(address => mapping(uint256 => uint256)) public nftIdMap;\n\n    struct Collection {\n        address owner;\n        string name;\n        uint256 size;\n        uint256 commissionRate;  // for curator (owner)\n        bool willAcceptBLES;\n\n        // The following are runtime variables before publish\n        uint256 totalPrice;\n        uint256 averagePrice;\n        uint256 fee;\n        uint256 commission;\n\n        // The following are runtime variables after publish\n        uint256 publishedAt;  // time that published.\n        uint256 timesToCall;\n        uint256 soldCount;\n    }\n\n    // collectionId => Collection\n    mapping(uint256 => Collection) public allCollections;\n\n    // owner => collectionId[]\n    mapping(address => uint256[]) public collectionsByOwner;\n\n    // collectionId => who => true/false\n    mapping(uint256 => mapping(address => bool)) public isCollaborator;\n\n    // collectionId => collaborators\n    mapping(uint256 => address[]) public collaborators;\n\n    // collectionId => nftId[]\n    mapping(uint256 => uint256[]) public nftsByCollectionId;\n\n    struct RequestInfo {\n        uint256 collectionId;\n    }\n\n    mapping(bytes32 => RequestInfo) public requestInfoMap;\n\n    struct Slot {\n        address owner;\n        uint256 size;\n    }\n\n    // collectionId => Slot[]\n    mapping(uint256 => Slot[]) public slotMap;\n\n    // collectionId => r[]\n    mapping(uint256 => uint256[]) public nftMapping;\n\n    uint256 public nftPriceFloor = 1e18;  // 1 USDC\n    uint256 public nftPriceCeil = 1e24;  // 1M USDC\n    uint256 public minimumCollectionSize = 3;  // 3 blind boxes\n    uint256 public maximumDuration = 14 days;  // Refund if not sold out in 14 days.\n\n    // constructor() public { }\n\n    function onERC721Received(address, address, uint256, bytes memory) public virtual override returns (bytes4) {\n        return this.onERC721Received.selector;\n    }\n\n    function setWETH(IERC20 wETH_) external onlyOwner {\n        wETH = wETH_;\n    }\n\n    function setLinkToken(IERC20 linkToken_) external onlyOwner {\n        linkToken = linkToken_;\n    }\n\n    function setBaseToken(IERC20 baseToken_) external onlyOwner {\n        baseToken = baseToken_;\n    }\n\n    function setBlesToken(IERC20 blesToken_) external onlyOwner {\n        blesToken = blesToken_;\n    }\n\n    function setLinkAccessor(ILinkAccessor linkAccessor_) external onlyOwner {\n        linkAccessor = linkAccessor_;\n    }\n\n    function setLinkCost(uint256 linkCost_) external onlyOwner {\n        linkCost = linkCost_;\n    }\n\n    function setCanDrawMultiple(bool value_) external onlyOwner {\n        canDrawMultiple = value_;\n    }\n\n    function setFeeRate(uint256 feeRate_) external onlyOwner {\n        feeRate = feeRate_;\n    }\n\n    function setFeeTo(address feeTo_) external onlyOwner {\n        feeTo = feeTo_;\n    }\n\n    function setCreatingFee(uint256 creatingFee_) external onlyOwner {\n        creatingFee = creatingFee_;\n    }\n\n    function setUniswapV2Router(IUniswapV2Router02 router_) external onlyOwner {\n        router = router_;\n    }\n\n    function setNFTPriceFloor(uint256 value_) external onlyOwner {\n        require(value_ < nftPriceCeil, \"should be higher than floor\");\n        nftPriceFloor = value_;\n    }\n\n    function setNFTPriceCeil(uint256 value_) external onlyOwner {\n        require(value_ > nftPriceFloor, \"should be higher than floor\");\n        nftPriceCeil = value_;\n    }\n\n    function setMinimumCollectionSize(uint256 size_) external onlyOwner {\n        minimumCollectionSize = size_;\n    }\n\n    function setMaximumDuration(uint256 maximumDuration_) external onlyOwner {\n        maximumDuration = maximumDuration_;\n    }\n\n    function _generateNextNFTId() private returns(uint256) {\n        return ++nextNFTId;\n    }\n\n    function _generateNextCollectionId() private returns(uint256) {\n        return ++nextCollectionId;\n    }\n\n    function _depositNFT(address tokenAddress_, uint256 tokenId_) private returns(uint256) {\n        IERC721(tokenAddress_).safeTransferFrom(_msgSender(), address(this), tokenId_);\n\n        NFT memory nft;\n        nft.tokenAddress = tokenAddress_;\n        nft.tokenId = tokenId_;\n        nft.owner = _msgSender();\n        nft.collectionId = 0;\n        nft.indexInCollection = 0;\n\n        uint256 nftId;\n\n        if (nftIdMap[tokenAddress_][tokenId_] > 0) {\n            nftId = nftIdMap[tokenAddress_][tokenId_];\n        } else {\n            nftId = _generateNextNFTId();\n            nftIdMap[tokenAddress_][tokenId_] = nftId;\n        }\n\n        allNFTs[nftId] = nft;\n        nftsByOwner[_msgSender()].push(nftId);\n\n        emit NFTDeposit(_msgSender(), tokenAddress_, tokenId_);\n        return nftId;\n    }\n\n    function _withdrawNFT(address who_, uint256 nftId_, bool isClaim_) private {\n        allNFTs[nftId_].owner = address(0);\n        allNFTs[nftId_].collectionId = 0;\n\n        address tokenAddress = allNFTs[nftId_].tokenAddress;\n        uint256 tokenId = allNFTs[nftId_].tokenId;\n\n        IERC721(tokenAddress).safeTransferFrom(address(this), who_, tokenId);\n\n        if (isClaim_) {\n            emit NFTClaim(who_, tokenAddress, tokenId);\n        } else {\n            emit NFTWithdraw(who_, tokenAddress, tokenId);\n        }\n    }\n\n    function claimNFT(uint256 collectionId_, uint256 index_) external {\n        Collection storage collection = allCollections[collectionId_];\n\n        require(collection.soldCount == collection.size, \"Not finished\");\n\n        address winner = getWinner(collectionId_, index_);\n\n        require(winner == _msgSender(), \"Only winner can claim\");\n\n        uint256 nftId = nftsByCollectionId[collectionId_][index_];\n\n        require(allNFTs[nftId].collectionId == collectionId_, \"Already claimed\");\n\n        if (allNFTs[nftId].paid == 0) {\n            if (collection.willAcceptBLES) {\n                allNFTs[nftId].paid = allNFTs[nftId].price.mul(\n                    FEE_BASE.sub(collection.commissionRate)).div(FEE_BASE);\n                IERC20(blesToken).safeTransfer(allNFTs[nftId].owner, allNFTs[nftId].paid);\n            } else {\n                allNFTs[nftId].paid = allNFTs[nftId].price.mul(\n                    FEE_BASE.sub(feeRate).sub(collection.commissionRate)).div(FEE_BASE);\n                IERC20(baseToken).safeTransfer(allNFTs[nftId].owner, allNFTs[nftId].paid);\n            }\n        }\n\n        _withdrawNFT(_msgSender(), nftId, true);\n    }\n\n    function claimRevenue(uint256 collectionId_, uint256 index_) external {\n        Collection storage collection = allCollections[collectionId_];\n\n        require(collection.soldCount == collection.size, \"Not finished\");\n\n        uint256 nftId = nftsByCollectionId[collectionId_][index_];\n\n        require(allNFTs[nftId].owner == _msgSender() && allNFTs[nftId].collectionId > 0, \"NFT not claimed\");\n\n        if (allNFTs[nftId].paid == 0) {\n            if (collection.willAcceptBLES) {\n                allNFTs[nftId].paid = allNFTs[nftId].price.mul(\n                    FEE_BASE.sub(collection.commissionRate)).div(FEE_BASE);\n                IERC20(blesToken).safeTransfer(allNFTs[nftId].owner, allNFTs[nftId].paid);\n            } else {\n                allNFTs[nftId].paid = allNFTs[nftId].price.mul(\n                    FEE_BASE.sub(feeRate).sub(collection.commissionRate)).div(FEE_BASE);\n                IERC20(baseToken).safeTransfer(allNFTs[nftId].owner, allNFTs[nftId].paid);\n            }\n        }\n    }\n\n    function claimCommission(uint256 collectionId_) external {\n        Collection storage collection = allCollections[collectionId_];\n\n        require(_msgSender() == collection.owner, \"Only curator can claim\");\n        require(collection.soldCount == collection.size, \"Not finished\");\n\n        if (collection.willAcceptBLES) {\n            IERC20(blesToken).safeTransfer(collection.owner, collection.commission);\n        } else {\n            IERC20(baseToken).safeTransfer(collection.owner, collection.commission);\n        }\n\n        // Mark it claimed.\n        collection.commission = 0;\n    }\n\n    function claimFee(uint256 collectionId_) external {\n        require(feeTo != address(0), \"Please set feeTo first\");\n\n        Collection storage collection = allCollections[collectionId_];\n\n        require(collection.soldCount == collection.size, \"Not finished\");\n        require(!collection.willAcceptBLES, \"No fee if the curator accepts BLES\");\n\n        IERC20(baseToken).safeTransfer(feeTo, collection.fee);\n\n        // Mark it claimed.\n        collection.fee = 0;\n    }\n\n    function createCollection(\n        string calldata name_,\n        uint256 size_,\n        uint256 commissionRate_,\n        bool willAcceptBLES_,\n        address[] calldata collaborators_\n    ) external {\n        require(size_ >= minimumCollectionSize, \"Size too small\");\n        require(commissionRate_.add(feeRate) < FEE_BASE, \"Too much commission\");\n\n        if (creatingFee > 0) {\n            // Charges BLES for creating the collection.\n            IERC20(blesToken).safeTransfer(feeTo, creatingFee);\n        }\n\n        Collection memory collection;\n        collection.owner = _msgSender();\n        collection.name = name_;\n        collection.size = size_;\n        collection.commissionRate = commissionRate_;\n        collection.totalPrice = 0;\n        collection.averagePrice = 0;\n        collection.willAcceptBLES = willAcceptBLES_;\n        collection.publishedAt = 0;\n\n        uint256 collectionId = _generateNextCollectionId();\n\n        allCollections[collectionId] = collection;\n        collectionsByOwner[_msgSender()].push(collectionId);\n        collaborators[collectionId] = collaborators_;\n\n        for (uint256 i = 0; i < collaborators_.length; ++i) {\n            isCollaborator[collectionId][collaborators_[i]] = true;\n        }\n\n        emit CreateCollection(_msgSender(), collectionId);\n    }\n\n    function changeCollaborators(uint256 collectionId_, address[] calldata collaborators_) external {\n        Collection storage collection = allCollections[collectionId_];\n\n        require(collection.owner == _msgSender(), \"Needs collection owner\");\n        require(!isPublished(collectionId_), \"Collection already published\");\n\n        uint256 i;\n\n        for (i = 0; i < collaborators_.length; ++i) {\n            isCollaborator[collectionId_][collaborators_[i]] = true;\n        }\n\n        for (i = 0; i < collaborators[collectionId_].length; ++i) {\n            uint256 j;\n            for (j = 0; j < collaborators_.length; ++j) {\n                if (collaborators[collectionId_][i] == collaborators_[j]) {\n                    break;\n                }\n            }\n\n            // If not found.\n            if (j == collaborators_.length) {\n                isCollaborator[collectionId_][collaborators[collectionId_][i]] = false;\n            }\n        }\n\n        collaborators[collectionId_] = collaborators_;\n    }\n\n    function isPublished(uint256 collectionId_) public view returns(bool) {\n        return allCollections[collectionId_].publishedAt > 0;\n    }\n\n    function _addNFTToCollection(uint256 nftId_, uint256 collectionId_, uint256 price_) private {\n        Collection storage collection = allCollections[collectionId_];\n\n        require(allNFTs[nftId_].owner == _msgSender(), \"Only NFT owner can add\");\n        require(collection.owner == _msgSender() ||\n                isCollaborator[collectionId_][_msgSender()], \"Needs collection owner or collaborator\");\n\n        require(price_ >= nftPriceFloor && price_ <= nftPriceCeil, \"Price not in range\");\n\n        require(allNFTs[nftId_].collectionId == 0, \"Already added\");\n        require(!isPublished(collectionId_), \"Collection already published\");\n        require(nftsByCollectionId[collectionId_].length < collection.size,\n                \"collection full\");\n\n        allNFTs[nftId_].price = price_;\n        allNFTs[nftId_].collectionId = collectionId_;\n        allNFTs[nftId_].indexInCollection = nftsByCollectionId[collectionId_].length;\n\n        // Push to nftsByCollectionId.\n        nftsByCollectionId[collectionId_].push(nftId_);\n\n        collection.totalPrice = collection.totalPrice.add(price_);\n\n        if (!collection.willAcceptBLES) {\n            collection.fee = collection.fee.add(price_.mul(feeRate).div(FEE_BASE));\n        }\n\n        collection.commission = collection.commission.add(price_.mul(collection.commissionRate).div(FEE_BASE));\n    }\n\n    function addNFTToCollection(address tokenAddress_, uint256 tokenId_, uint256 collectionId_, uint256 price_) external {\n        uint256 nftId = _depositNFT(tokenAddress_, tokenId_);\n        _addNFTToCollection(nftId, collectionId_, price_);\n    }\n\n    function editNFTInCollection(uint256 nftId_, uint256 collectionId_, uint256 price_) external {\n        Collection storage collection = allCollections[collectionId_];\n\n        require(collection.owner == _msgSender() ||\n                allNFTs[nftId_].owner == _msgSender(), \"Needs collection owner or NFT owner\");\n\n        require(price_ >= nftPriceFloor && price_ <= nftPriceCeil, \"Price not in range\");\n\n        require(allNFTs[nftId_].collectionId == collectionId_, \"NFT not in collection\");\n        require(!isPublished(collectionId_), \"Collection already published\");\n\n        collection.totalPrice = collection.totalPrice.add(price_).sub(allNFTs[nftId_].price);\n\n        if (!collection.willAcceptBLES) {\n            collection.fee = collection.fee.add(\n                price_.mul(feeRate).div(FEE_BASE)).sub(\n                    allNFTs[nftId_].price.mul(feeRate).div(FEE_BASE));\n        }\n\n        collection.commission = collection.commission.add(\n            price_.mul(collection.commissionRate).div(FEE_BASE)).sub(\n                allNFTs[nftId_].price.mul(collection.commissionRate).div(FEE_BASE));\n\n        allNFTs[nftId_].price = price_;  // Change price.\n    }\n\n    function _removeNFTFromCollection(uint256 nftId_, uint256 collectionId_) private {\n        Collection storage collection = allCollections[collectionId_];\n\n        require(allNFTs[nftId_].owner == _msgSender() ||\n                collection.owner == _msgSender(),\n                \"Only NFT owner or collection owner can remove\");\n        require(allNFTs[nftId_].collectionId == collectionId_, \"NFT not in collection\");\n        require(!isPublished(collectionId_), \"Collection already published\");\n\n        collection.totalPrice = collection.totalPrice.sub(allNFTs[nftId_].price);\n\n        if (!collection.willAcceptBLES) {\n            collection.fee = collection.fee.sub(\n                allNFTs[nftId_].price.mul(feeRate).div(FEE_BASE));\n        }\n\n        collection.commission = collection.commission.sub(\n            allNFTs[nftId_].price.mul(collection.commissionRate).div(FEE_BASE));\n\n\n        allNFTs[nftId_].collectionId = 0;\n\n        // Removes from nftsByCollectionId\n        uint256 index = allNFTs[nftId_].indexInCollection;\n        uint256 lastNFTId = nftsByCollectionId[collectionId_][nftsByCollectionId[collectionId_].length - 1];\n\n        nftsByCollectionId[collectionId_][index] = lastNFTId;\n        allNFTs[lastNFTId].indexInCollection = index;\n        nftsByCollectionId[collectionId_].pop();\n    }\n\n    function removeNFTFromCollection(uint256 nftId_, uint256 collectionId_) external {\n        address nftOwner = allNFTs[nftId_].owner;\n        _removeNFTFromCollection(nftId_, collectionId_);\n        _withdrawNFT(nftOwner, nftId_, false);\n    }\n\n    function randomnessCount(uint256 size_) public pure returns(uint256){\n        uint256 i;\n        for (i = 0; size_** i <= type(uint256).max / size_; i++) {}\n        return i;\n    }\n\n    function publishCollection(uint256 collectionId_, address[] calldata path, uint256 amountInMax_, uint256 deadline_) external {\n        Collection storage collection = allCollections[collectionId_];\n\n        require(collection.owner == _msgSender(), \"Only owner can publish\");\n\n        uint256 actualSize = nftsByCollectionId[collectionId_].length;\n        require(actualSize >= minimumCollectionSize, \"Not enough boxes\");\n\n        collection.size = actualSize;  // Fit the size.\n\n        // Math.ceil(totalPrice / actualSize);\n        collection.averagePrice = collection.totalPrice.add(actualSize.sub(1)).div(actualSize);\n        collection.publishedAt = block.timestamp;\n\n        // Now buy LINK. Here is some math for calculating the time of calls needed from ChainLink.\n        uint256 count = randomnessCount(actualSize);\n        uint256 times = actualSize.add(count).sub(1).div(count);  // Math.ceil\n\n        if (linkCost > 0 && address(linkAccessor) != address(0)) {\n            buyLink(times, path, amountInMax_, deadline_);\n        }\n\n        collection.timesToCall = times;\n\n        emit PublishCollection(_msgSender(), collectionId_);\n    }\n\n    function unpublishCollection(uint256 collectionId_) external {\n        // Anyone can call if the collection expires and not sold out.\n        // Owner can unpublish a collection if nothing is sold out.\n\n        Collection storage collection = allCollections[collectionId_];\n\n        if (_msgSender() != collection.owner || collection.soldCount > 0) {\n            require(block.timestamp > collection.publishedAt + maximumDuration, \"Not expired yet\");\n            require(collection.soldCount < collection.size, \"Sold out\");\n        }\n\n        collection.publishedAt = 0;\n        collection.soldCount = 0;\n\n        // Now refund to the buyers.\n        uint256 length = slotMap[collectionId_].length;\n        for (uint256 i = 0; i < length; ++i) {\n            Slot memory slot = slotMap[collectionId_][length.sub(i + 1)];\n            slotMap[collectionId_].pop();\n\n            if (collection.willAcceptBLES) {\n                IERC20(blesToken).transfer(slot.owner, collection.averagePrice.mul(slot.size));\n            } else {\n                IERC20(baseToken).transfer(slot.owner, collection.averagePrice.mul(slot.size));\n            }\n        }\n\n        emit UnpublishCollection(_msgSender(), collectionId_);\n    }\n\n    function buyLink(uint256 times_, address[] calldata path, uint256 amountInMax_, uint256 deadline_) internal virtual {\n        require(path[path.length.sub(1)] == address(linkToken), \"Last token must be LINK\");\n\n        uint256 amountToBuy = linkCost.mul(times_);\n\n        if (path.length == 1) {\n            // Pay with LINK.\n            linkToken.transferFrom(_msgSender(), address(linkAccessor), amountToBuy);\n        } else {\n            if (IERC20(path[0]).allowance(address(this), address(router)) < amountInMax_) {\n                IERC20(path[0]).approve(address(router), amountInMax_);\n            }\n\n            uint256[] memory amounts = router.getAmountsIn(amountToBuy, path);\n            IERC20(path[0]).transferFrom(_msgSender(), address(this), amounts[0]);\n\n            // Pay with other token.\n            router.swapTokensForExactTokens(\n                amountToBuy,\n                amountInMax_,\n                path,\n                address(linkAccessor),\n                deadline_);\n        }\n    }\n\n    function drawBoxes(uint256 collectionId_, uint256 times_) external {\n        if (!canDrawMultiple) {\n            require(times_ == 1, \"Can draw only 1\");\n        }\n\n        Collection storage collection = allCollections[collectionId_];\n\n        require(collection.soldCount.add(times_) <= collection.size, \"Not enough left\");\n\n        uint256 cost = collection.averagePrice.mul(times_);\n\n        if (collection.willAcceptBLES) {\n            IERC20(blesToken).safeTransferFrom(_msgSender(), address(this), cost);\n        } else {\n            IERC20(baseToken).safeTransferFrom(_msgSender(), address(this), cost);\n        }\n\n        Slot memory slot;\n        slot.owner = _msgSender();\n        slot.size = times_;\n        slotMap[collectionId_].push(slot);\n\n        collection.soldCount = collection.soldCount.add(times_);\n\n        uint256 startFromIndex = collection.size.sub(collection.timesToCall);\n        for (uint256 i = startFromIndex;\n                 i < collection.soldCount;\n                 ++i) {\n            requestRandomNumber(collectionId_, i.sub(startFromIndex));\n        }\n    }\n\n    function getWinner(uint256 collectionId_, uint256 nftIndex_) public view returns(address) {\n        Collection storage collection = allCollections[collectionId_];\n\n        if (collection.soldCount < collection.size) {\n            // Not sold all yet.\n            return address(0);\n        }\n\n        uint256 size = collection.size;\n        uint256 count = randomnessCount(size);\n\n        uint256 lastRandomnessIndex = nftMapping[collectionId_].length.sub(1);\n        uint256 lastR = nftMapping[collectionId_][lastRandomnessIndex];\n\n        // Use lastR as an offset for rotating the sequence, to make sure that\n        // we need to wait for all boxes being sold.\n        nftIndex_ = nftIndex_.add(lastR).mod(size);\n\n        uint256 randomnessIndex = nftIndex_.div(count);\n        randomnessIndex = randomnessIndex.add(lastR).mod(lastRandomnessIndex + 1);\n\n        uint256 r = nftMapping[collectionId_][randomnessIndex];\n\n        uint256 i;\n\n        for (i = 0; i < nftIndex_.mod(count); ++i) {\n          r /= size;\n        }\n\n        r %= size;\n\n        // Iterate through all slots.\n        for (i = 0; i < slotMap[collectionId_].length; ++i) {\n            if (r >= slotMap[collectionId_][i].size) {\n                r -= slotMap[collectionId_][i].size;\n            } else {\n                return slotMap[collectionId_][i].owner;\n            }\n        }\n\n        require(false, \"r overflow\");\n    }\n\n    function psuedoRandomness() public view returns(uint256) {\n        return uint256(keccak256(abi.encodePacked(\n            block.timestamp + block.difficulty +\n            ((uint256(keccak256(abi.encodePacked(block.coinbase)))) / (block.timestamp)) +\n            block.gaslimit + \n            ((uint256(keccak256(abi.encodePacked(_msgSender())))) / (block.timestamp)) +\n            block.number\n        )));\n    }\n\n    function requestRandomNumber(uint256 collectionId_, uint256 index_) private {\n        if (address(linkAccessor) != address(0)) {\n            bytes32 requestId = linkAccessor.requestRandomness(index_);\n            requestInfoMap[requestId].collectionId = collectionId_;\n        } else {\n            // Uses psuedo random number instead, and doesn't involve request / callback.\n            useRandomness(collectionId_, psuedoRandomness());\n        }\n    }\n\n    /**\n     * Callback function used by VRF Coordinator\n     */\n    function fulfillRandomness(bytes32 requestId, uint256 randomness) public {\n        require(_msgSender() == address(linkAccessor), \"Only linkAccessor can call\");\n\n        uint256 collectionId = requestInfoMap[requestId].collectionId;\n        useRandomness(collectionId, randomness);\n    }\n\n    function useRandomness(\n        uint256 collectionId_,\n        uint256 randomness_\n    ) private {\n        uint256 size = allCollections[collectionId_].size;\n        bool[] memory filled = new bool[](size);\n\n        uint256 r;\n        uint256 i;\n        uint256 j;\n        uint256 count = randomnessCount(size);\n\n        for (i = 0; i < nftMapping[collectionId_].length; ++i) {\n            r = nftMapping[collectionId_][i];\n            for (j = 0; j < count; ++j) {\n                filled[r.mod(size)] = true;\n                r = r.div(size);\n            }\n        }\n\n        r = 0;\n\n        uint256 t;\n        uint256 remaining = size.sub(count.mul(nftMapping[collectionId_].length));\n\n        for (i = 0; i < count; ++i) {\n            if (remaining == 0) {\n                break;\n            }\n\n            t = randomness_.mod(remaining);\n            randomness_ = randomness_.div(remaining);\n\n            t = t.add(1);\n\n            // Skips filled mappings.\n            for (j = 0; j < size; ++j) {\n                if (!filled[j]) {\n                    t = t.sub(1);\n                }\n\n                if (t == 0) {\n                  break;\n                }\n            }\n\n            filled[j] = true;\n            r = r.mul(size).add(j);\n            remaining = remaining.sub(1);\n        }\n\n        nftMapping[collectionId_].push(r);\n    }\n}\n",
  "sourcePath": "/Users/yxf/app/uniarts-eth-dao/contracts/core/MysteryBox.sol",
  "compiler": {
    "name": "solc",
    "version": "0.8.4+commit.c7e474f2.Emscripten.clang"
  },
  "schemaVersion": "3.2.3",
  "updatedAt": "2021-08-27T01:56:55.272Z",
  "devdoc": {
    "kind": "dev",
    "methods": {
      "owner()": {
        "details": "Returns the address of the current owner."
      },
      "renounceOwnership()": {
        "details": "Leaves the contract without owner. It will not be possible to call `onlyOwner` functions anymore. Can only be called by the current owner. NOTE: Renouncing ownership will leave the contract without an owner, thereby removing any functionality that is only available to the owner."
      },
      "transferOwnership(address)": {
        "details": "Transfers ownership of the contract to a new account (`newOwner`). Can only be called by the current owner."
      }
    },
    "version": 1
  },
  "userdoc": {
    "kind": "user",
    "methods": {
      "fulfillRandomness(bytes32,uint256)": {
        "notice": "Callback function used by VRF Coordinator"
      }
    },
    "version": 1
  }
}