{
  "contractName": "UINK",
  "abi": [
    {
      "inputs": [],
      "stateMutability": "nonpayable",
      "type": "constructor"
    },
    {
      "anonymous": false,
      "inputs": [
        {
          "indexed": true,
          "internalType": "address",
          "name": "owner",
          "type": "address"
        },
        {
          "indexed": true,
          "internalType": "address",
          "name": "spender",
          "type": "address"
        },
        {
          "indexed": false,
          "internalType": "uint256",
          "name": "value",
          "type": "uint256"
        }
      ],
      "name": "Approval",
      "type": "event"
    },
    {
      "anonymous": false,
      "inputs": [
        {
          "indexed": true,
          "internalType": "address",
          "name": "previousOwner",
          "type": "address"
        },
        {
          "indexed": true,
          "internalType": "address",
          "name": "newOwner",
          "type": "address"
        }
      ],
      "name": "OwnershipTransferred",
      "type": "event"
    },
    {
      "anonymous": false,
      "inputs": [
        {
          "indexed": false,
          "internalType": "address",
          "name": "account",
          "type": "address"
        }
      ],
      "name": "Paused",
      "type": "event"
    },
    {
      "anonymous": false,
      "inputs": [
        {
          "indexed": true,
          "internalType": "address",
          "name": "from",
          "type": "address"
        },
        {
          "indexed": true,
          "internalType": "address",
          "name": "to",
          "type": "address"
        },
        {
          "indexed": false,
          "internalType": "uint256",
          "name": "value",
          "type": "uint256"
        }
      ],
      "name": "Transfer",
      "type": "event"
    },
    {
      "anonymous": false,
      "inputs": [
        {
          "indexed": false,
          "internalType": "address",
          "name": "account",
          "type": "address"
        }
      ],
      "name": "Unpaused",
      "type": "event"
    },
    {
      "inputs": [],
      "name": "INITIAL_SUPPLY",
      "outputs": [
        {
          "internalType": "uint256",
          "name": "",
          "type": "uint256"
        }
      ],
      "stateMutability": "view",
      "type": "function"
    },
    {
      "inputs": [
        {
          "internalType": "address",
          "name": "owner",
          "type": "address"
        },
        {
          "internalType": "address",
          "name": "spender",
          "type": "address"
        }
      ],
      "name": "allowance",
      "outputs": [
        {
          "internalType": "uint256",
          "name": "",
          "type": "uint256"
        }
      ],
      "stateMutability": "view",
      "type": "function"
    },
    {
      "inputs": [
        {
          "internalType": "address",
          "name": "spender",
          "type": "address"
        },
        {
          "internalType": "uint256",
          "name": "amount",
          "type": "uint256"
        }
      ],
      "name": "approve",
      "outputs": [
        {
          "internalType": "bool",
          "name": "",
          "type": "bool"
        }
      ],
      "stateMutability": "nonpayable",
      "type": "function"
    },
    {
      "inputs": [
        {
          "internalType": "address",
          "name": "account",
          "type": "address"
        }
      ],
      "name": "balanceOf",
      "outputs": [
        {
          "internalType": "uint256",
          "name": "",
          "type": "uint256"
        }
      ],
      "stateMutability": "view",
      "type": "function"
    },
    {
      "inputs": [],
      "name": "decimals",
      "outputs": [
        {
          "internalType": "uint8",
          "name": "",
          "type": "uint8"
        }
      ],
      "stateMutability": "view",
      "type": "function"
    },
    {
      "inputs": [
        {
          "internalType": "address",
          "name": "spender",
          "type": "address"
        },
        {
          "internalType": "uint256",
          "name": "subtractedValue",
          "type": "uint256"
        }
      ],
      "name": "decreaseAllowance",
      "outputs": [
        {
          "internalType": "bool",
          "name": "",
          "type": "bool"
        }
      ],
      "stateMutability": "nonpayable",
      "type": "function"
    },
    {
      "inputs": [
        {
          "internalType": "address",
          "name": "spender",
          "type": "address"
        },
        {
          "internalType": "uint256",
          "name": "addedValue",
          "type": "uint256"
        }
      ],
      "name": "increaseAllowance",
      "outputs": [
        {
          "internalType": "bool",
          "name": "",
          "type": "bool"
        }
      ],
      "stateMutability": "nonpayable",
      "type": "function"
    },
    {
      "inputs": [],
      "name": "name",
      "outputs": [
        {
          "internalType": "string",
          "name": "",
          "type": "string"
        }
      ],
      "stateMutability": "view",
      "type": "function"
    },
    {
      "inputs": [],
      "name": "owner",
      "outputs": [
        {
          "internalType": "address",
          "name": "",
          "type": "address"
        }
      ],
      "stateMutability": "view",
      "type": "function"
    },
    {
      "inputs": [],
      "name": "paused",
      "outputs": [
        {
          "internalType": "bool",
          "name": "",
          "type": "bool"
        }
      ],
      "stateMutability": "view",
      "type": "function"
    },
    {
      "inputs": [],
      "name": "renounceOwnership",
      "outputs": [],
      "stateMutability": "nonpayable",
      "type": "function"
    },
    {
      "inputs": [],
      "name": "symbol",
      "outputs": [
        {
          "internalType": "string",
          "name": "",
          "type": "string"
        }
      ],
      "stateMutability": "view",
      "type": "function"
    },
    {
      "inputs": [],
      "name": "totalSupply",
      "outputs": [
        {
          "internalType": "uint256",
          "name": "",
          "type": "uint256"
        }
      ],
      "stateMutability": "view",
      "type": "function"
    },
    {
      "inputs": [
        {
          "internalType": "address",
          "name": "recipient",
          "type": "address"
        },
        {
          "internalType": "uint256",
          "name": "amount",
          "type": "uint256"
        }
      ],
      "name": "transfer",
      "outputs": [
        {
          "internalType": "bool",
          "name": "",
          "type": "bool"
        }
      ],
      "stateMutability": "nonpayable",
      "type": "function"
    },
    {
      "inputs": [
        {
          "internalType": "address",
          "name": "sender",
          "type": "address"
        },
        {
          "internalType": "address",
          "name": "recipient",
          "type": "address"
        },
        {
          "internalType": "uint256",
          "name": "amount",
          "type": "uint256"
        }
      ],
      "name": "transferFrom",
      "outputs": [
        {
          "internalType": "bool",
          "name": "",
          "type": "bool"
        }
      ],
      "stateMutability": "nonpayable",
      "type": "function"
    },
    {
      "inputs": [
        {
          "internalType": "address",
          "name": "newOwner",
          "type": "address"
        }
      ],
      "name": "transferOwnership",
      "outputs": [],
      "stateMutability": "nonpayable",
      "type": "function"
    },
    {
      "inputs": [],
      "name": "pause",
      "outputs": [],
      "stateMutability": "nonpayable",
      "type": "function"
    },
    {
      "inputs": [],
      "name": "unpause",
      "outputs": [],
      "stateMutability": "nonpayable",
      "type": "function"
    }
  ],
  "bytecode": "0x60806040523480156200001157600080fd5b506040518060400160405280600b81526020017f556e696172747320496e6b0000000000000000000000000000000000000000008152506040518060400160405280600481526020017f55494e4b000000000000000000000000000000000000000000000000000000008152506200009e620000926200011060201b60201c565b6200011860201b60201c565b8160049080519060200190620000b6929190620003e7565b508060059080519060200190620000cf929190620003e7565b5050506000600660006101000a81548160ff0219169083151502179055506200010a336a52b7d2dcc80cd2e4000000620001dc60201b60201c565b620006db565b600033905090565b60008060009054906101000a900473ffffffffffffffffffffffffffffffffffffffff169050816000806101000a81548173ffffffffffffffffffffffffffffffffffffffff021916908373ffffffffffffffffffffffffffffffffffffffff1602179055508173ffffffffffffffffffffffffffffffffffffffff168173ffffffffffffffffffffffffffffffffffffffff167f8be0079c531659141344cd1fd0a4f28419497f9722a3daafe3b4186f6b6457e060405160405180910390a35050565b600073ffffffffffffffffffffffffffffffffffffffff168273ffffffffffffffffffffffffffffffffffffffff1614156200024f576040517f08c379a00000000000000000000000000000000000000000000000000000000081526004016200024690620004f6565b60405180910390fd5b62000263600083836200035660201b60201c565b806003600082825462000277919062000568565b9250508190555080600160008473ffffffffffffffffffffffffffffffffffffffff1673ffffffffffffffffffffffffffffffffffffffff1681526020019081526020016000206000828254620002cf919062000568565b925050819055508173ffffffffffffffffffffffffffffffffffffffff16600073ffffffffffffffffffffffffffffffffffffffff167fddf252ad1be2c89b69c2b068fc378daa952ba7f163c4a11628f55a4df523b3ef836040516200033691906200053a565b60405180910390a36200035260008383620003c660201b60201c565b5050565b6200036e838383620003cb60201b62000b241760201c565b6200037e620003d060201b60201c565b15620003c1576040517f08c379a0000000000000000000000000000000000000000000000000000000008152600401620003b89062000518565b60405180910390fd5b505050565b505050565b505050565b6000600660009054906101000a900460ff16905090565b828054620003f590620005cf565b90600052602060002090601f01602090048101928262000419576000855562000465565b82601f106200043457805160ff191683800117855562000465565b8280016001018555821562000465579182015b828111156200046457825182559160200191906001019062000447565b5b50905062000474919062000478565b5090565b5b808211156200049357600081600090555060010162000479565b5090565b6000620004a6601f8362000557565b9150620004b38262000663565b602082019050919050565b6000620004cd602a8362000557565b9150620004da826200068c565b604082019050919050565b620004f081620005c5565b82525050565b60006020820190508181036000830152620005118162000497565b9050919050565b600060208201905081810360008301526200053381620004be565b9050919050565b6000602082019050620005516000830184620004e5565b92915050565b600082825260208201905092915050565b60006200057582620005c5565b91506200058283620005c5565b9250827fffffffffffffffffffffffffffffffffffffffffffffffffffffffffffffffff03821115620005ba57620005b962000605565b5b828201905092915050565b6000819050919050565b60006002820490506001821680620005e857607f821691505b60208210811415620005ff57620005fe62000634565b5b50919050565b7f4e487b7100000000000000000000000000000000000000000000000000000000600052601160045260246000fd5b7f4e487b7100000000000000000000000000000000000000000000000000000000600052602260045260246000fd5b7f45524332303a206d696e7420746f20746865207a65726f206164647265737300600082015250565b7f45524332305061757361626c653a20746f6b656e207472616e7366657220776860008201527f696c652070617573656400000000000000000000000000000000000000000000602082015250565b611c6880620006eb6000396000f3fe608060405234801561001057600080fd5b50600436106101165760003560e01c806370a08231116100a257806395d89b411161007157806395d89b41146102ad578063a457c2d7146102cb578063a9059cbb146102fb578063dd62ed3e1461032b578063f2fde38b1461035b57610116565b806370a082311461024b578063715018a61461027b5780638456cb59146102855780638da5cb5b1461028f57610116565b80632ff2e9dc116100e95780632ff2e9dc146101b7578063313ce567146101d557806339509351146101f35780633f4ba83a146102235780635c975abb1461022d57610116565b806306fdde031461011b578063095ea7b31461013957806318160ddd1461016957806323b872dd14610187575b600080fd5b610123610377565b604051610130919061154f565b60405180910390f35b610153600480360381019061014e91906112c4565b610409565b6040516101609190611534565b60405180910390f35b610171610427565b60405161017e91906116f1565b60405180910390f35b6101a1600480360381019061019c9190611275565b610431565b6040516101ae9190611534565b60405180910390f35b6101bf610529565b6040516101cc91906116f1565b60405180910390f35b6101dd610538565b6040516101ea919061170c565b60405180910390f35b61020d600480360381019061020891906112c4565b610541565b60405161021a9190611534565b60405180910390f35b61022b6105ed565b005b610235610673565b6040516102429190611534565b60405180910390f35b61026560048036038101906102609190611210565b61068a565b60405161027291906116f1565b60405180910390f35b6102836106d3565b005b61028d61075b565b005b6102976107e1565b6040516102a49190611519565b60405180910390f35b6102b561080a565b6040516102c2919061154f565b60405180910390f35b6102e560048036038101906102e091906112c4565b61089c565b6040516102f29190611534565b60405180910390f35b610315600480360381019061031091906112c4565b610987565b6040516103229190611534565b60405180910390f35b61034560048036038101906103409190611239565b6109a5565b60405161035291906116f1565b60405180910390f35b61037560048036038101906103709190611210565b610a2c565b005b60606004805461038690611821565b80601f01602080910402602001604051908101604052809291908181526020018280546103b290611821565b80156103ff5780601f106103d4576101008083540402835291602001916103ff565b820191906000526020600020905b8154815290600101906020018083116103e257829003601f168201915b5050505050905090565b600061041d610416610b29565b8484610b31565b6001905092915050565b6000600354905090565b600061043e848484610cfc565b6000600260008673ffffffffffffffffffffffffffffffffffffffff1673ffffffffffffffffffffffffffffffffffffffff1681526020019081526020016000206000610489610b29565b73ffffffffffffffffffffffffffffffffffffffff1673ffffffffffffffffffffffffffffffffffffffff16815260200190815260200160002054905082811015610509576040517f08c379a000000000000000000000000000000000000000000000000000000000815260040161050090611631565b60405180910390fd5b61051d85610515610b29565b858403610b31565b60019150509392505050565b6a52b7d2dcc80cd2e400000081565b60006012905090565b60006105e361054e610b29565b84846002600061055c610b29565b73ffffffffffffffffffffffffffffffffffffffff1673ffffffffffffffffffffffffffffffffffffffff16815260200190815260200160002060008873ffffffffffffffffffffffffffffffffffffffff1673ffffffffffffffffffffffffffffffffffffffff168152602001908152602001600020546105de9190611743565b610b31565b6001905092915050565b6105f5610b29565b73ffffffffffffffffffffffffffffffffffffffff166106136107e1565b73ffffffffffffffffffffffffffffffffffffffff1614610669576040517f08c379a000000000000000000000000000000000000000000000000000000000815260040161066090611651565b60405180910390fd5b610671610f80565b565b6000600660009054906101000a900460ff16905090565b6000600160008373ffffffffffffffffffffffffffffffffffffffff1673ffffffffffffffffffffffffffffffffffffffff168152602001908152602001600020549050919050565b6106db610b29565b73ffffffffffffffffffffffffffffffffffffffff166106f96107e1565b73ffffffffffffffffffffffffffffffffffffffff161461074f576040517f08c379a000000000000000000000000000000000000000000000000000000000815260040161074690611651565b60405180910390fd5b6107596000611022565b565b610763610b29565b73ffffffffffffffffffffffffffffffffffffffff166107816107e1565b73ffffffffffffffffffffffffffffffffffffffff16146107d7576040517f08c379a00000000000000000000000000000000000000000000000000000000081526004016107ce90611651565b60405180910390fd5b6107df6110e6565b565b60008060009054906101000a900473ffffffffffffffffffffffffffffffffffffffff16905090565b60606005805461081990611821565b80601f016020809104026020016040519081016040528092919081815260200182805461084590611821565b80156108925780601f1061086757610100808354040283529160200191610892565b820191906000526020600020905b81548152906001019060200180831161087557829003601f168201915b5050505050905090565b600080600260006108ab610b29565b73ffffffffffffffffffffffffffffffffffffffff1673ffffffffffffffffffffffffffffffffffffffff16815260200190815260200160002060008573ffffffffffffffffffffffffffffffffffffffff1673ffffffffffffffffffffffffffffffffffffffff16815260200190815260200160002054905082811015610968576040517f08c379a000000000000000000000000000000000000000000000000000000000815260040161095f906116b1565b60405180910390fd5b61097c610973610b29565b85858403610b31565b600191505092915050565b600061099b610994610b29565b8484610cfc565b6001905092915050565b6000600260008473ffffffffffffffffffffffffffffffffffffffff1673ffffffffffffffffffffffffffffffffffffffff16815260200190815260200160002060008373ffffffffffffffffffffffffffffffffffffffff1673ffffffffffffffffffffffffffffffffffffffff16815260200190815260200160002054905092915050565b610a34610b29565b73ffffffffffffffffffffffffffffffffffffffff16610a526107e1565b73ffffffffffffffffffffffffffffffffffffffff1614610aa8576040517f08c379a0000000000000000000000000000000000000000000000000000000008152600401610a9f90611651565b60405180910390fd5b600073ffffffffffffffffffffffffffffffffffffffff168173ffffffffffffffffffffffffffffffffffffffff161415610b18576040517f08c379a0000000000000000000000000000000000000000000000000000000008152600401610b0f906115b1565b60405180910390fd5b610b2181611022565b50565b505050565b600033905090565b600073ffffffffffffffffffffffffffffffffffffffff168373ffffffffffffffffffffffffffffffffffffffff161415610ba1576040517f08c379a0000000000000000000000000000000000000000000000000000000008152600401610b9890611691565b60405180910390fd5b600073ffffffffffffffffffffffffffffffffffffffff168273ffffffffffffffffffffffffffffffffffffffff161415610c11576040517f08c379a0000000000000000000000000000000000000000000000000000000008152600401610c08906115d1565b60405180910390fd5b80600260008573ffffffffffffffffffffffffffffffffffffffff1673ffffffffffffffffffffffffffffffffffffffff16815260200190815260200160002060008473ffffffffffffffffffffffffffffffffffffffff1673ffffffffffffffffffffffffffffffffffffffff168152602001908152602001600020819055508173ffffffffffffffffffffffffffffffffffffffff168373ffffffffffffffffffffffffffffffffffffffff167f8c5be1e5ebec7d5bd14f71427d1e84f3dd0314c0f7b2291e5b200ac8c7c3b92583604051610cef91906116f1565b60405180910390a3505050565b600073ffffffffffffffffffffffffffffffffffffffff168373ffffffffffffffffffffffffffffffffffffffff161415610d6c576040517f08c379a0000000000000000000000000000000000000000000000000000000008152600401610d6390611671565b60405180910390fd5b600073ffffffffffffffffffffffffffffffffffffffff168273ffffffffffffffffffffffffffffffffffffffff161415610ddc576040517f08c379a0000000000000000000000000000000000000000000000000000000008152600401610dd390611571565b60405180910390fd5b610de7838383611189565b6000600160008573ffffffffffffffffffffffffffffffffffffffff1673ffffffffffffffffffffffffffffffffffffffff16815260200190815260200160002054905081811015610e6e576040517f08c379a0000000000000000000000000000000000000000000000000000000008152600401610e65906115f1565b60405180910390fd5b818103600160008673ffffffffffffffffffffffffffffffffffffffff1673ffffffffffffffffffffffffffffffffffffffff1681526020019081526020016000208190555081600160008573ffffffffffffffffffffffffffffffffffffffff1673ffffffffffffffffffffffffffffffffffffffff1681526020019081526020016000206000828254610f039190611743565b925050819055508273ffffffffffffffffffffffffffffffffffffffff168473ffffffffffffffffffffffffffffffffffffffff167fddf252ad1be2c89b69c2b068fc378daa952ba7f163c4a11628f55a4df523b3ef84604051610f6791906116f1565b60405180910390a3610f7a8484846111e1565b50505050565b610f88610673565b610fc7576040517f08c379a0000000000000000000000000000000000000000000000000000000008152600401610fbe90611591565b60405180910390fd5b6000600660006101000a81548160ff0219169083151502179055507f5db9ee0a495bf2e6ff9c91a7834c1ba4fdd244a5e8aa4e537bd38aeae4b073aa61100b610b29565b6040516110189190611519565b60405180910390a1565b60008060009054906101000a900473ffffffffffffffffffffffffffffffffffffffff169050816000806101000a81548173ffffffffffffffffffffffffffffffffffffffff021916908373ffffffffffffffffffffffffffffffffffffffff1602179055508173ffffffffffffffffffffffffffffffffffffffff168173ffffffffffffffffffffffffffffffffffffffff167f8be0079c531659141344cd1fd0a4f28419497f9722a3daafe3b4186f6b6457e060405160405180910390a35050565b6110ee610673565b1561112e576040517f08c379a000000000000000000000000000000000000000000000000000000000815260040161112590611611565b60405180910390fd5b6001600660006101000a81548160ff0219169083151502179055507f62e78cea01bee320cd4e420270b5ea74000d11b0c9f74754ebdbfc544b05a258611172610b29565b60405161117f9190611519565b60405180910390a1565b611194838383610b24565b61119c610673565b156111dc576040517f08c379a00000000000000000000000000000000000000000000000000000000081526004016111d3906116d1565b60405180910390fd5b505050565b505050565b6000813590506111f581611c04565b92915050565b60008135905061120a81611c1b565b92915050565b60006020828403121561122257600080fd5b6000611230848285016111e6565b91505092915050565b6000806040838503121561124c57600080fd5b600061125a858286016111e6565b925050602061126b858286016111e6565b9150509250929050565b60008060006060848603121561128a57600080fd5b6000611298868287016111e6565b93505060206112a9868287016111e6565b92505060406112ba868287016111fb565b9150509250925092565b600080604083850312156112d757600080fd5b60006112e5858286016111e6565b92505060206112f6858286016111fb565b9150509250929050565b61130981611799565b82525050565b611318816117ab565b82525050565b600061132982611727565b6113338185611732565b93506113438185602086016117ee565b61134c816118b1565b840191505092915050565b6000611364602383611732565b915061136f826118c2565b604082019050919050565b6000611387601483611732565b915061139282611911565b602082019050919050565b60006113aa602683611732565b91506113b58261193a565b604082019050919050565b60006113cd602283611732565b91506113d882611989565b604082019050919050565b60006113f0602683611732565b91506113fb826119d8565b604082019050919050565b6000611413601083611732565b915061141e82611a27565b602082019050919050565b6000611436602883611732565b915061144182611a50565b604082019050919050565b6000611459602083611732565b915061146482611a9f565b602082019050919050565b600061147c602583611732565b915061148782611ac8565b604082019050919050565b600061149f602483611732565b91506114aa82611b17565b604082019050919050565b60006114c2602583611732565b91506114cd82611b66565b604082019050919050565b60006114e5602a83611732565b91506114f082611bb5565b604082019050919050565b611504816117d7565b82525050565b611513816117e1565b82525050565b600060208201905061152e6000830184611300565b92915050565b6000602082019050611549600083018461130f565b92915050565b60006020820190508181036000830152611569818461131e565b905092915050565b6000602082019050818103600083015261158a81611357565b9050919050565b600060208201905081810360008301526115aa8161137a565b9050919050565b600060208201905081810360008301526115ca8161139d565b9050919050565b600060208201905081810360008301526115ea816113c0565b9050919050565b6000602082019050818103600083015261160a816113e3565b9050919050565b6000602082019050818103600083015261162a81611406565b9050919050565b6000602082019050818103600083015261164a81611429565b9050919050565b6000602082019050818103600083015261166a8161144c565b9050919050565b6000602082019050818103600083015261168a8161146f565b9050919050565b600060208201905081810360008301526116aa81611492565b9050919050565b600060208201905081810360008301526116ca816114b5565b9050919050565b600060208201905081810360008301526116ea816114d8565b9050919050565b600060208201905061170660008301846114fb565b92915050565b6000602082019050611721600083018461150a565b92915050565b600081519050919050565b600082825260208201905092915050565b600061174e826117d7565b9150611759836117d7565b9250827fffffffffffffffffffffffffffffffffffffffffffffffffffffffffffffffff0382111561178e5761178d611853565b5b828201905092915050565b60006117a4826117b7565b9050919050565b60008115159050919050565b600073ffffffffffffffffffffffffffffffffffffffff82169050919050565b6000819050919050565b600060ff82169050919050565b60005b8381101561180c5780820151818401526020810190506117f1565b8381111561181b576000848401525b50505050565b6000600282049050600182168061183957607f821691505b6020821081141561184d5761184c611882565b5b50919050565b7f4e487b7100000000000000000000000000000000000000000000000000000000600052601160045260246000fd5b7f4e487b7100000000000000000000000000000000000000000000000000000000600052602260045260246000fd5b6000601f19601f8301169050919050565b7f45524332303a207472616e7366657220746f20746865207a65726f206164647260008201527f6573730000000000000000000000000000000000000000000000000000000000602082015250565b7f5061757361626c653a206e6f7420706175736564000000000000000000000000600082015250565b7f4f776e61626c653a206e6577206f776e657220697320746865207a65726f206160008201527f6464726573730000000000000000000000000000000000000000000000000000602082015250565b7f45524332303a20617070726f766520746f20746865207a65726f20616464726560008201527f7373000000000000000000000000000000000000000000000000000000000000602082015250565b7f45524332303a207472616e7366657220616d6f756e742065786365656473206260008201527f616c616e63650000000000000000000000000000000000000000000000000000602082015250565b7f5061757361626c653a2070617573656400000000000000000000000000000000600082015250565b7f45524332303a207472616e7366657220616d6f756e742065786365656473206160008201527f6c6c6f77616e6365000000000000000000000000000000000000000000000000602082015250565b7f4f776e61626c653a2063616c6c6572206973206e6f7420746865206f776e6572600082015250565b7f45524332303a207472616e736665722066726f6d20746865207a65726f20616460008201527f6472657373000000000000000000000000000000000000000000000000000000602082015250565b7f45524332303a20617070726f76652066726f6d20746865207a65726f2061646460008201527f7265737300000000000000000000000000000000000000000000000000000000602082015250565b7f45524332303a2064656372656173656420616c6c6f77616e63652062656c6f7760008201527f207a65726f000000000000000000000000000000000000000000000000000000602082015250565b7f45524332305061757361626c653a20746f6b656e207472616e7366657220776860008201527f696c652070617573656400000000000000000000000000000000000000000000602082015250565b611c0d81611799565b8114611c1857600080fd5b50565b611c24816117d7565b8114611c2f57600080fd5b5056fea2646970667358221220d711bec641c5e0ce4c2e85f298ac825c98e45165faae8415879bb965c8b47f8864736f6c63430008040033",
  "immutableReferences": {},
  "source": "// SPDX-License-Identifier: MIT\npragma solidity ^0.8.0;\nimport '@openzeppelin/contracts/access/Ownable.sol';\nimport '@openzeppelin/contracts/token/ERC20/extensions/ERC20Pausable.sol';\n\n\ncontract UINK is Ownable, ERC20Pausable {\n    uint256 public constant INITIAL_SUPPLY = 100_000_000 * 1e18; \n\n    constructor () ERC20(\"Uniarts Ink\", \"UINK\") {\n        _mint(msg.sender, INITIAL_SUPPLY);\n    }\n\n    function pause() external onlyOwner {\n    \t_pause();\n    }\n\n    function unpause() external onlyOwner {\n    \t_unpause();\n    }\n}",
  "sourcePath": "/Users/yxf/app/uniarts-eth-dao/contracts/ERC20/UINK.sol",
  "compiler": {
    "name": "solc",
    "version": "0.8.4+commit.c7e474f2.Emscripten.clang"
  },
  "schemaVersion": "3.2.3",
  "updatedAt": "2021-08-27T01:56:55.037Z",
  "devdoc": {
    "kind": "dev",
    "methods": {
      "allowance(address,address)": {
        "details": "See {IERC20-allowance}."
      },
      "approve(address,uint256)": {
        "details": "See {IERC20-approve}. Requirements: - `spender` cannot be the zero address."
      },
      "balanceOf(address)": {
        "details": "See {IERC20-balanceOf}."
      },
      "decimals()": {
        "details": "Returns the number of decimals used to get its user representation. For example, if `decimals` equals `2`, a balance of `505` tokens should be displayed to a user as `5.05` (`505 / 10 ** 2`). Tokens usually opt for a value of 18, imitating the relationship between Ether and Wei. This is the value {ERC20} uses, unless this function is overridden; NOTE: This information is only used for _display_ purposes: it in no way affects any of the arithmetic of the contract, including {IERC20-balanceOf} and {IERC20-transfer}."
      },
      "decreaseAllowance(address,uint256)": {
        "details": "Atomically decreases the allowance granted to `spender` by the caller. This is an alternative to {approve} that can be used as a mitigation for problems described in {IERC20-approve}. Emits an {Approval} event indicating the updated allowance. Requirements: - `spender` cannot be the zero address. - `spender` must have allowance for the caller of at least `subtractedValue`."
      },
      "increaseAllowance(address,uint256)": {
        "details": "Atomically increases the allowance granted to `spender` by the caller. This is an alternative to {approve} that can be used as a mitigation for problems described in {IERC20-approve}. Emits an {Approval} event indicating the updated allowance. Requirements: - `spender` cannot be the zero address."
      },
      "name()": {
        "details": "Returns the name of the token."
      },
      "owner()": {
        "details": "Returns the address of the current owner."
      },
      "paused()": {
        "details": "Returns true if the contract is paused, and false otherwise."
      },
      "renounceOwnership()": {
        "details": "Leaves the contract without owner. It will not be possible to call `onlyOwner` functions anymore. Can only be called by the current owner. NOTE: Renouncing ownership will leave the contract without an owner, thereby removing any functionality that is only available to the owner."
      },
      "symbol()": {
        "details": "Returns the symbol of the token, usually a shorter version of the name."
      },
      "totalSupply()": {
        "details": "See {IERC20-totalSupply}."
      },
      "transfer(address,uint256)": {
        "details": "See {IERC20-transfer}. Requirements: - `recipient` cannot be the zero address. - the caller must have a balance of at least `amount`."
      },
      "transferFrom(address,address,uint256)": {
        "details": "See {IERC20-transferFrom}. Emits an {Approval} event indicating the updated allowance. This is not required by the EIP. See the note at the beginning of {ERC20}. Requirements: - `sender` and `recipient` cannot be the zero address. - `sender` must have a balance of at least `amount`. - the caller must have allowance for ``sender``'s tokens of at least `amount`."
      },
      "transferOwnership(address)": {
        "details": "Transfers ownership of the contract to a new account (`newOwner`). Can only be called by the current owner."
      }
    },
    "version": 1
  },
  "userdoc": {
    "kind": "user",
    "methods": {},
    "version": 1
  }
}