{
  "contractName": "UinkTreasury",
  "abi": [
    {
      "inputs": [
        {
          "internalType": "address",
          "name": "_uink",
          "type": "address"
        }
      ],
      "stateMutability": "nonpayable",
      "type": "constructor"
    },
    {
      "anonymous": false,
      "inputs": [
        {
          "indexed": true,
          "internalType": "address",
          "name": "previousOwner",
          "type": "address"
        },
        {
          "indexed": true,
          "internalType": "address",
          "name": "newOwner",
          "type": "address"
        }
      ],
      "name": "OwnershipTransferred",
      "type": "event"
    },
    {
      "anonymous": false,
      "inputs": [
        {
          "indexed": true,
          "internalType": "address",
          "name": "to",
          "type": "address"
        },
        {
          "indexed": false,
          "internalType": "uint256",
          "name": "amount",
          "type": "uint256"
        }
      ],
      "name": "Reward",
      "type": "event"
    },
    {
      "inputs": [
        {
          "internalType": "address",
          "name": "",
          "type": "address"
        }
      ],
      "name": "operators",
      "outputs": [
        {
          "internalType": "bool",
          "name": "",
          "type": "bool"
        }
      ],
      "stateMutability": "view",
      "type": "function"
    },
    {
      "inputs": [],
      "name": "owner",
      "outputs": [
        {
          "internalType": "address",
          "name": "",
          "type": "address"
        }
      ],
      "stateMutability": "view",
      "type": "function"
    },
    {
      "inputs": [],
      "name": "renounceOwnership",
      "outputs": [],
      "stateMutability": "nonpayable",
      "type": "function"
    },
    {
      "inputs": [
        {
          "internalType": "address",
          "name": "newOwner",
          "type": "address"
        }
      ],
      "name": "transferOwnership",
      "outputs": [],
      "stateMutability": "nonpayable",
      "type": "function"
    },
    {
      "inputs": [],
      "name": "uink",
      "outputs": [
        {
          "internalType": "contract IERC20",
          "name": "",
          "type": "address"
        }
      ],
      "stateMutability": "view",
      "type": "function"
    },
    {
      "inputs": [
        {
          "internalType": "address",
          "name": "user",
          "type": "address"
        }
      ],
      "name": "addOperator",
      "outputs": [],
      "stateMutability": "nonpayable",
      "type": "function"
    },
    {
      "inputs": [
        {
          "internalType": "address",
          "name": "user",
          "type": "address"
        }
      ],
      "name": "removeOperator",
      "outputs": [],
      "stateMutability": "nonpayable",
      "type": "function"
    },
    {
      "inputs": [
        {
          "internalType": "address",
          "name": "to",
          "type": "address"
        },
        {
          "internalType": "uint256",
          "name": "amount",
          "type": "uint256"
        }
      ],
      "name": "sendRewards",
      "outputs": [
        {
          "internalType": "uint256",
          "name": "val",
          "type": "uint256"
        }
      ],
      "stateMutability": "nonpayable",
      "type": "function"
    },
    {
      "inputs": [
        {
          "internalType": "address",
          "name": "token",
          "type": "address"
        },
        {
          "internalType": "uint256",
          "name": "amount",
          "type": "uint256"
        },
        {
          "internalType": "address",
          "name": "to",
          "type": "address"
        }
      ],
      "name": "withdraw",
      "outputs": [],
      "stateMutability": "nonpayable",
      "type": "function"
    }
  ],
  "bytecode": "0x60806040523480156200001157600080fd5b50604051620010d9380380620010d9833981810160405281019062000037919062000182565b620000576200004b6200009f60201b60201c565b620000a760201b60201c565b80600160006101000a81548173ffffffffffffffffffffffffffffffffffffffff021916908373ffffffffffffffffffffffffffffffffffffffff16021790555050620001fc565b600033905090565b60008060009054906101000a900473ffffffffffffffffffffffffffffffffffffffff169050816000806101000a81548173ffffffffffffffffffffffffffffffffffffffff021916908373ffffffffffffffffffffffffffffffffffffffff1602179055508173ffffffffffffffffffffffffffffffffffffffff168173ffffffffffffffffffffffffffffffffffffffff167f8be0079c531659141344cd1fd0a4f28419497f9722a3daafe3b4186f6b6457e060405160405180910390a35050565b6000815190506200017c81620001e2565b92915050565b6000602082840312156200019557600080fd5b6000620001a5848285016200016b565b91505092915050565b6000620001bb82620001c2565b9050919050565b600073ffffffffffffffffffffffffffffffffffffffff82169050919050565b620001ed81620001ae565b8114620001f957600080fd5b50565b610ecd806200020c6000396000f3fe608060405234801561001057600080fd5b50600436106100935760003560e01c80639870d7fe116100665780639870d7fe1461010c578063a88d8fea14610128578063ac8a584a14610146578063c8773af214610162578063f2fde38b1461019257610093565b806313e7c9d81461009857806369328dec146100c8578063715018a6146100e45780638da5cb5b146100ee575b600080fd5b6100b260048036038101906100ad9190610a94565b6101ae565b6040516100bf9190610c83565b60405180910390f35b6100e260048036038101906100dd9190610af9565b6101ce565b005b6100ec6102dd565b005b6100f6610365565b6040516101039190610c3f565b60405180910390f35b61012660048036038101906101219190610a94565b61038e565b005b610130610465565b60405161013d9190610c9e565b60405180910390f35b610160600480360381019061015b9190610a94565b61048b565b005b61017c60048036038101906101779190610abd565b610562565b6040516101899190610d19565b60405180910390f35b6101ac60048036038101906101a79190610a94565b610650565b005b60026020528060005260406000206000915054906101000a900460ff1681565b6101d6610748565b73ffffffffffffffffffffffffffffffffffffffff166101f4610365565b73ffffffffffffffffffffffffffffffffffffffff161461024a576040517f08c379a000000000000000000000000000000000000000000000000000000000815260040161024190610cd9565b60405180910390fd5b8273ffffffffffffffffffffffffffffffffffffffff1663a9059cbb82846040518363ffffffff1660e01b8152600401610285929190610c5a565b602060405180830381600087803b15801561029f57600080fd5b505af11580156102b3573d6000803e3d6000fd5b505050506040513d601f19601f820116820180604052508101906102d79190610b48565b50505050565b6102e5610748565b73ffffffffffffffffffffffffffffffffffffffff16610303610365565b73ffffffffffffffffffffffffffffffffffffffff1614610359576040517f08c379a000000000000000000000000000000000000000000000000000000000815260040161035090610cd9565b60405180910390fd5b6103636000610750565b565b60008060009054906101000a900473ffffffffffffffffffffffffffffffffffffffff16905090565b610396610748565b73ffffffffffffffffffffffffffffffffffffffff166103b4610365565b73ffffffffffffffffffffffffffffffffffffffff161461040a576040517f08c379a000000000000000000000000000000000000000000000000000000000815260040161040190610cd9565b60405180910390fd5b6001600260008373ffffffffffffffffffffffffffffffffffffffff1673ffffffffffffffffffffffffffffffffffffffff16815260200190815260200160002060006101000a81548160ff02191690831515021790555050565b600160009054906101000a900473ffffffffffffffffffffffffffffffffffffffff1681565b610493610748565b73ffffffffffffffffffffffffffffffffffffffff166104b1610365565b73ffffffffffffffffffffffffffffffffffffffff1614610507576040517f08c379a00000000000000000000000000000000000000000000000000000000081526004016104fe90610cd9565b60405180910390fd5b6000600260008373ffffffffffffffffffffffffffffffffffffffff1673ffffffffffffffffffffffffffffffffffffffff16815260200190815260200160002060006101000a81548160ff02191690831515021790555050565b6000600260003373ffffffffffffffffffffffffffffffffffffffff1673ffffffffffffffffffffffffffffffffffffffff16815260200190815260200160002060009054906101000a900460ff166105f0576040517f08c379a00000000000000000000000000000000000000000000000000000000081526004016105e790610cf9565b60405180910390fd5b6105fa8383610814565b90508273ffffffffffffffffffffffffffffffffffffffff167f619caafabdd75649b302ba8419e48cccf64f37f1983ac4727cfb38b57703ffc9826040516106429190610d19565b60405180910390a292915050565b610658610748565b73ffffffffffffffffffffffffffffffffffffffff16610676610365565b73ffffffffffffffffffffffffffffffffffffffff16146106cc576040517f08c379a00000000000000000000000000000000000000000000000000000000081526004016106c390610cd9565b60405180910390fd5b600073ffffffffffffffffffffffffffffffffffffffff168173ffffffffffffffffffffffffffffffffffffffff16141561073c576040517f08c379a000000000000000000000000000000000000000000000000000000000815260040161073390610cb9565b60405180910390fd5b61074581610750565b50565b600033905090565b60008060009054906101000a900473ffffffffffffffffffffffffffffffffffffffff169050816000806101000a81548173ffffffffffffffffffffffffffffffffffffffff021916908373ffffffffffffffffffffffffffffffffffffffff1602179055508173ffffffffffffffffffffffffffffffffffffffff168173ffffffffffffffffffffffffffffffffffffffff167f8be0079c531659141344cd1fd0a4f28419497f9722a3daafe3b4186f6b6457e060405160405180910390a35050565b600080600160009054906101000a900473ffffffffffffffffffffffffffffffffffffffff1673ffffffffffffffffffffffffffffffffffffffff166370a08231306040518263ffffffff1660e01b81526004016108729190610c3f565b60206040518083038186803b15801561088a57600080fd5b505afa15801561089e573d6000803e3d6000fd5b505050506040513d601f19601f820116820180604052508101906108c29190610b71565b90508083111561098557600160009054906101000a900473ffffffffffffffffffffffffffffffffffffffff1673ffffffffffffffffffffffffffffffffffffffff1663a9059cbb85836040518363ffffffff1660e01b8152600401610929929190610c5a565b602060405180830381600087803b15801561094357600080fd5b505af1158015610957573d6000803e3d6000fd5b505050506040513d601f19601f8201168201806040525081019061097b9190610b48565b5080915050610a3a565b600160009054906101000a900473ffffffffffffffffffffffffffffffffffffffff1673ffffffffffffffffffffffffffffffffffffffff1663a9059cbb85856040518363ffffffff1660e01b81526004016109e2929190610c5a565b602060405180830381600087803b1580156109fc57600080fd5b505af1158015610a10573d6000803e3d6000fd5b505050506040513d601f19601f82011682018060405250810190610a349190610b48565b50829150505b92915050565b600081359050610a4f81610e52565b92915050565b600081519050610a6481610e69565b92915050565b600081359050610a7981610e80565b92915050565b600081519050610a8e81610e80565b92915050565b600060208284031215610aa657600080fd5b6000610ab484828501610a40565b91505092915050565b60008060408385031215610ad057600080fd5b6000610ade85828601610a40565b9250506020610aef85828601610a6a565b9150509250929050565b600080600060608486031215610b0e57600080fd5b6000610b1c86828701610a40565b9350506020610b2d86828701610a6a565b9250506040610b3e86828701610a40565b9150509250925092565b600060208284031215610b5a57600080fd5b6000610b6884828501610a55565b91505092915050565b600060208284031215610b8357600080fd5b6000610b9184828501610a7f565b91505092915050565b610ba381610d45565b82525050565b610bb281610d57565b82525050565b610bc181610d8d565b82525050565b6000610bd4602683610d34565b9150610bdf82610db1565b604082019050919050565b6000610bf7602083610d34565b9150610c0282610e00565b602082019050919050565b6000610c1a600c83610d34565b9150610c2582610e29565b602082019050919050565b610c3981610d83565b82525050565b6000602082019050610c546000830184610b9a565b92915050565b6000604082019050610c6f6000830185610b9a565b610c7c6020830184610c30565b9392505050565b6000602082019050610c986000830184610ba9565b92915050565b6000602082019050610cb36000830184610bb8565b92915050565b60006020820190508181036000830152610cd281610bc7565b9050919050565b60006020820190508181036000830152610cf281610bea565b9050919050565b60006020820190508181036000830152610d1281610c0d565b9050919050565b6000602082019050610d2e6000830184610c30565b92915050565b600082825260208201905092915050565b6000610d5082610d63565b9050919050565b60008115159050919050565b600073ffffffffffffffffffffffffffffffffffffffff82169050919050565b6000819050919050565b6000610d9882610d9f565b9050919050565b6000610daa82610d63565b9050919050565b7f4f776e61626c653a206e6577206f776e657220697320746865207a65726f206160008201527f6464726573730000000000000000000000000000000000000000000000000000602082015250565b7f4f776e61626c653a2063616c6c6572206973206e6f7420746865206f776e6572600082015250565b7f4e6f74204f70657261746f720000000000000000000000000000000000000000600082015250565b610e5b81610d45565b8114610e6657600080fd5b50565b610e7281610d57565b8114610e7d57600080fd5b50565b610e8981610d83565b8114610e9457600080fd5b5056fea264697066735822122038bdb4d4326920d631e185585bc6a19bf90134bf5a6aae346ed9a3b27012314964736f6c63430008040033",
  "immutableReferences": {},
  "source": "// SPDX-License-Identifier: MIT\npragma solidity ^0.8.0;\nimport \"@openzeppelin/contracts/access/Ownable.sol\";\nimport \"@openzeppelin/contracts/utils/math/SafeMath.sol\";\nimport \"@openzeppelin/contracts/token/ERC20/IERC20.sol\";\n\ncontract UinkTreasury is Ownable {\n  using SafeMath for uint256;\n\n  IERC20 public uink;\n\n  mapping (address => bool) public operators;\n\n  modifier onlyOperator() {\n    require(operators[msg.sender], \"Not Operator\");\n    _; \n  }\n  \n  function addOperator(address user) public onlyOwner {\n    operators[user] = true;\n  }\n\n  function removeOperator(address user) public onlyOwner {\n    operators[user] = false;\n  }\n\n  event Reward(address indexed to, uint256 amount);\n\n\n  constructor(address _uink) {\n    uink = IERC20(_uink);\n  }\n\n  function sendRewards(address to, uint256 amount) external onlyOperator returns(uint256 val) {\n    val = safeTransfer(to, amount);\n    emit Reward(to, val);\n  }\n\n  function withdraw(address token, uint256 amount, address to) public onlyOwner {\n    IERC20(token).transfer(to, amount);\n  }\n\n  function safeTransfer(address to, uint256 amount) internal returns(uint256) {\n    uint256 bal = uink.balanceOf(address(this));\n    if (amount > bal) {\n      uink.transfer(to, bal);\n      return bal;\n    } else {\n      uink.transfer(to, amount);\n      return amount;\n    }\n  }\n}",
  "sourcePath": "/Users/yxf/app/uniarts-eth-dao/contracts/UinkTreasury.sol",
  "compiler": {
    "name": "solc",
    "version": "0.8.4+commit.c7e474f2.Emscripten.clang"
  },
  "schemaVersion": "3.2.3",
  "updatedAt": "2021-08-27T01:56:55.062Z",
  "devdoc": {
    "kind": "dev",
    "methods": {
      "owner()": {
        "details": "Returns the address of the current owner."
      },
      "renounceOwnership()": {
        "details": "Leaves the contract without owner. It will not be possible to call `onlyOwner` functions anymore. Can only be called by the current owner. NOTE: Renouncing ownership will leave the contract without an owner, thereby removing any functionality that is only available to the owner."
      },
      "transferOwnership(address)": {
        "details": "Transfers ownership of the contract to a new account (`newOwner`). Can only be called by the current owner."
      }
    },
    "version": 1
  },
  "userdoc": {
    "kind": "user",
    "methods": {},
    "version": 1
  }
}