{
  "contractName": "UniArtsNFT",
  "abi": [
    {
      "inputs": [
        {
          "internalType": "address",
          "name": "minter",
          "type": "address"
        }
      ],
      "stateMutability": "nonpayable",
      "type": "constructor"
    },
    {
      "anonymous": false,
      "inputs": [
        {
          "indexed": true,
          "internalType": "address",
          "name": "owner",
          "type": "address"
        },
        {
          "indexed": true,
          "internalType": "address",
          "name": "approved",
          "type": "address"
        },
        {
          "indexed": true,
          "internalType": "uint256",
          "name": "tokenId",
          "type": "uint256"
        }
      ],
      "name": "Approval",
      "type": "event"
    },
    {
      "anonymous": false,
      "inputs": [
        {
          "indexed": true,
          "internalType": "address",
          "name": "owner",
          "type": "address"
        },
        {
          "indexed": true,
          "internalType": "address",
          "name": "operator",
          "type": "address"
        },
        {
          "indexed": false,
          "internalType": "bool",
          "name": "approved",
          "type": "bool"
        }
      ],
      "name": "ApprovalForAll",
      "type": "event"
    },
    {
      "anonymous": false,
      "inputs": [
        {
          "indexed": true,
          "internalType": "bytes32",
          "name": "role",
          "type": "bytes32"
        },
        {
          "indexed": true,
          "internalType": "bytes32",
          "name": "previousAdminRole",
          "type": "bytes32"
        },
        {
          "indexed": true,
          "internalType": "bytes32",
          "name": "newAdminRole",
          "type": "bytes32"
        }
      ],
      "name": "RoleAdminChanged",
      "type": "event"
    },
    {
      "anonymous": false,
      "inputs": [
        {
          "indexed": true,
          "internalType": "bytes32",
          "name": "role",
          "type": "bytes32"
        },
        {
          "indexed": true,
          "internalType": "address",
          "name": "account",
          "type": "address"
        },
        {
          "indexed": true,
          "internalType": "address",
          "name": "sender",
          "type": "address"
        }
      ],
      "name": "RoleGranted",
      "type": "event"
    },
    {
      "anonymous": false,
      "inputs": [
        {
          "indexed": true,
          "internalType": "bytes32",
          "name": "role",
          "type": "bytes32"
        },
        {
          "indexed": true,
          "internalType": "address",
          "name": "account",
          "type": "address"
        },
        {
          "indexed": true,
          "internalType": "address",
          "name": "sender",
          "type": "address"
        }
      ],
      "name": "RoleRevoked",
      "type": "event"
    },
    {
      "anonymous": false,
      "inputs": [
        {
          "indexed": true,
          "internalType": "address",
          "name": "from",
          "type": "address"
        },
        {
          "indexed": true,
          "internalType": "address",
          "name": "to",
          "type": "address"
        },
        {
          "indexed": true,
          "internalType": "uint256",
          "name": "tokenId",
          "type": "uint256"
        }
      ],
      "name": "Transfer",
      "type": "event"
    },
    {
      "inputs": [],
      "name": "DEFAULT_ADMIN_ROLE",
      "outputs": [
        {
          "internalType": "bytes32",
          "name": "",
          "type": "bytes32"
        }
      ],
      "stateMutability": "view",
      "type": "function"
    },
    {
      "inputs": [],
      "name": "MINTER_ROLE",
      "outputs": [
        {
          "internalType": "bytes32",
          "name": "",
          "type": "bytes32"
        }
      ],
      "stateMutability": "view",
      "type": "function"
    },
    {
      "inputs": [
        {
          "internalType": "address",
          "name": "to",
          "type": "address"
        },
        {
          "internalType": "uint256",
          "name": "tokenId",
          "type": "uint256"
        }
      ],
      "name": "approve",
      "outputs": [],
      "stateMutability": "nonpayable",
      "type": "function"
    },
    {
      "inputs": [
        {
          "internalType": "address",
          "name": "owner",
          "type": "address"
        }
      ],
      "name": "balanceOf",
      "outputs": [
        {
          "internalType": "uint256",
          "name": "",
          "type": "uint256"
        }
      ],
      "stateMutability": "view",
      "type": "function"
    },
    {
      "inputs": [
        {
          "internalType": "uint256",
          "name": "tokenId",
          "type": "uint256"
        }
      ],
      "name": "getApproved",
      "outputs": [
        {
          "internalType": "address",
          "name": "",
          "type": "address"
        }
      ],
      "stateMutability": "view",
      "type": "function"
    },
    {
      "inputs": [
        {
          "internalType": "bytes32",
          "name": "role",
          "type": "bytes32"
        }
      ],
      "name": "getRoleAdmin",
      "outputs": [
        {
          "internalType": "bytes32",
          "name": "",
          "type": "bytes32"
        }
      ],
      "stateMutability": "view",
      "type": "function"
    },
    {
      "inputs": [
        {
          "internalType": "bytes32",
          "name": "role",
          "type": "bytes32"
        },
        {
          "internalType": "address",
          "name": "account",
          "type": "address"
        }
      ],
      "name": "grantRole",
      "outputs": [],
      "stateMutability": "nonpayable",
      "type": "function"
    },
    {
      "inputs": [
        {
          "internalType": "bytes32",
          "name": "role",
          "type": "bytes32"
        },
        {
          "internalType": "address",
          "name": "account",
          "type": "address"
        }
      ],
      "name": "hasRole",
      "outputs": [
        {
          "internalType": "bool",
          "name": "",
          "type": "bool"
        }
      ],
      "stateMutability": "view",
      "type": "function"
    },
    {
      "inputs": [
        {
          "internalType": "address",
          "name": "owner",
          "type": "address"
        },
        {
          "internalType": "address",
          "name": "operator",
          "type": "address"
        }
      ],
      "name": "isApprovedForAll",
      "outputs": [
        {
          "internalType": "bool",
          "name": "",
          "type": "bool"
        }
      ],
      "stateMutability": "view",
      "type": "function"
    },
    {
      "inputs": [],
      "name": "name",
      "outputs": [
        {
          "internalType": "string",
          "name": "",
          "type": "string"
        }
      ],
      "stateMutability": "view",
      "type": "function"
    },
    {
      "inputs": [
        {
          "internalType": "uint256",
          "name": "tokenId",
          "type": "uint256"
        }
      ],
      "name": "ownerOf",
      "outputs": [
        {
          "internalType": "address",
          "name": "",
          "type": "address"
        }
      ],
      "stateMutability": "view",
      "type": "function"
    },
    {
      "inputs": [
        {
          "internalType": "bytes32",
          "name": "role",
          "type": "bytes32"
        },
        {
          "internalType": "address",
          "name": "account",
          "type": "address"
        }
      ],
      "name": "renounceRole",
      "outputs": [],
      "stateMutability": "nonpayable",
      "type": "function"
    },
    {
      "inputs": [
        {
          "internalType": "bytes32",
          "name": "role",
          "type": "bytes32"
        },
        {
          "internalType": "address",
          "name": "account",
          "type": "address"
        }
      ],
      "name": "revokeRole",
      "outputs": [],
      "stateMutability": "nonpayable",
      "type": "function"
    },
    {
      "inputs": [
        {
          "internalType": "address",
          "name": "from",
          "type": "address"
        },
        {
          "internalType": "address",
          "name": "to",
          "type": "address"
        },
        {
          "internalType": "uint256",
          "name": "tokenId",
          "type": "uint256"
        }
      ],
      "name": "safeTransferFrom",
      "outputs": [],
      "stateMutability": "nonpayable",
      "type": "function"
    },
    {
      "inputs": [
        {
          "internalType": "address",
          "name": "from",
          "type": "address"
        },
        {
          "internalType": "address",
          "name": "to",
          "type": "address"
        },
        {
          "internalType": "uint256",
          "name": "tokenId",
          "type": "uint256"
        },
        {
          "internalType": "bytes",
          "name": "_data",
          "type": "bytes"
        }
      ],
      "name": "safeTransferFrom",
      "outputs": [],
      "stateMutability": "nonpayable",
      "type": "function"
    },
    {
      "inputs": [
        {
          "internalType": "address",
          "name": "operator",
          "type": "address"
        },
        {
          "internalType": "bool",
          "name": "approved",
          "type": "bool"
        }
      ],
      "name": "setApprovalForAll",
      "outputs": [],
      "stateMutability": "nonpayable",
      "type": "function"
    },
    {
      "inputs": [],
      "name": "symbol",
      "outputs": [
        {
          "internalType": "string",
          "name": "",
          "type": "string"
        }
      ],
      "stateMutability": "view",
      "type": "function"
    },
    {
      "inputs": [
        {
          "internalType": "uint256",
          "name": "tokenId",
          "type": "uint256"
        }
      ],
      "name": "tokenURI",
      "outputs": [
        {
          "internalType": "string",
          "name": "",
          "type": "string"
        }
      ],
      "stateMutability": "view",
      "type": "function"
    },
    {
      "inputs": [
        {
          "internalType": "uint256",
          "name": "",
          "type": "uint256"
        }
      ],
      "name": "token_infos",
      "outputs": [
        {
          "internalType": "string",
          "name": "title",
          "type": "string"
        },
        {
          "internalType": "uint8",
          "name": "class_id",
          "type": "uint8"
        },
        {
          "internalType": "uint8",
          "name": "size",
          "type": "uint8"
        }
      ],
      "stateMutability": "view",
      "type": "function"
    },
    {
      "inputs": [
        {
          "internalType": "address",
          "name": "from",
          "type": "address"
        },
        {
          "internalType": "address",
          "name": "to",
          "type": "address"
        },
        {
          "internalType": "uint256",
          "name": "tokenId",
          "type": "uint256"
        }
      ],
      "name": "transferFrom",
      "outputs": [],
      "stateMutability": "nonpayable",
      "type": "function"
    },
    {
      "inputs": [
        {
          "internalType": "address",
          "name": "user_address",
          "type": "address"
        },
        {
          "internalType": "string",
          "name": "title",
          "type": "string"
        },
        {
          "internalType": "uint8",
          "name": "class_id",
          "type": "uint8"
        },
        {
          "internalType": "uint8",
          "name": "size",
          "type": "uint8"
        }
      ],
      "name": "createNFT",
      "outputs": [],
      "stateMutability": "nonpayable",
      "type": "function"
    },
    {
      "inputs": [
        {
          "internalType": "uint256",
          "name": "tokenId",
          "type": "uint256"
        }
      ],
      "name": "getNFT",
      "outputs": [
        {
          "internalType": "string",
          "name": "title",
          "type": "string"
        },
        {
          "internalType": "uint8",
          "name": "class_id",
          "type": "uint8"
        },
        {
          "internalType": "uint8",
          "name": "size",
          "type": "uint8"
        }
      ],
      "stateMutability": "view",
      "type": "function"
    },
    {
      "inputs": [
        {
          "internalType": "bytes4",
          "name": "interfaceId",
          "type": "bytes4"
        }
      ],
      "name": "supportsInterface",
      "outputs": [
        {
          "internalType": "bool",
          "name": "",
          "type": "bool"
        }
      ],
      "stateMutability": "view",
      "type": "function"
    }
  ],
  "bytecode": "0x60806040523480156200001157600080fd5b5060405162003d7138038062003d71833981810160405281019062000037919062000367565b6040518060400160405280600a81526020017f556e69417274734e4654000000000000000000000000000000000000000000008152506040518060400160405280600581526020017f55414e46540000000000000000000000000000000000000000000000000000008152508160009080519060200190620000bb929190620002a0565b508060019080519060200190620000d4929190620002a0565b505050620001097f9f2df0fed2c77648de5860a4cc508cd0818c85b8b8a1ab4ceeef8d981c8956a6826200012560201b60201c565b6200011e6000801b826200012560201b60201c565b5062000446565b6200013782826200013b60201b60201c565b5050565b6200014d82826200022d60201b60201c565b620002295760016006600084815260200190815260200160002060000160008373ffffffffffffffffffffffffffffffffffffffff1673ffffffffffffffffffffffffffffffffffffffff16815260200190815260200160002060006101000a81548160ff021916908315150217905550620001ce6200029860201b60201c565b73ffffffffffffffffffffffffffffffffffffffff168173ffffffffffffffffffffffffffffffffffffffff16837f2f8788117e7eff1d82e926ec794901d17c78024a50270940304540a733656f0d60405160405180910390a45b5050565b60006006600084815260200190815260200160002060000160008373ffffffffffffffffffffffffffffffffffffffff1673ffffffffffffffffffffffffffffffffffffffff16815260200190815260200160002060009054906101000a900460ff16905092915050565b600033905090565b828054620002ae90620003c7565b90600052602060002090601f016020900481019282620002d257600085556200031e565b82601f10620002ed57805160ff19168380011785556200031e565b828001600101855582156200031e579182015b828111156200031d57825182559160200191906001019062000300565b5b5090506200032d919062000331565b5090565b5b808211156200034c57600081600090555060010162000332565b5090565b60008151905062000361816200042c565b92915050565b6000602082840312156200037a57600080fd5b60006200038a8482850162000350565b91505092915050565b6000620003a082620003a7565b9050919050565b600073ffffffffffffffffffffffffffffffffffffffff82169050919050565b60006002820490506001821680620003e057607f821691505b60208210811415620003f757620003f6620003fd565b5b50919050565b7f4e487b7100000000000000000000000000000000000000000000000000000000600052602260045260246000fd5b620004378162000393565b81146200044357600080fd5b50565b61391b80620004566000396000f3fe608060405234801561001057600080fd5b506004361061014d5760003560e01c80635e82866e116100c3578063a22cb4651161007c578063a22cb465146103d8578063b88d4fde146103f4578063c87b56dd14610410578063d539139314610440578063d547741f1461045e578063e985e9c51461047a5761014d565b80635e82866e146102da5780636352211e1461030c57806370a082311461033c57806391d148541461036c57806395d89b411461039c578063a217fddf146103ba5761014d565b8063248a9ca311610115578063248a9ca3146102085780632f2ff15d1461023857806336568abe1461025457806342842e0e14610270578063576f7ea71461028c5780635c1d7a6a146102be5761014d565b806301ffc9a71461015257806306fdde0314610182578063081812fc146101a0578063095ea7b3146101d057806323b872dd146101ec575b600080fd5b61016c600480360381019061016791906127a1565b6104aa565b6040516101799190612c68565b60405180910390f35b61018a6104bc565b6040516101979190612c9e565b60405180910390f35b6101ba60048036038101906101b591906127f3565b61054e565b6040516101c79190612c01565b60405180910390f35b6101ea60048036038101906101e59190612700565b6105d3565b005b6102066004803603810190610201919061257a565b6106eb565b005b610222600480360381019061021d919061273c565b61074b565b60405161022f9190612c83565b60405180910390f35b610252600480360381019061024d9190612765565b61076b565b005b61026e60048036038101906102699190612765565b610794565b005b61028a6004803603810190610285919061257a565b610817565b005b6102a660048036038101906102a191906127f3565b610837565b6040516102b593929190612cc0565b60405180910390f35b6102d860048036038101906102d39190612680565b6109d2565b005b6102f460048036038101906102ef91906127f3565b610b54565b60405161030393929190612cc0565b60405180910390f35b610326600480360381019061032191906127f3565b610c30565b6040516103339190612c01565b60405180910390f35b61035660048036038101906103519190612515565b610ce2565b6040516103639190612f1e565b60405180910390f35b61038660048036038101906103819190612765565b610d9a565b6040516103939190612c68565b60405180910390f35b6103a4610e05565b6040516103b19190612c9e565b60405180910390f35b6103c2610e97565b6040516103cf9190612c83565b60405180910390f35b6103f260048036038101906103ed9190612644565b610e9e565b005b61040e600480360381019061040991906125c9565b61101f565b005b61042a600480360381019061042591906127f3565b611081565b6040516104379190612c9e565b60405180910390f35b610448611128565b6040516104559190612c83565b60405180910390f35b61047860048036038101906104739190612765565b61114c565b005b610494600480360381019061048f919061253e565b611175565b6040516104a19190612c68565b60405180910390f35b60006104b582611209565b9050919050565b6060600080546104cb906131de565b80601f01602080910402602001604051908101604052809291908181526020018280546104f7906131de565b80156105445780601f1061051957610100808354040283529160200191610544565b820191906000526020600020905b81548152906001019060200180831161052757829003601f168201915b5050505050905090565b600061055982611283565b610598576040517f08c379a000000000000000000000000000000000000000000000000000000000815260040161058f90612e5e565b60405180910390fd5b6004600083815260200190815260200160002060009054906101000a900473ffffffffffffffffffffffffffffffffffffffff169050919050565b60006105de82610c30565b90508073ffffffffffffffffffffffffffffffffffffffff168373ffffffffffffffffffffffffffffffffffffffff16141561064f576040517f08c379a000000000000000000000000000000000000000000000000000000000815260040161064690612ebe565b60405180910390fd5b8073ffffffffffffffffffffffffffffffffffffffff1661066e6112ef565b73ffffffffffffffffffffffffffffffffffffffff16148061069d575061069c816106976112ef565b611175565b5b6106dc576040517f08c379a00000000000000000000000000000000000000000000000000000000081526004016106d390612dbe565b60405180910390fd5b6106e683836112f7565b505050565b6106fc6106f66112ef565b826113b0565b61073b576040517f08c379a000000000000000000000000000000000000000000000000000000000815260040161073290612ede565b60405180910390fd5b61074683838361148e565b505050565b600060066000838152602001908152602001600020600101549050919050565b6107748261074b565b610785816107806112ef565b6116ea565b61078f8383611787565b505050565b61079c6112ef565b73ffffffffffffffffffffffffffffffffffffffff168173ffffffffffffffffffffffffffffffffffffffff1614610809576040517f08c379a000000000000000000000000000000000000000000000000000000000815260040161080090612efe565b60405180910390fd5b6108138282611868565b5050565b6108328383836040518060200160405280600081525061101f565b505050565b606060008060078481548110610876577f4e487b7100000000000000000000000000000000000000000000000000000000600052603260045260246000fd5b9060005260206000209060020201600001600785815481106108c1577f4e487b7100000000000000000000000000000000000000000000000000000000600052603260045260246000fd5b906000526020600020906002020160010160009054906101000a900460ff166007868154811061091a577f4e487b7100000000000000000000000000000000000000000000000000000000600052603260045260246000fd5b906000526020600020906002020160010160019054906101000a900460ff16828054610945906131de565b80601f0160208091040260200160405190810160405280929190818152602001828054610971906131de565b80156109be5780601f10610993576101008083540402835291602001916109be565b820191906000526020600020905b8154815290600101906020018083116109a157829003601f168201915b505050505092509250925092509193909250565b6109fc7f9f2df0fed2c77648de5860a4cc508cd0818c85b8b8a1ab4ceeef8d981c8956a633610d9a565b610a3b576040517f08c379a0000000000000000000000000000000000000000000000000000000008152600401610a3290612dde565b60405180910390fd5b6007604051806060016040528086868080601f016020809104026020016040519081016040528093929190818152602001838380828437600081840152601f19601f8201169050808301925050505050505081526020018460ff1681526020018360ff1681525090806001815401808255809150506001900390600052602060002090600202016000909190919091506000820151816000019080519060200190610ae792919061232d565b5060208201518160010160006101000a81548160ff021916908360ff16021790555060408201518160010160016101000a81548160ff021916908360ff160217905550505060006001600780549050610b4091906130b3565b9050610b4c868261194a565b505050505050565b60078181548110610b6457600080fd5b9060005260206000209060020201600091509050806000018054610b87906131de565b80601f0160208091040260200160405190810160405280929190818152602001828054610bb3906131de565b8015610c005780601f10610bd557610100808354040283529160200191610c00565b820191906000526020600020905b815481529060010190602001808311610be357829003601f168201915b5050505050908060010160009054906101000a900460ff16908060010160019054906101000a900460ff16905083565b6000806002600084815260200190815260200160002060009054906101000a900473ffffffffffffffffffffffffffffffffffffffff169050600073ffffffffffffffffffffffffffffffffffffffff168173ffffffffffffffffffffffffffffffffffffffff161415610cd9576040517f08c379a0000000000000000000000000000000000000000000000000000000008152600401610cd090612e1e565b60405180910390fd5b80915050919050565b60008073ffffffffffffffffffffffffffffffffffffffff168273ffffffffffffffffffffffffffffffffffffffff161415610d53576040517f08c379a0000000000000000000000000000000000000000000000000000000008152600401610d4a90612dfe565b60405180910390fd5b600360008373ffffffffffffffffffffffffffffffffffffffff1673ffffffffffffffffffffffffffffffffffffffff168152602001908152602001600020549050919050565b60006006600084815260200190815260200160002060000160008373ffffffffffffffffffffffffffffffffffffffff1673ffffffffffffffffffffffffffffffffffffffff16815260200190815260200160002060009054906101000a900460ff16905092915050565b606060018054610e14906131de565b80601f0160208091040260200160405190810160405280929190818152602001828054610e40906131de565b8015610e8d5780601f10610e6257610100808354040283529160200191610e8d565b820191906000526020600020905b815481529060010190602001808311610e7057829003601f168201915b5050505050905090565b6000801b81565b610ea66112ef565b73ffffffffffffffffffffffffffffffffffffffff168273ffffffffffffffffffffffffffffffffffffffff161415610f14576040517f08c379a0000000000000000000000000000000000000000000000000000000008152600401610f0b90612d7e565b60405180910390fd5b8060056000610f216112ef565b73ffffffffffffffffffffffffffffffffffffffff1673ffffffffffffffffffffffffffffffffffffffff16815260200190815260200160002060008473ffffffffffffffffffffffffffffffffffffffff1673ffffffffffffffffffffffffffffffffffffffff16815260200190815260200160002060006101000a81548160ff0219169083151502179055508173ffffffffffffffffffffffffffffffffffffffff16610fce6112ef565b73ffffffffffffffffffffffffffffffffffffffff167f17307eab39ab6107e8899845ad3d59bd9653f200f220920489ca2b5937696c31836040516110139190612c68565b60405180910390a35050565b61103061102a6112ef565b836113b0565b61106f576040517f08c379a000000000000000000000000000000000000000000000000000000000815260040161106690612ede565b60405180910390fd5b61107b84848484611b18565b50505050565b606061108c82611283565b6110cb576040517f08c379a00000000000000000000000000000000000000000000000000000000081526004016110c290612e9e565b60405180910390fd5b60006110d5611b74565b905060008151116110f55760405180602001604052806000815250611120565b806110ff84611b8b565b604051602001611110929190612ba3565b6040516020818303038152906040525b915050919050565b7f9f2df0fed2c77648de5860a4cc508cd0818c85b8b8a1ab4ceeef8d981c8956a681565b6111558261074b565b611166816111616112ef565b6116ea565b6111708383611868565b505050565b6000600560008473ffffffffffffffffffffffffffffffffffffffff1673ffffffffffffffffffffffffffffffffffffffff16815260200190815260200160002060008373ffffffffffffffffffffffffffffffffffffffff1673ffffffffffffffffffffffffffffffffffffffff16815260200190815260200160002060009054906101000a900460ff16905092915050565b60007f7965db0b000000000000000000000000000000000000000000000000000000007bffffffffffffffffffffffffffffffffffffffffffffffffffffffff1916827bffffffffffffffffffffffffffffffffffffffffffffffffffffffff1916148061127c575061127b82611d38565b5b9050919050565b60008073ffffffffffffffffffffffffffffffffffffffff166002600084815260200190815260200160002060009054906101000a900473ffffffffffffffffffffffffffffffffffffffff1673ffffffffffffffffffffffffffffffffffffffff1614159050919050565b600033905090565b816004600083815260200190815260200160002060006101000a81548173ffffffffffffffffffffffffffffffffffffffff021916908373ffffffffffffffffffffffffffffffffffffffff160217905550808273ffffffffffffffffffffffffffffffffffffffff1661136a83610c30565b73ffffffffffffffffffffffffffffffffffffffff167f8c5be1e5ebec7d5bd14f71427d1e84f3dd0314c0f7b2291e5b200ac8c7c3b92560405160405180910390a45050565b60006113bb82611283565b6113fa576040517f08c379a00000000000000000000000000000000000000000000000000000000081526004016113f190612d9e565b60405180910390fd5b600061140583610c30565b90508073ffffffffffffffffffffffffffffffffffffffff168473ffffffffffffffffffffffffffffffffffffffff16148061147457508373ffffffffffffffffffffffffffffffffffffffff1661145c8461054e565b73ffffffffffffffffffffffffffffffffffffffff16145b8061148557506114848185611175565b5b91505092915050565b8273ffffffffffffffffffffffffffffffffffffffff166114ae82610c30565b73ffffffffffffffffffffffffffffffffffffffff1614611504576040517f08c379a00000000000000000000000000000000000000000000000000000000081526004016114fb90612e7e565b60405180910390fd5b600073ffffffffffffffffffffffffffffffffffffffff168273ffffffffffffffffffffffffffffffffffffffff161415611574576040517f08c379a000000000000000000000000000000000000000000000000000000000815260040161156b90612d5e565b60405180910390fd5b61157f838383611e1a565b61158a6000826112f7565b6001600360008573ffffffffffffffffffffffffffffffffffffffff1673ffffffffffffffffffffffffffffffffffffffff16815260200190815260200160002060008282546115da91906130b3565b925050819055506001600360008473ffffffffffffffffffffffffffffffffffffffff1673ffffffffffffffffffffffffffffffffffffffff16815260200190815260200160002060008282546116319190612fd2565b92505081905550816002600083815260200190815260200160002060006101000a81548173ffffffffffffffffffffffffffffffffffffffff021916908373ffffffffffffffffffffffffffffffffffffffff160217905550808273ffffffffffffffffffffffffffffffffffffffff168473ffffffffffffffffffffffffffffffffffffffff167fddf252ad1be2c89b69c2b068fc378daa952ba7f163c4a11628f55a4df523b3ef60405160405180910390a4505050565b6116f48282610d9a565b611783576117198173ffffffffffffffffffffffffffffffffffffffff166014611e1f565b6117278360001c6020611e1f565b604051602001611738929190612bc7565b6040516020818303038152906040526040517f08c379a000000000000000000000000000000000000000000000000000000000815260040161177a9190612c9e565b60405180910390fd5b5050565b6117918282610d9a565b6118645760016006600084815260200190815260200160002060000160008373ffffffffffffffffffffffffffffffffffffffff1673ffffffffffffffffffffffffffffffffffffffff16815260200190815260200160002060006101000a81548160ff0219169083151502179055506118096112ef565b73ffffffffffffffffffffffffffffffffffffffff168173ffffffffffffffffffffffffffffffffffffffff16837f2f8788117e7eff1d82e926ec794901d17c78024a50270940304540a733656f0d60405160405180910390a45b5050565b6118728282610d9a565b156119465760006006600084815260200190815260200160002060000160008373ffffffffffffffffffffffffffffffffffffffff1673ffffffffffffffffffffffffffffffffffffffff16815260200190815260200160002060006101000a81548160ff0219169083151502179055506118eb6112ef565b73ffffffffffffffffffffffffffffffffffffffff168173ffffffffffffffffffffffffffffffffffffffff16837ff6391f5c32d9c69d2a47ea670b442974b53935d1edc7fd64eb21e047a839171b60405160405180910390a45b5050565b600073ffffffffffffffffffffffffffffffffffffffff168273ffffffffffffffffffffffffffffffffffffffff1614156119ba576040517f08c379a00000000000000000000000000000000000000000000000000000000081526004016119b190612e3e565b60405180910390fd5b6119c381611283565b15611a03576040517f08c379a00000000000000000000000000000000000000000000000000000000081526004016119fa90612d3e565b60405180910390fd5b611a0f60008383611e1a565b6001600360008473ffffffffffffffffffffffffffffffffffffffff1673ffffffffffffffffffffffffffffffffffffffff1681526020019081526020016000206000828254611a5f9190612fd2565b92505081905550816002600083815260200190815260200160002060006101000a81548173ffffffffffffffffffffffffffffffffffffffff021916908373ffffffffffffffffffffffffffffffffffffffff160217905550808273ffffffffffffffffffffffffffffffffffffffff16600073ffffffffffffffffffffffffffffffffffffffff167fddf252ad1be2c89b69c2b068fc378daa952ba7f163c4a11628f55a4df523b3ef60405160405180910390a45050565b611b2384848461148e565b611b2f84848484612119565b611b6e576040517f08c379a0000000000000000000000000000000000000000000000000000000008152600401611b6590612d1e565b60405180910390fd5b50505050565b606060405180602001604052806000815250905090565b60606000821415611bd3576040518060400160405280600181526020017f30000000000000000000000000000000000000000000000000000000000000008152509050611d33565b600082905060005b60008214611c05578080611bee90613241565b915050600a82611bfe9190613028565b9150611bdb565b60008167ffffffffffffffff811115611c47577f4e487b7100000000000000000000000000000000000000000000000000000000600052604160045260246000fd5b6040519080825280601f01601f191660200182016040528015611c795781602001600182028036833780820191505090505b5090505b60008514611d2c57600182611c9291906130b3565b9150600a85611ca1919061328a565b6030611cad9190612fd2565b60f81b818381518110611ce9577f4e487b7100000000000000000000000000000000000000000000000000000000600052603260045260246000fd5b60200101907effffffffffffffffffffffffffffffffffffffffffffffffffffffffffffff1916908160001a905350600a85611d259190613028565b9450611c7d565b8093505050505b919050565b60007f80ac58cd000000000000000000000000000000000000000000000000000000007bffffffffffffffffffffffffffffffffffffffffffffffffffffffff1916827bffffffffffffffffffffffffffffffffffffffffffffffffffffffff19161480611e0357507f5b5e139f000000000000000000000000000000000000000000000000000000007bffffffffffffffffffffffffffffffffffffffffffffffffffffffff1916827bffffffffffffffffffffffffffffffffffffffffffffffffffffffff1916145b80611e135750611e12826122b0565b5b9050919050565b505050565b606060006002836002611e329190613059565b611e3c9190612fd2565b67ffffffffffffffff811115611e7b577f4e487b7100000000000000000000000000000000000000000000000000000000600052604160045260246000fd5b6040519080825280601f01601f191660200182016040528015611ead5781602001600182028036833780820191505090505b5090507f300000000000000000000000000000000000000000000000000000000000000081600081518110611f0b577f4e487b7100000000000000000000000000000000000000000000000000000000600052603260045260246000fd5b60200101907effffffffffffffffffffffffffffffffffffffffffffffffffffffffffffff1916908160001a9053507f780000000000000000000000000000000000000000000000000000000000000081600181518110611f95577f4e487b7100000000000000000000000000000000000000000000000000000000600052603260045260246000fd5b60200101907effffffffffffffffffffffffffffffffffffffffffffffffffffffffffffff1916908160001a90535060006001846002611fd59190613059565b611fdf9190612fd2565b90505b60018111156120cb577f3031323334353637383961626364656600000000000000000000000000000000600f861660108110612047577f4e487b7100000000000000000000000000000000000000000000000000000000600052603260045260246000fd5b1a60f81b828281518110612084577f4e487b7100000000000000000000000000000000000000000000000000000000600052603260045260246000fd5b60200101907effffffffffffffffffffffffffffffffffffffffffffffffffffffffffffff1916908160001a905350600485901c9450806120c4906131b4565b9050611fe2565b506000841461210f576040517f08c379a000000000000000000000000000000000000000000000000000000000815260040161210690612cfe565b60405180910390fd5b8091505092915050565b600061213a8473ffffffffffffffffffffffffffffffffffffffff1661231a565b156122a3578373ffffffffffffffffffffffffffffffffffffffff1663150b7a026121636112ef565b8786866040518563ffffffff1660e01b81526004016121859493929190612c1c565b602060405180830381600087803b15801561219f57600080fd5b505af19250505080156121d057506040513d601f19601f820116820180604052508101906121cd91906127ca565b60015b612253573d8060008114612200576040519150601f19603f3d011682016040523d82523d6000602084013e612205565b606091505b5060008151141561224b576040517f08c379a000000000000000000000000000000000000000000000000000000000815260040161224290612d1e565b60405180910390fd5b805181602001fd5b63150b7a0260e01b7bffffffffffffffffffffffffffffffffffffffffffffffffffffffff1916817bffffffffffffffffffffffffffffffffffffffffffffffffffffffff1916149150506122a8565b600190505b949350505050565b60007f01ffc9a7000000000000000000000000000000000000000000000000000000007bffffffffffffffffffffffffffffffffffffffffffffffffffffffff1916827bffffffffffffffffffffffffffffffffffffffffffffffffffffffff1916149050919050565b600080823b905060008111915050919050565b828054612339906131de565b90600052602060002090601f01602090048101928261235b57600085556123a2565b82601f1061237457805160ff19168380011785556123a2565b828001600101855582156123a2579182015b828111156123a1578251825591602001919060010190612386565b5b5090506123af91906123b3565b5090565b5b808211156123cc5760008160009055506001016123b4565b5090565b60006123e36123de84612f5e565b612f39565b9050828152602081018484840111156123fb57600080fd5b612406848285613172565b509392505050565b60008135905061241d8161385b565b92915050565b60008135905061243281613872565b92915050565b60008135905061244781613889565b92915050565b60008135905061245c816138a0565b92915050565b600081519050612471816138a0565b92915050565b600082601f83011261248857600080fd5b81356124988482602086016123d0565b91505092915050565b60008083601f8401126124b357600080fd5b8235905067ffffffffffffffff8111156124cc57600080fd5b6020830191508360018202830111156124e457600080fd5b9250929050565b6000813590506124fa816138b7565b92915050565b60008135905061250f816138ce565b92915050565b60006020828403121561252757600080fd5b60006125358482850161240e565b91505092915050565b6000806040838503121561255157600080fd5b600061255f8582860161240e565b92505060206125708582860161240e565b9150509250929050565b60008060006060848603121561258f57600080fd5b600061259d8682870161240e565b93505060206125ae8682870161240e565b92505060406125bf868287016124eb565b9150509250925092565b600080600080608085870312156125df57600080fd5b60006125ed8782880161240e565b94505060206125fe8782880161240e565b935050604061260f878288016124eb565b925050606085013567ffffffffffffffff81111561262c57600080fd5b61263887828801612477565b91505092959194509250565b6000806040838503121561265757600080fd5b60006126658582860161240e565b925050602061267685828601612423565b9150509250929050565b60008060008060006080868803121561269857600080fd5b60006126a68882890161240e565b955050602086013567ffffffffffffffff8111156126c357600080fd5b6126cf888289016124a1565b945094505060406126e288828901612500565b92505060606126f388828901612500565b9150509295509295909350565b6000806040838503121561271357600080fd5b60006127218582860161240e565b9250506020612732858286016124eb565b9150509250929050565b60006020828403121561274e57600080fd5b600061275c84828501612438565b91505092915050565b6000806040838503121561277857600080fd5b600061278685828601612438565b92505060206127978582860161240e565b9150509250929050565b6000602082840312156127b357600080fd5b60006127c18482850161244d565b91505092915050565b6000602082840312156127dc57600080fd5b60006127ea84828501612462565b91505092915050565b60006020828403121561280557600080fd5b6000612813848285016124eb565b91505092915050565b612825816130e7565b82525050565b612834816130f9565b82525050565b61284381613105565b82525050565b600061285482612f8f565b61285e8185612fa5565b935061286e818560208601613181565b61287781613377565b840191505092915050565b600061288d82612f9a565b6128978185612fb6565b93506128a7818560208601613181565b6128b081613377565b840191505092915050565b60006128c682612f9a565b6128d08185612fc7565b93506128e0818560208601613181565b80840191505092915050565b60006128f9602083612fb6565b915061290482613388565b602082019050919050565b600061291c603283612fb6565b9150612927826133b1565b604082019050919050565b600061293f601c83612fb6565b915061294a82613400565b602082019050919050565b6000612962602483612fb6565b915061296d82613429565b604082019050919050565b6000612985601983612fb6565b915061299082613478565b602082019050919050565b60006129a8602c83612fb6565b91506129b3826134a1565b604082019050919050565b60006129cb603883612fb6565b91506129d6826134f0565b604082019050919050565b60006129ee601683612fb6565b91506129f98261353f565b602082019050919050565b6000612a11602a83612fb6565b9150612a1c82613568565b604082019050919050565b6000612a34602983612fb6565b9150612a3f826135b7565b604082019050919050565b6000612a57602083612fb6565b9150612a6282613606565b602082019050919050565b6000612a7a602c83612fb6565b9150612a858261362f565b604082019050919050565b6000612a9d602983612fb6565b9150612aa88261367e565b604082019050919050565b6000612ac0602f83612fb6565b9150612acb826136cd565b604082019050919050565b6000612ae3602183612fb6565b9150612aee8261371c565b604082019050919050565b6000612b06603183612fb6565b9150612b118261376b565b604082019050919050565b6000612b29601783612fc7565b9150612b34826137ba565b601782019050919050565b6000612b4c601183612fc7565b9150612b57826137e3565b601182019050919050565b6000612b6f602f83612fb6565b9150612b7a8261380c565b604082019050919050565b612b8e8161315b565b82525050565b612b9d81613165565b82525050565b6000612baf82856128bb565b9150612bbb82846128bb565b91508190509392505050565b6000612bd282612b1c565b9150612bde82856128bb565b9150612be982612b3f565b9150612bf582846128bb565b91508190509392505050565b6000602082019050612c16600083018461281c565b92915050565b6000608082019050612c31600083018761281c565b612c3e602083018661281c565b612c4b6040830185612b85565b8181036060830152612c5d8184612849565b905095945050505050565b6000602082019050612c7d600083018461282b565b92915050565b6000602082019050612c98600083018461283a565b92915050565b60006020820190508181036000830152612cb88184612882565b905092915050565b60006060820190508181036000830152612cda8186612882565b9050612ce96020830185612b94565b612cf66040830184612b94565b949350505050565b60006020820190508181036000830152612d17816128ec565b9050919050565b60006020820190508181036000830152612d378161290f565b9050919050565b60006020820190508181036000830152612d5781612932565b9050919050565b60006020820190508181036000830152612d7781612955565b9050919050565b60006020820190508181036000830152612d9781612978565b9050919050565b60006020820190508181036000830152612db78161299b565b9050919050565b60006020820190508181036000830152612dd7816129be565b9050919050565b60006020820190508181036000830152612df7816129e1565b9050919050565b60006020820190508181036000830152612e1781612a04565b9050919050565b60006020820190508181036000830152612e3781612a27565b9050919050565b60006020820190508181036000830152612e5781612a4a565b9050919050565b60006020820190508181036000830152612e7781612a6d565b9050919050565b60006020820190508181036000830152612e9781612a90565b9050919050565b60006020820190508181036000830152612eb781612ab3565b9050919050565b60006020820190508181036000830152612ed781612ad6565b9050919050565b60006020820190508181036000830152612ef781612af9565b9050919050565b60006020820190508181036000830152612f1781612b62565b9050919050565b6000602082019050612f336000830184612b85565b92915050565b6000612f43612f54565b9050612f4f8282613210565b919050565b6000604051905090565b600067ffffffffffffffff821115612f7957612f78613348565b5b612f8282613377565b9050602081019050919050565b600081519050919050565b600081519050919050565b600082825260208201905092915050565b600082825260208201905092915050565b600081905092915050565b6000612fdd8261315b565b9150612fe88361315b565b9250827fffffffffffffffffffffffffffffffffffffffffffffffffffffffffffffffff0382111561301d5761301c6132bb565b5b828201905092915050565b60006130338261315b565b915061303e8361315b565b92508261304e5761304d6132ea565b5b828204905092915050565b60006130648261315b565b915061306f8361315b565b9250817fffffffffffffffffffffffffffffffffffffffffffffffffffffffffffffffff04831182151516156130a8576130a76132bb565b5b828202905092915050565b60006130be8261315b565b91506130c98361315b565b9250828210156130dc576130db6132bb565b5b828203905092915050565b60006130f28261313b565b9050919050565b60008115159050919050565b6000819050919050565b60007fffffffff0000000000000000000000000000000000000000000000000000000082169050919050565b600073ffffffffffffffffffffffffffffffffffffffff82169050919050565b6000819050919050565b600060ff82169050919050565b82818337600083830152505050565b60005b8381101561319f578082015181840152602081019050613184565b838111156131ae576000848401525b50505050565b60006131bf8261315b565b915060008214156131d3576131d26132bb565b5b600182039050919050565b600060028204905060018216806131f657607f821691505b6020821081141561320a57613209613319565b5b50919050565b61321982613377565b810181811067ffffffffffffffff8211171561323857613237613348565b5b80604052505050565b600061324c8261315b565b91507fffffffffffffffffffffffffffffffffffffffffffffffffffffffffffffffff82141561327f5761327e6132bb565b5b600182019050919050565b60006132958261315b565b91506132a08361315b565b9250826132b0576132af6132ea565b5b828206905092915050565b7f4e487b7100000000000000000000000000000000000000000000000000000000600052601160045260246000fd5b7f4e487b7100000000000000000000000000000000000000000000000000000000600052601260045260246000fd5b7f4e487b7100000000000000000000000000000000000000000000000000000000600052602260045260246000fd5b7f4e487b7100000000000000000000000000000000000000000000000000000000600052604160045260246000fd5b6000601f19601f8301169050919050565b7f537472696e67733a20686578206c656e67746820696e73756666696369656e74600082015250565b7f4552433732313a207472616e7366657220746f206e6f6e20455243373231526560008201527f63656976657220696d706c656d656e7465720000000000000000000000000000602082015250565b7f4552433732313a20746f6b656e20616c7265616479206d696e74656400000000600082015250565b7f4552433732313a207472616e7366657220746f20746865207a65726f2061646460008201527f7265737300000000000000000000000000000000000000000000000000000000602082015250565b7f4552433732313a20617070726f766520746f2063616c6c657200000000000000600082015250565b7f4552433732313a206f70657261746f7220717565727920666f72206e6f6e657860008201527f697374656e7420746f6b656e0000000000000000000000000000000000000000602082015250565b7f4552433732313a20617070726f76652063616c6c6572206973206e6f74206f7760008201527f6e6572206e6f7220617070726f76656420666f7220616c6c0000000000000000602082015250565b7f43616c6c6572206973206e6f742061206d696e74657200000000000000000000600082015250565b7f4552433732313a2062616c616e636520717565727920666f7220746865207a6560008201527f726f206164647265737300000000000000000000000000000000000000000000602082015250565b7f4552433732313a206f776e657220717565727920666f72206e6f6e657869737460008201527f656e7420746f6b656e0000000000000000000000000000000000000000000000602082015250565b7f4552433732313a206d696e7420746f20746865207a65726f2061646472657373600082015250565b7f4552433732313a20617070726f76656420717565727920666f72206e6f6e657860008201527f697374656e7420746f6b656e0000000000000000000000000000000000000000602082015250565b7f4552433732313a207472616e73666572206f6620746f6b656e2074686174206960008201527f73206e6f74206f776e0000000000000000000000000000000000000000000000602082015250565b7f4552433732314d657461646174613a2055524920717565727920666f72206e6f60008201527f6e6578697374656e7420746f6b656e0000000000000000000000000000000000602082015250565b7f4552433732313a20617070726f76616c20746f2063757272656e74206f776e6560008201527f7200000000000000000000000000000000000000000000000000000000000000602082015250565b7f4552433732313a207472616e736665722063616c6c6572206973206e6f74206f60008201527f776e6572206e6f7220617070726f766564000000000000000000000000000000602082015250565b7f416363657373436f6e74726f6c3a206163636f756e7420000000000000000000600082015250565b7f206973206d697373696e6720726f6c6520000000000000000000000000000000600082015250565b7f416363657373436f6e74726f6c3a2063616e206f6e6c792072656e6f756e636560008201527f20726f6c657320666f722073656c660000000000000000000000000000000000602082015250565b613864816130e7565b811461386f57600080fd5b50565b61387b816130f9565b811461388657600080fd5b50565b61389281613105565b811461389d57600080fd5b50565b6138a98161310f565b81146138b457600080fd5b50565b6138c08161315b565b81146138cb57600080fd5b50565b6138d781613165565b81146138e257600080fd5b5056fea2646970667358221220a0d83095343455216d8207fb5a07d2134d32d7ea19f3b8ba8ce455f38d983ccb64736f6c63430008040033",
  "immutableReferences": {},
  "source": "// SPDX-License-Identifier: MIT\npragma solidity ^0.8.0;\n\nimport \"@openzeppelin/contracts/access/AccessControl.sol\";\nimport \"@openzeppelin/contracts/token/ERC721/ERC721.sol\";\n\ncontract UniArtsNFT is ERC721, AccessControl {\n  // Create a new role identifier for the minter role\n  bytes32 public constant MINTER_ROLE = keccak256(\"MINTER_ROLE\");\n\n  struct TokenInfo {\n    string title;\n    uint8 class_id;\n    uint8 size;\n  }\n\n  /* Our tokeninfo are stored here */\n  TokenInfo[] public token_infos;\n\n  constructor(address minter) public ERC721(\"UniArtsNFT\", \"UANFT\") {\n    // Grant the minter role to a specified account\n    _setupRole(MINTER_ROLE, minter);\n    _setupRole(DEFAULT_ADMIN_ROLE, minter);\n  }\n  \n  function createNFT(address user_address, string calldata title, uint8 class_id, uint8 size) external {\n    // Only minters can mint\n    // Check that the calling account has the minter role\n    require(hasRole(MINTER_ROLE, msg.sender), \"Caller is not a minter\");\n\n    token_infos.push(TokenInfo({title: title, class_id: class_id, size: size}));\n    uint tokenId = token_infos.length - 1;\n    _mint(user_address, tokenId);\n  }\n\n  function getNFT(\n    uint tokenId\n  ) external view returns (\n    string memory title,\n    uint8 class_id,\n    uint8 size\n  ) {\n    return (\n      token_infos[tokenId].title,\n      token_infos[tokenId].class_id,\n      token_infos[tokenId].size\n    );\n  }\n\n  /**\n  * override(ERC721, AccessControl) -> here you're specifying only two base classes ERC721, AccessControl\n  * */\n  function supportsInterface(bytes4 interfaceId)\n      public\n      view\n      override(ERC721, AccessControl)\n      returns (bool)\n  {\n      return super.supportsInterface(interfaceId);\n  }\n}\n",
  "sourcePath": "/Users/yxf/app/uniarts-eth-dao/contracts/ERC721/UniArtsNFT.sol",
  "compiler": {
    "name": "solc",
    "version": "0.8.4+commit.c7e474f2.Emscripten.clang"
  },
  "schemaVersion": "3.2.3",
  "updatedAt": "2021-08-27T01:56:55.050Z",
  "devdoc": {
    "kind": "dev",
    "methods": {
      "approve(address,uint256)": {
        "details": "See {IERC721-approve}."
      },
      "balanceOf(address)": {
        "details": "See {IERC721-balanceOf}."
      },
      "getApproved(uint256)": {
        "details": "See {IERC721-getApproved}."
      },
      "getRoleAdmin(bytes32)": {
        "details": "Returns the admin role that controls `role`. See {grantRole} and {revokeRole}. To change a role's admin, use {_setRoleAdmin}."
      },
      "grantRole(bytes32,address)": {
        "details": "Grants `role` to `account`. If `account` had not been already granted `role`, emits a {RoleGranted} event. Requirements: - the caller must have ``role``'s admin role."
      },
      "hasRole(bytes32,address)": {
        "details": "Returns `true` if `account` has been granted `role`."
      },
      "isApprovedForAll(address,address)": {
        "details": "See {IERC721-isApprovedForAll}."
      },
      "name()": {
        "details": "See {IERC721Metadata-name}."
      },
      "ownerOf(uint256)": {
        "details": "See {IERC721-ownerOf}."
      },
      "renounceRole(bytes32,address)": {
        "details": "Revokes `role` from the calling account. Roles are often managed via {grantRole} and {revokeRole}: this function's purpose is to provide a mechanism for accounts to lose their privileges if they are compromised (such as when a trusted device is misplaced). If the calling account had been granted `role`, emits a {RoleRevoked} event. Requirements: - the caller must be `account`."
      },
      "revokeRole(bytes32,address)": {
        "details": "Revokes `role` from `account`. If `account` had been granted `role`, emits a {RoleRevoked} event. Requirements: - the caller must have ``role``'s admin role."
      },
      "safeTransferFrom(address,address,uint256)": {
        "details": "See {IERC721-safeTransferFrom}."
      },
      "safeTransferFrom(address,address,uint256,bytes)": {
        "details": "See {IERC721-safeTransferFrom}."
      },
      "setApprovalForAll(address,bool)": {
        "details": "See {IERC721-setApprovalForAll}."
      },
      "symbol()": {
        "details": "See {IERC721Metadata-symbol}."
      },
      "tokenURI(uint256)": {
        "details": "See {IERC721Metadata-tokenURI}."
      },
      "transferFrom(address,address,uint256)": {
        "details": "See {IERC721-transferFrom}."
      }
    },
    "version": 1
  },
  "userdoc": {
    "kind": "user",
    "methods": {
      "supportsInterface(bytes4)": {
        "notice": "override(ERC721, AccessControl) -> here you're specifying only two base classes ERC721, AccessControl "
      }
    },
    "version": 1
  }
}